{
  "_format": "hh-sol-artifact-1",
  "contractName": "NftContract721",
  "sourceName": "contracts/Nft721.sol",
  "abi": [
    {
      "inputs": [
        {
          "internalType": "address",
          "name": "_proxyRegistryAddress",
          "type": "address"
        }
      ],
      "stateMutability": "nonpayable",
      "type": "constructor"
    },
    {
      "anonymous": false,
      "inputs": [
        {
          "indexed": true,
          "internalType": "address",
          "name": "owner",
          "type": "address"
        },
        {
          "indexed": true,
          "internalType": "address",
          "name": "approved",
          "type": "address"
        },
        {
          "indexed": true,
          "internalType": "uint256",
          "name": "tokenId",
          "type": "uint256"
        }
      ],
      "name": "Approval",
      "type": "event"
    },
    {
      "anonymous": false,
      "inputs": [
        {
          "indexed": true,
          "internalType": "address",
          "name": "owner",
          "type": "address"
        },
        {
          "indexed": true,
          "internalType": "address",
          "name": "operator",
          "type": "address"
        },
        {
          "indexed": false,
          "internalType": "bool",
          "name": "approved",
          "type": "bool"
        }
      ],
      "name": "ApprovalForAll",
      "type": "event"
    },
    {
      "anonymous": false,
      "inputs": [
        {
          "indexed": false,
          "internalType": "address",
          "name": "account",
          "type": "address"
        }
      ],
      "name": "Paused",
      "type": "event"
    },
    {
      "anonymous": false,
      "inputs": [
        {
          "indexed": true,
          "internalType": "bytes32",
          "name": "role",
          "type": "bytes32"
        },
        {
          "indexed": true,
          "internalType": "bytes32",
          "name": "previousAdminRole",
          "type": "bytes32"
        },
        {
          "indexed": true,
          "internalType": "bytes32",
          "name": "newAdminRole",
          "type": "bytes32"
        }
      ],
      "name": "RoleAdminChanged",
      "type": "event"
    },
    {
      "anonymous": false,
      "inputs": [
        {
          "indexed": true,
          "internalType": "bytes32",
          "name": "role",
          "type": "bytes32"
        },
        {
          "indexed": true,
          "internalType": "address",
          "name": "account",
          "type": "address"
        },
        {
          "indexed": true,
          "internalType": "address",
          "name": "sender",
          "type": "address"
        }
      ],
      "name": "RoleGranted",
      "type": "event"
    },
    {
      "anonymous": false,
      "inputs": [
        {
          "indexed": true,
          "internalType": "bytes32",
          "name": "role",
          "type": "bytes32"
        },
        {
          "indexed": true,
          "internalType": "address",
          "name": "account",
          "type": "address"
        },
        {
          "indexed": true,
          "internalType": "address",
          "name": "sender",
          "type": "address"
        }
      ],
      "name": "RoleRevoked",
      "type": "event"
    },
    {
      "anonymous": false,
      "inputs": [
        {
          "indexed": true,
          "internalType": "address",
          "name": "from",
          "type": "address"
        },
        {
          "indexed": true,
          "internalType": "address",
          "name": "to",
          "type": "address"
        },
        {
          "indexed": true,
          "internalType": "uint256",
          "name": "tokenId",
          "type": "uint256"
        }
      ],
      "name": "Transfer",
      "type": "event"
    },
    {
      "anonymous": false,
      "inputs": [
        {
          "indexed": false,
          "internalType": "address",
          "name": "account",
          "type": "address"
        }
      ],
      "name": "Unpaused",
      "type": "event"
    },
    {
      "inputs": [],
      "name": "DEFAULT_ADMIN_ROLE",
      "outputs": [
        {
          "internalType": "bytes32",
          "name": "",
          "type": "bytes32"
        }
      ],
      "stateMutability": "view",
      "type": "function"
    },
    {
      "inputs": [],
      "name": "MINTER_ROLE",
      "outputs": [
        {
          "internalType": "bytes32",
          "name": "",
          "type": "bytes32"
        }
      ],
      "stateMutability": "view",
      "type": "function"
    },
    {
      "inputs": [],
      "name": "PAUSER_ROLE",
      "outputs": [
        {
          "internalType": "bytes32",
          "name": "",
          "type": "bytes32"
        }
      ],
      "stateMutability": "view",
      "type": "function"
    },
    {
      "inputs": [
        {
          "internalType": "address",
          "name": "to",
          "type": "address"
        },
        {
          "internalType": "uint256",
          "name": "tokenId",
          "type": "uint256"
        }
      ],
      "name": "approve",
      "outputs": [],
      "stateMutability": "nonpayable",
      "type": "function"
    },
    {
      "inputs": [
        {
          "internalType": "address",
          "name": "owner",
          "type": "address"
        }
      ],
      "name": "balanceOf",
      "outputs": [
        {
          "internalType": "uint256",
          "name": "",
          "type": "uint256"
        }
      ],
      "stateMutability": "view",
      "type": "function"
    },
    {
      "inputs": [
        {
          "internalType": "uint256",
          "name": "tokenId",
          "type": "uint256"
        }
      ],
      "name": "burn",
      "outputs": [],
      "stateMutability": "nonpayable",
      "type": "function"
    },
    {
      "inputs": [
        {
          "internalType": "uint256",
          "name": "tokenId",
          "type": "uint256"
        }
      ],
      "name": "getApproved",
      "outputs": [
        {
          "internalType": "address",
          "name": "",
          "type": "address"
        }
      ],
      "stateMutability": "view",
      "type": "function"
    },
    {
      "inputs": [
        {
          "internalType": "bytes32",
          "name": "role",
          "type": "bytes32"
        }
      ],
      "name": "getRoleAdmin",
      "outputs": [
        {
          "internalType": "bytes32",
          "name": "",
          "type": "bytes32"
        }
      ],
      "stateMutability": "view",
      "type": "function"
    },
    {
      "inputs": [
        {
          "internalType": "bytes32",
          "name": "role",
          "type": "bytes32"
        },
        {
          "internalType": "address",
          "name": "account",
          "type": "address"
        }
      ],
      "name": "grantRole",
      "outputs": [],
      "stateMutability": "nonpayable",
      "type": "function"
    },
    {
      "inputs": [
        {
          "internalType": "bytes32",
          "name": "role",
          "type": "bytes32"
        },
        {
          "internalType": "address",
          "name": "account",
          "type": "address"
        }
      ],
      "name": "hasRole",
      "outputs": [
        {
          "internalType": "bool",
          "name": "",
          "type": "bool"
        }
      ],
      "stateMutability": "view",
      "type": "function"
    },
    {
      "inputs": [
        {
          "internalType": "address",
          "name": "_owner",
          "type": "address"
        },
        {
          "internalType": "address",
          "name": "_operator",
          "type": "address"
        }
      ],
      "name": "isApprovedForAll",
      "outputs": [
        {
          "internalType": "bool",
          "name": "isOperator",
          "type": "bool"
        }
      ],
      "stateMutability": "view",
      "type": "function"
    },
    {
      "inputs": [
        {
          "internalType": "address",
          "name": "to",
          "type": "address"
        },
        {
          "internalType": "uint256",
          "name": "tokenId",
          "type": "uint256"
        }
      ],
      "name": "mint",
      "outputs": [],
      "stateMutability": "nonpayable",
      "type": "function"
    },
    {
      "inputs": [],
      "name": "name",
      "outputs": [
        {
          "internalType": "string",
          "name": "",
          "type": "string"
        }
      ],
      "stateMutability": "view",
      "type": "function"
    },
    {
      "inputs": [
        {
          "internalType": "uint256",
          "name": "tokenId",
          "type": "uint256"
        }
      ],
      "name": "ownerOf",
      "outputs": [
        {
          "internalType": "address",
          "name": "",
          "type": "address"
        }
      ],
      "stateMutability": "view",
      "type": "function"
    },
    {
      "inputs": [],
      "name": "pause",
      "outputs": [],
      "stateMutability": "nonpayable",
      "type": "function"
    },
    {
      "inputs": [],
      "name": "paused",
      "outputs": [
        {
          "internalType": "bool",
          "name": "",
          "type": "bool"
        }
      ],
      "stateMutability": "view",
      "type": "function"
    },
    {
      "inputs": [],
      "name": "proxyRegistryAddress",
      "outputs": [
        {
          "internalType": "address",
          "name": "",
          "type": "address"
        }
      ],
      "stateMutability": "view",
      "type": "function"
    },
    {
      "inputs": [
        {
          "internalType": "bytes32",
          "name": "role",
          "type": "bytes32"
        },
        {
          "internalType": "address",
          "name": "account",
          "type": "address"
        }
      ],
      "name": "renounceRole",
      "outputs": [],
      "stateMutability": "nonpayable",
      "type": "function"
    },
    {
      "inputs": [
        {
          "internalType": "bytes32",
          "name": "role",
          "type": "bytes32"
        },
        {
          "internalType": "address",
          "name": "account",
          "type": "address"
        }
      ],
      "name": "revokeRole",
      "outputs": [],
      "stateMutability": "nonpayable",
      "type": "function"
    },
    {
      "inputs": [
        {
          "internalType": "address",
          "name": "from",
          "type": "address"
        },
        {
          "internalType": "address",
          "name": "to",
          "type": "address"
        },
        {
          "internalType": "uint256",
          "name": "tokenId",
          "type": "uint256"
        }
      ],
      "name": "safeTransferFrom",
      "outputs": [],
      "stateMutability": "nonpayable",
      "type": "function"
    },
    {
      "inputs": [
        {
          "internalType": "address",
          "name": "from",
          "type": "address"
        },
        {
          "internalType": "address",
          "name": "to",
          "type": "address"
        },
        {
          "internalType": "uint256",
          "name": "tokenId",
          "type": "uint256"
        },
        {
          "internalType": "bytes",
          "name": "_data",
          "type": "bytes"
        }
      ],
      "name": "safeTransferFrom",
      "outputs": [],
      "stateMutability": "nonpayable",
      "type": "function"
    },
    {
      "inputs": [
        {
          "internalType": "address",
          "name": "operator",
          "type": "address"
        },
        {
          "internalType": "bool",
          "name": "approved",
          "type": "bool"
        }
      ],
      "name": "setApprovalForAll",
      "outputs": [],
      "stateMutability": "nonpayable",
      "type": "function"
    },
    {
      "inputs": [
        {
          "internalType": "string",
          "name": "_newBaseURI",
          "type": "string"
        }
      ],
      "name": "setBaseURI",
      "outputs": [],
      "stateMutability": "nonpayable",
      "type": "function"
    },
    {
      "inputs": [
        {
          "internalType": "bytes4",
          "name": "interfaceId",
          "type": "bytes4"
        }
      ],
      "name": "supportsInterface",
      "outputs": [
        {
          "internalType": "bool",
          "name": "",
          "type": "bool"
        }
      ],
      "stateMutability": "view",
      "type": "function"
    },
    {
      "inputs": [],
      "name": "symbol",
      "outputs": [
        {
          "internalType": "string",
          "name": "",
          "type": "string"
        }
      ],
      "stateMutability": "view",
      "type": "function"
    },
    {
      "inputs": [
        {
          "internalType": "uint256",
          "name": "tokenId",
          "type": "uint256"
        }
      ],
      "name": "tokenURI",
      "outputs": [
        {
          "internalType": "string",
          "name": "",
          "type": "string"
        }
      ],
      "stateMutability": "view",
      "type": "function"
    },
    {
      "inputs": [
        {
          "internalType": "address",
          "name": "from",
          "type": "address"
        },
        {
          "internalType": "address",
          "name": "to",
          "type": "address"
        },
        {
          "internalType": "uint256",
          "name": "tokenId",
          "type": "uint256"
        }
      ],
      "name": "transferFrom",
      "outputs": [],
      "stateMutability": "nonpayable",
      "type": "function"
    },
    {
      "inputs": [],
      "name": "unpause",
      "outputs": [],
      "stateMutability": "nonpayable",
      "type": "function"
    }
  ],
  "bytecode": "0x60806040523480156200001157600080fd5b5060405162002494380380620024948339810160408190526200003491620002b3565b604080518082018252601281527113919508105cdcd95d080dcc8c48151154d560721b60208083019182528351808501909452600384526213919560ea1b90840152815191929162000089916000916200020d565b5080516200009f9060019060208401906200020d565b50506006805460ff1916905550620000b960003362000168565b620000e57f65d7a28e3265b37a6474929f336521b332c1681b933f6cb9f3376673440d862a3362000168565b620001117f9f2df0fed2c77648de5860a4cc508cd0818c85b8b8a1ab4ceeef8d981c8956a63362000168565b6040518060600160405280602981526020016200246b60299139805162000141916008916020909101906200020d565b50600980546001600160a01b0319166001600160a01b039290921691909117905562000322565b60008281526007602090815260408083206001600160a01b038516845290915290205460ff16620002095760008281526007602090815260408083206001600160a01b03851684529091529020805460ff19166001179055620001c83390565b6001600160a01b0316816001600160a01b0316837f2f8788117e7eff1d82e926ec794901d17c78024a50270940304540a733656f0d60405160405180910390a45b5050565b8280546200021b90620002e5565b90600052602060002090601f0160209004810192826200023f57600085556200028a565b82601f106200025a57805160ff19168380011785556200028a565b828001600101855582156200028a579182015b828111156200028a5782518255916020019190600101906200026d565b50620002989291506200029c565b5090565b5b808211156200029857600081556001016200029d565b600060208284031215620002c657600080fd5b81516001600160a01b0381168114620002de57600080fd5b9392505050565b600181811c90821680620002fa57607f821691505b602082108114156200031c57634e487b7160e01b600052602260045260246000fd5b50919050565b61213980620003326000396000f3fe608060405234801561001057600080fd5b50600436106101c45760003560e01c80636352211e116100f9578063b88d4fde11610097578063d539139311610071578063d5391393146103d2578063d547741f146103f9578063e63ab1e91461040c578063e985e9c51461043357600080fd5b8063b88d4fde14610399578063c87b56dd146103ac578063cd7c0326146103bf57600080fd5b806391d14854116100d357806391d148541461033d57806395d89b4114610376578063a217fddf1461037e578063a22cb4651461038657600080fd5b80636352211e1461030f57806370a08231146103225780638456cb591461033557600080fd5b806336568abe1161016657806342842e0e1161014057806342842e0e146102cb57806342966c68146102de57806355f804b3146102f15780635c975abb1461030457600080fd5b806336568abe1461029d5780633f4ba83a146102b057806340c10f19146102b857600080fd5b8063095ea7b3116101a2578063095ea7b31461023157806323b872dd14610246578063248a9ca3146102595780632f2ff15d1461028a57600080fd5b806301ffc9a7146101c957806306fdde03146101f1578063081812fc14610206575b600080fd5b6101dc6101d7366004611b92565b610446565b60405190151581526020015b60405180910390f35b6101f9610457565b6040516101e89190611c07565b610219610214366004611c1a565b6104e9565b6040516001600160a01b0390911681526020016101e8565b61024461023f366004611c48565b610583565b005b610244610254366004611c74565b610699565b61027c610267366004611c1a565b60009081526007602052604090206001015490565b6040519081526020016101e8565b610244610298366004611cb5565b610715565b6102446102ab366004611cb5565b61073b565b6102446107c7565b6102446102c6366004611c48565b6107fd565b6102446102d9366004611c74565b610832565b6102446102ec366004611c1a565b61084d565b6102446102ff366004611d71565b6108d1565b60065460ff166101dc565b61021961031d366004611c1a565b6108f0565b61027c610330366004611dba565b610967565b6102446109ee565b6101dc61034b366004611cb5565b60009182526007602090815260408084206001600160a01b0393909316845291905290205460ff1690565b6101f9610a21565b61027c600081565b610244610394366004611dd7565b610a30565b6102446103a7366004611e0a565b610a3b565b6101f96103ba366004611c1a565b610abd565b600954610219906001600160a01b031681565b61027c7f9f2df0fed2c77648de5860a4cc508cd0818c85b8b8a1ab4ceeef8d981c8956a681565b610244610407366004611cb5565b610ba6565b61027c7f65d7a28e3265b37a6474929f336521b332c1681b933f6cb9f3376673440d862a81565b6101dc610441366004611e8a565b610bcc565b600061045182610c9c565b92915050565b60606000805461046690611eb8565b80601f016020809104026020016040519081016040528092919081815260200182805461049290611eb8565b80156104df5780601f106104b4576101008083540402835291602001916104df565b820191906000526020600020905b8154815290600101906020018083116104c257829003601f168201915b5050505050905090565b6000818152600260205260408120546001600160a01b03166105675760405162461bcd60e51b815260206004820152602c60248201527f4552433732313a20617070726f76656420717565727920666f72206e6f6e657860448201526b34b9ba32b73a103a37b5b2b760a11b60648201526084015b60405180910390fd5b506000908152600460205260409020546001600160a01b031690565b600061058e826108f0565b9050806001600160a01b0316836001600160a01b031614156105fc5760405162461bcd60e51b815260206004820152602160248201527f4552433732313a20617070726f76616c20746f2063757272656e74206f776e656044820152603960f91b606482015260840161055e565b336001600160a01b038216148061061857506106188133610bcc565b61068a5760405162461bcd60e51b815260206004820152603860248201527f4552433732313a20617070726f76652063616c6c6572206973206e6f74206f7760448201527f6e6572206e6f7220617070726f76656420666f7220616c6c0000000000000000606482015260840161055e565b6106948383610cc1565b505050565b6106a4335b82610d2f565b61070a5760405162461bcd60e51b815260206004820152603160248201527f4552433732313a207472616e736665722063616c6c6572206973206e6f74206f6044820152701ddb995c881b9bdc88185c1c1c9bdd9959607a1b606482015260840161055e565b610694838383610dfe565b6000828152600760205260409020600101546107318133610fa9565b6106948383611029565b6001600160a01b03811633146107b95760405162461bcd60e51b815260206004820152602f60248201527f416363657373436f6e74726f6c3a2063616e206f6e6c792072656e6f756e636560448201527f20726f6c657320666f722073656c660000000000000000000000000000000000606482015260840161055e565b6107c382826110cb565b5050565b7f65d7a28e3265b37a6474929f336521b332c1681b933f6cb9f3376673440d862a6107f28133610fa9565b6107fa61114e565b50565b7f9f2df0fed2c77648de5860a4cc508cd0818c85b8b8a1ab4ceeef8d981c8956a66108288133610fa9565b61069483836111ea565b61069483838360405180602001604052806000815250610a3b565b6108563361069e565b6108c85760405162461bcd60e51b815260206004820152603060248201527f4552433732314275726e61626c653a2063616c6c6572206973206e6f74206f7760448201527f6e6572206e6f7220617070726f76656400000000000000000000000000000000606482015260840161055e565b6107fa81611204565b60006108dd8133610fa9565b8151610694906008906020850190611ae3565b6000818152600260205260408120546001600160a01b0316806104515760405162461bcd60e51b815260206004820152602960248201527f4552433732313a206f776e657220717565727920666f72206e6f6e657869737460448201526832b73a103a37b5b2b760b91b606482015260840161055e565b60006001600160a01b0382166109d25760405162461bcd60e51b815260206004820152602a60248201527f4552433732313a2062616c616e636520717565727920666f7220746865207a65604482015269726f206164647265737360b01b606482015260840161055e565b506001600160a01b031660009081526003602052604090205490565b7f65d7a28e3265b37a6474929f336521b332c1681b933f6cb9f3376673440d862a610a198133610fa9565b6107fa6112ab565b60606001805461046690611eb8565b6107c3338383611326565b610a453383610d2f565b610aab5760405162461bcd60e51b815260206004820152603160248201527f4552433732313a207472616e736665722063616c6c6572206973206e6f74206f6044820152701ddb995c881b9bdc88185c1c1c9bdd9959607a1b606482015260840161055e565b610ab7848484846113f5565b50505050565b6000818152600260205260409020546060906001600160a01b0316610b4a5760405162461bcd60e51b815260206004820152602f60248201527f4552433732314d657461646174613a2055524920717565727920666f72206e6f60448201527f6e6578697374656e7420746f6b656e0000000000000000000000000000000000606482015260840161055e565b6000610b54611473565b90506000815111610b745760405180602001604052806000815250610b9f565b80610b7e84611482565b604051602001610b8f929190611ef3565b6040516020818303038152906040525b9392505050565b600082815260076020526040902060010154610bc28133610fa9565b61069483836110cb565b60095460405163c455279160e01b81526001600160a01b03848116600483015260009281169190841690829063c45527919060240160206040518083038186803b158015610c1957600080fd5b505afa158015610c2d573d6000803e3d6000fd5b505050506040513d601f19601f82011682018060405250810190610c519190611f22565b6001600160a01b03161415610c6a576001915050610451565b6001600160a01b0380851660009081526005602090815260408083209387168352929052205460ff165b949350505050565b60006001600160e01b03198216637965db0b60e01b1480610451575061045182611580565b600081815260046020526040902080546001600160a01b0319166001600160a01b0384169081179091558190610cf6826108f0565b6001600160a01b03167f8c5be1e5ebec7d5bd14f71427d1e84f3dd0314c0f7b2291e5b200ac8c7c3b92560405160405180910390a45050565b6000818152600260205260408120546001600160a01b0316610da85760405162461bcd60e51b815260206004820152602c60248201527f4552433732313a206f70657261746f7220717565727920666f72206e6f6e657860448201526b34b9ba32b73a103a37b5b2b760a11b606482015260840161055e565b6000610db3836108f0565b9050806001600160a01b0316846001600160a01b03161480610dee5750836001600160a01b0316610de3846104e9565b6001600160a01b0316145b80610c945750610c948185610bcc565b826001600160a01b0316610e11826108f0565b6001600160a01b031614610e795760405162461bcd60e51b815260206004820152602960248201527f4552433732313a207472616e73666572206f6620746f6b656e2074686174206960448201526839903737ba1037bbb760b91b606482015260840161055e565b6001600160a01b038216610edb5760405162461bcd60e51b8152602060048201526024808201527f4552433732313a207472616e7366657220746f20746865207a65726f206164646044820152637265737360e01b606482015260840161055e565b610ee68383836115d0565b610ef1600082610cc1565b6001600160a01b0383166000908152600360205260408120805460019290610f1a908490611f55565b90915550506001600160a01b0382166000908152600360205260408120805460019290610f48908490611f6c565b909155505060008181526002602052604080822080546001600160a01b0319166001600160a01b0386811691821790925591518493918716917fddf252ad1be2c89b69c2b068fc378daa952ba7f163c4a11628f55a4df523b3ef91a4505050565b60008281526007602090815260408083206001600160a01b038516845290915290205460ff166107c357610fe7816001600160a01b03166014611616565b610ff2836020611616565b604051602001611003929190611f84565b60408051601f198184030181529082905262461bcd60e51b825261055e91600401611c07565b60008281526007602090815260408083206001600160a01b038516845290915290205460ff166107c35760008281526007602090815260408083206001600160a01b03851684529091529020805460ff191660011790556110873390565b6001600160a01b0316816001600160a01b0316837f2f8788117e7eff1d82e926ec794901d17c78024a50270940304540a733656f0d60405160405180910390a45050565b60008281526007602090815260408083206001600160a01b038516845290915290205460ff16156107c35760008281526007602090815260408083206001600160a01b0385168085529252808320805460ff1916905551339285917ff6391f5c32d9c69d2a47ea670b442974b53935d1edc7fd64eb21e047a839171b9190a45050565b60065460ff166111a05760405162461bcd60e51b815260206004820152601460248201527f5061757361626c653a206e6f7420706175736564000000000000000000000000604482015260640161055e565b6006805460ff191690557f5db9ee0a495bf2e6ff9c91a7834c1ba4fdd244a5e8aa4e537bd38aeae4b073aa335b6040516001600160a01b03909116815260200160405180910390a1565b6107c38282604051806020016040528060008152506117bf565b600061120f826108f0565b905061121d816000846115d0565b611228600083610cc1565b6001600160a01b0381166000908152600360205260408120805460019290611251908490611f55565b909155505060008281526002602052604080822080546001600160a01b0319169055518391906001600160a01b038416907fddf252ad1be2c89b69c2b068fc378daa952ba7f163c4a11628f55a4df523b3ef908390a45050565b60065460ff16156112f15760405162461bcd60e51b815260206004820152601060248201526f14185d5cd8589b194e881c185d5cd95960821b604482015260640161055e565b6006805460ff191660011790557f62e78cea01bee320cd4e420270b5ea74000d11b0c9f74754ebdbfc544b05a2586111cd3390565b816001600160a01b0316836001600160a01b031614156113885760405162461bcd60e51b815260206004820152601960248201527f4552433732313a20617070726f766520746f2063616c6c657200000000000000604482015260640161055e565b6001600160a01b03838116600081815260056020908152604080832094871680845294825291829020805460ff191686151590811790915591519182527f17307eab39ab6107e8899845ad3d59bd9653f200f220920489ca2b5937696c31910160405180910390a3505050565b611400848484610dfe565b61140c8484848461183d565b610ab75760405162461bcd60e51b815260206004820152603260248201527f4552433732313a207472616e7366657220746f206e6f6e20455243373231526560448201527131b2b4bb32b91034b6b83632b6b2b73a32b960711b606482015260840161055e565b60606008805461046690611eb8565b6060816114a65750506040805180820190915260018152600360fc1b602082015290565b8160005b81156114d057806114ba81612005565b91506114c99050600a83612036565b91506114aa565b60008167ffffffffffffffff8111156114eb576114eb611ce5565b6040519080825280601f01601f191660200182016040528015611515576020820181803683370190505b5090505b8415610c945761152a600183611f55565b9150611537600a8661204a565b611542906030611f6c565b60f81b8183815181106115575761155761205e565b60200101906001600160f81b031916908160001a905350611579600a86612036565b9450611519565b60006001600160e01b031982166380ac58cd60e01b14806115b157506001600160e01b03198216635b5e139f60e01b145b8061045157506301ffc9a760e01b6001600160e01b0319831614610451565b60065460ff16156106945760405162461bcd60e51b815260206004820152601060248201526f14185d5cd8589b194e881c185d5cd95960821b604482015260640161055e565b60606000611625836002612074565b611630906002611f6c565b67ffffffffffffffff81111561164857611648611ce5565b6040519080825280601f01601f191660200182016040528015611672576020820181803683370190505b509050600360fc1b8160008151811061168d5761168d61205e565b60200101906001600160f81b031916908160001a905350600f60fb1b816001815181106116bc576116bc61205e565b60200101906001600160f81b031916908160001a90535060006116e0846002612074565b6116eb906001611f6c565b90505b6001811115611770577f303132333435363738396162636465660000000000000000000000000000000085600f166010811061172c5761172c61205e565b1a60f81b8282815181106117425761174261205e565b60200101906001600160f81b031916908160001a90535060049490941c9361176981612093565b90506116ee565b508315610b9f5760405162461bcd60e51b815260206004820181905260248201527f537472696e67733a20686578206c656e67746820696e73756666696369656e74604482015260640161055e565b6117c98383611995565b6117d6600084848461183d565b6106945760405162461bcd60e51b815260206004820152603260248201527f4552433732313a207472616e7366657220746f206e6f6e20455243373231526560448201527131b2b4bb32b91034b6b83632b6b2b73a32b960711b606482015260840161055e565b60006001600160a01b0384163b1561198a57604051630a85bd0160e11b81526001600160a01b0385169063150b7a02906118819033908990889088906004016120aa565b602060405180830381600087803b15801561189b57600080fd5b505af19250505080156118cb575060408051601f3d908101601f191682019092526118c8918101906120e6565b60015b611970573d8080156118f9576040519150601f19603f3d011682016040523d82523d6000602084013e6118fe565b606091505b5080516119685760405162461bcd60e51b815260206004820152603260248201527f4552433732313a207472616e7366657220746f206e6f6e20455243373231526560448201527131b2b4bb32b91034b6b83632b6b2b73a32b960711b606482015260840161055e565b805181602001fd5b6001600160e01b031916630a85bd0160e11b149050610c94565b506001949350505050565b6001600160a01b0382166119eb5760405162461bcd60e51b815260206004820181905260248201527f4552433732313a206d696e7420746f20746865207a65726f2061646472657373604482015260640161055e565b6000818152600260205260409020546001600160a01b031615611a505760405162461bcd60e51b815260206004820152601c60248201527f4552433732313a20746f6b656e20616c7265616479206d696e74656400000000604482015260640161055e565b611a5c600083836115d0565b6001600160a01b0382166000908152600360205260408120805460019290611a85908490611f6c565b909155505060008181526002602052604080822080546001600160a01b0319166001600160a01b03861690811790915590518392907fddf252ad1be2c89b69c2b068fc378daa952ba7f163c4a11628f55a4df523b3ef908290a45050565b828054611aef90611eb8565b90600052602060002090601f016020900481019282611b115760008555611b57565b82601f10611b2a57805160ff1916838001178555611b57565b82800160010185558215611b57579182015b82811115611b57578251825591602001919060010190611b3c565b50611b63929150611b67565b5090565b5b80821115611b635760008155600101611b68565b6001600160e01b0319811681146107fa57600080fd5b600060208284031215611ba457600080fd5b8135610b9f81611b7c565b60005b83811015611bca578181015183820152602001611bb2565b83811115610ab75750506000910152565b60008151808452611bf3816020860160208601611baf565b601f01601f19169290920160200192915050565b602081526000610b9f6020830184611bdb565b600060208284031215611c2c57600080fd5b5035919050565b6001600160a01b03811681146107fa57600080fd5b60008060408385031215611c5b57600080fd5b8235611c6681611c33565b946020939093013593505050565b600080600060608486031215611c8957600080fd5b8335611c9481611c33565b92506020840135611ca481611c33565b929592945050506040919091013590565b60008060408385031215611cc857600080fd5b823591506020830135611cda81611c33565b809150509250929050565b634e487b7160e01b600052604160045260246000fd5b600067ffffffffffffffff80841115611d1657611d16611ce5565b604051601f8501601f19908116603f01168101908282118183101715611d3e57611d3e611ce5565b81604052809350858152868686011115611d5757600080fd5b858560208301376000602087830101525050509392505050565b600060208284031215611d8357600080fd5b813567ffffffffffffffff811115611d9a57600080fd5b8201601f81018413611dab57600080fd5b610c9484823560208401611cfb565b600060208284031215611dcc57600080fd5b8135610b9f81611c33565b60008060408385031215611dea57600080fd5b8235611df581611c33565b915060208301358015158114611cda57600080fd5b60008060008060808587031215611e2057600080fd5b8435611e2b81611c33565b93506020850135611e3b81611c33565b925060408501359150606085013567ffffffffffffffff811115611e5e57600080fd5b8501601f81018713611e6f57600080fd5b611e7e87823560208401611cfb565b91505092959194509250565b60008060408385031215611e9d57600080fd5b8235611ea881611c33565b91506020830135611cda81611c33565b600181811c90821680611ecc57607f821691505b60208210811415611eed57634e487b7160e01b600052602260045260246000fd5b50919050565b60008351611f05818460208801611baf565b835190830190611f19818360208801611baf565b01949350505050565b600060208284031215611f3457600080fd5b8151610b9f81611c33565b634e487b7160e01b600052601160045260246000fd5b600082821015611f6757611f67611f3f565b500390565b60008219821115611f7f57611f7f611f3f565b500190565b7f416363657373436f6e74726f6c3a206163636f756e7420000000000000000000815260008351611fbc816017850160208801611baf565b7f206973206d697373696e6720726f6c65200000000000000000000000000000006017918401918201528351611ff9816028840160208801611baf565b01602801949350505050565b600060001982141561201957612019611f3f565b5060010190565b634e487b7160e01b600052601260045260246000fd5b60008261204557612045612020565b500490565b60008261205957612059612020565b500690565b634e487b7160e01b600052603260045260246000fd5b600081600019048311821515161561208e5761208e611f3f565b500290565b6000816120a2576120a2611f3f565b506000190190565b60006001600160a01b038087168352808616602084015250836040830152608060608301526120dc6080830184611bdb565b9695505050505050565b6000602082840312156120f857600080fd5b8151610b9f81611b7c56fea2646970667358221220d61abc72e422ae13b8285fcfc23e162ab1272dbc72e05d827ab8d32027fb56ec64736f6c6343000809003368747470733a2f2f6e66742d6d61726b6574706c6163652e636f6d2f76312f746f6b656e2f7b69647d",
  "linkReferences": {},
  "deployedLinkReferences": {}
}