{
  "_format": "hh-sol-artifact-1",
  "contractName": "NftContract1155",
  "sourceName": "contracts/Nft1155.sol",
  "abi": [
    {
      "inputs": [
        {
          "internalType": "address",
          "name": "_proxyRegistryAddress",
          "type": "address"
        }
      ],
      "stateMutability": "nonpayable",
      "type": "constructor"
    },
    {
      "anonymous": false,
      "inputs": [
        {
          "indexed": true,
          "internalType": "address",
          "name": "account",
          "type": "address"
        },
        {
          "indexed": true,
          "internalType": "address",
          "name": "operator",
          "type": "address"
        },
        {
          "indexed": false,
          "internalType": "bool",
          "name": "approved",
          "type": "bool"
        }
      ],
      "name": "ApprovalForAll",
      "type": "event"
    },
    {
      "anonymous": false,
      "inputs": [
        {
          "indexed": false,
          "internalType": "address",
          "name": "account",
          "type": "address"
        }
      ],
      "name": "Paused",
      "type": "event"
    },
    {
      "anonymous": false,
      "inputs": [
        {
          "indexed": true,
          "internalType": "bytes32",
          "name": "role",
          "type": "bytes32"
        },
        {
          "indexed": true,
          "internalType": "bytes32",
          "name": "previousAdminRole",
          "type": "bytes32"
        },
        {
          "indexed": true,
          "internalType": "bytes32",
          "name": "newAdminRole",
          "type": "bytes32"
        }
      ],
      "name": "RoleAdminChanged",
      "type": "event"
    },
    {
      "anonymous": false,
      "inputs": [
        {
          "indexed": true,
          "internalType": "bytes32",
          "name": "role",
          "type": "bytes32"
        },
        {
          "indexed": true,
          "internalType": "address",
          "name": "account",
          "type": "address"
        },
        {
          "indexed": true,
          "internalType": "address",
          "name": "sender",
          "type": "address"
        }
      ],
      "name": "RoleGranted",
      "type": "event"
    },
    {
      "anonymous": false,
      "inputs": [
        {
          "indexed": true,
          "internalType": "bytes32",
          "name": "role",
          "type": "bytes32"
        },
        {
          "indexed": true,
          "internalType": "address",
          "name": "account",
          "type": "address"
        },
        {
          "indexed": true,
          "internalType": "address",
          "name": "sender",
          "type": "address"
        }
      ],
      "name": "RoleRevoked",
      "type": "event"
    },
    {
      "anonymous": false,
      "inputs": [
        {
          "indexed": true,
          "internalType": "address",
          "name": "operator",
          "type": "address"
        },
        {
          "indexed": true,
          "internalType": "address",
          "name": "from",
          "type": "address"
        },
        {
          "indexed": true,
          "internalType": "address",
          "name": "to",
          "type": "address"
        },
        {
          "indexed": false,
          "internalType": "uint256[]",
          "name": "ids",
          "type": "uint256[]"
        },
        {
          "indexed": false,
          "internalType": "uint256[]",
          "name": "values",
          "type": "uint256[]"
        }
      ],
      "name": "TransferBatch",
      "type": "event"
    },
    {
      "anonymous": false,
      "inputs": [
        {
          "indexed": true,
          "internalType": "address",
          "name": "operator",
          "type": "address"
        },
        {
          "indexed": true,
          "internalType": "address",
          "name": "from",
          "type": "address"
        },
        {
          "indexed": true,
          "internalType": "address",
          "name": "to",
          "type": "address"
        },
        {
          "indexed": false,
          "internalType": "uint256",
          "name": "id",
          "type": "uint256"
        },
        {
          "indexed": false,
          "internalType": "uint256",
          "name": "value",
          "type": "uint256"
        }
      ],
      "name": "TransferSingle",
      "type": "event"
    },
    {
      "anonymous": false,
      "inputs": [
        {
          "indexed": false,
          "internalType": "string",
          "name": "value",
          "type": "string"
        },
        {
          "indexed": true,
          "internalType": "uint256",
          "name": "id",
          "type": "uint256"
        }
      ],
      "name": "URI",
      "type": "event"
    },
    {
      "anonymous": false,
      "inputs": [
        {
          "indexed": false,
          "internalType": "address",
          "name": "account",
          "type": "address"
        }
      ],
      "name": "Unpaused",
      "type": "event"
    },
    {
      "inputs": [],
      "name": "DEFAULT_ADMIN_ROLE",
      "outputs": [
        {
          "internalType": "bytes32",
          "name": "",
          "type": "bytes32"
        }
      ],
      "stateMutability": "view",
      "type": "function"
    },
    {
      "inputs": [],
      "name": "MINTER_ROLE",
      "outputs": [
        {
          "internalType": "bytes32",
          "name": "",
          "type": "bytes32"
        }
      ],
      "stateMutability": "view",
      "type": "function"
    },
    {
      "inputs": [],
      "name": "PAUSER_ROLE",
      "outputs": [
        {
          "internalType": "bytes32",
          "name": "",
          "type": "bytes32"
        }
      ],
      "stateMutability": "view",
      "type": "function"
    },
    {
      "inputs": [],
      "name": "_contractUri",
      "outputs": [
        {
          "internalType": "string",
          "name": "",
          "type": "string"
        }
      ],
      "stateMutability": "view",
      "type": "function"
    },
    {
      "inputs": [
        {
          "internalType": "address",
          "name": "account",
          "type": "address"
        },
        {
          "internalType": "uint256",
          "name": "id",
          "type": "uint256"
        }
      ],
      "name": "balanceOf",
      "outputs": [
        {
          "internalType": "uint256",
          "name": "",
          "type": "uint256"
        }
      ],
      "stateMutability": "view",
      "type": "function"
    },
    {
      "inputs": [
        {
          "internalType": "address[]",
          "name": "accounts",
          "type": "address[]"
        },
        {
          "internalType": "uint256[]",
          "name": "ids",
          "type": "uint256[]"
        }
      ],
      "name": "balanceOfBatch",
      "outputs": [
        {
          "internalType": "uint256[]",
          "name": "",
          "type": "uint256[]"
        }
      ],
      "stateMutability": "view",
      "type": "function"
    },
    {
      "inputs": [
        {
          "internalType": "address",
          "name": "account",
          "type": "address"
        },
        {
          "internalType": "uint256",
          "name": "id",
          "type": "uint256"
        },
        {
          "internalType": "uint256",
          "name": "value",
          "type": "uint256"
        }
      ],
      "name": "burn",
      "outputs": [],
      "stateMutability": "nonpayable",
      "type": "function"
    },
    {
      "inputs": [
        {
          "internalType": "address",
          "name": "account",
          "type": "address"
        },
        {
          "internalType": "uint256[]",
          "name": "ids",
          "type": "uint256[]"
        },
        {
          "internalType": "uint256[]",
          "name": "values",
          "type": "uint256[]"
        }
      ],
      "name": "burnBatch",
      "outputs": [],
      "stateMutability": "nonpayable",
      "type": "function"
    },
    {
      "inputs": [
        {
          "internalType": "bytes32",
          "name": "role",
          "type": "bytes32"
        }
      ],
      "name": "getRoleAdmin",
      "outputs": [
        {
          "internalType": "bytes32",
          "name": "",
          "type": "bytes32"
        }
      ],
      "stateMutability": "view",
      "type": "function"
    },
    {
      "inputs": [
        {
          "internalType": "bytes32",
          "name": "role",
          "type": "bytes32"
        },
        {
          "internalType": "uint256",
          "name": "index",
          "type": "uint256"
        }
      ],
      "name": "getRoleMember",
      "outputs": [
        {
          "internalType": "address",
          "name": "",
          "type": "address"
        }
      ],
      "stateMutability": "view",
      "type": "function"
    },
    {
      "inputs": [
        {
          "internalType": "bytes32",
          "name": "role",
          "type": "bytes32"
        }
      ],
      "name": "getRoleMemberCount",
      "outputs": [
        {
          "internalType": "uint256",
          "name": "",
          "type": "uint256"
        }
      ],
      "stateMutability": "view",
      "type": "function"
    },
    {
      "inputs": [
        {
          "internalType": "bytes32",
          "name": "role",
          "type": "bytes32"
        },
        {
          "internalType": "address",
          "name": "account",
          "type": "address"
        }
      ],
      "name": "grantRole",
      "outputs": [],
      "stateMutability": "nonpayable",
      "type": "function"
    },
    {
      "inputs": [
        {
          "internalType": "bytes32",
          "name": "role",
          "type": "bytes32"
        },
        {
          "internalType": "address",
          "name": "account",
          "type": "address"
        }
      ],
      "name": "hasRole",
      "outputs": [
        {
          "internalType": "bool",
          "name": "",
          "type": "bool"
        }
      ],
      "stateMutability": "view",
      "type": "function"
    },
    {
      "inputs": [
        {
          "internalType": "address",
          "name": "_owner",
          "type": "address"
        },
        {
          "internalType": "address",
          "name": "_operator",
          "type": "address"
        }
      ],
      "name": "isApprovedForAll",
      "outputs": [
        {
          "internalType": "bool",
          "name": "isOperator",
          "type": "bool"
        }
      ],
      "stateMutability": "view",
      "type": "function"
    },
    {
      "inputs": [
        {
          "internalType": "address",
          "name": "to",
          "type": "address"
        },
        {
          "internalType": "uint256",
          "name": "id",
          "type": "uint256"
        },
        {
          "internalType": "uint256",
          "name": "amount",
          "type": "uint256"
        },
        {
          "internalType": "bytes",
          "name": "data",
          "type": "bytes"
        }
      ],
      "name": "mint",
      "outputs": [],
      "stateMutability": "nonpayable",
      "type": "function"
    },
    {
      "inputs": [
        {
          "internalType": "address",
          "name": "to",
          "type": "address"
        },
        {
          "internalType": "uint256[]",
          "name": "ids",
          "type": "uint256[]"
        },
        {
          "internalType": "uint256[]",
          "name": "amounts",
          "type": "uint256[]"
        },
        {
          "internalType": "bytes",
          "name": "data",
          "type": "bytes"
        }
      ],
      "name": "mintBatch",
      "outputs": [],
      "stateMutability": "nonpayable",
      "type": "function"
    },
    {
      "inputs": [],
      "name": "name",
      "outputs": [
        {
          "internalType": "string",
          "name": "",
          "type": "string"
        }
      ],
      "stateMutability": "view",
      "type": "function"
    },
    {
      "inputs": [],
      "name": "pause",
      "outputs": [],
      "stateMutability": "nonpayable",
      "type": "function"
    },
    {
      "inputs": [],
      "name": "paused",
      "outputs": [
        {
          "internalType": "bool",
          "name": "",
          "type": "bool"
        }
      ],
      "stateMutability": "view",
      "type": "function"
    },
    {
      "inputs": [],
      "name": "proxyRegistryAddress",
      "outputs": [
        {
          "internalType": "address",
          "name": "",
          "type": "address"
        }
      ],
      "stateMutability": "view",
      "type": "function"
    },
    {
      "inputs": [
        {
          "internalType": "bytes32",
          "name": "role",
          "type": "bytes32"
        },
        {
          "internalType": "address",
          "name": "account",
          "type": "address"
        }
      ],
      "name": "renounceRole",
      "outputs": [],
      "stateMutability": "nonpayable",
      "type": "function"
    },
    {
      "inputs": [
        {
          "internalType": "bytes32",
          "name": "role",
          "type": "bytes32"
        },
        {
          "internalType": "address",
          "name": "account",
          "type": "address"
        }
      ],
      "name": "revokeRole",
      "outputs": [],
      "stateMutability": "nonpayable",
      "type": "function"
    },
    {
      "inputs": [
        {
          "internalType": "address",
          "name": "from",
          "type": "address"
        },
        {
          "internalType": "address",
          "name": "to",
          "type": "address"
        },
        {
          "internalType": "uint256[]",
          "name": "ids",
          "type": "uint256[]"
        },
        {
          "internalType": "uint256[]",
          "name": "amounts",
          "type": "uint256[]"
        },
        {
          "internalType": "bytes",
          "name": "data",
          "type": "bytes"
        }
      ],
      "name": "safeBatchTransferFrom",
      "outputs": [],
      "stateMutability": "nonpayable",
      "type": "function"
    },
    {
      "inputs": [
        {
          "internalType": "address",
          "name": "from",
          "type": "address"
        },
        {
          "internalType": "address",
          "name": "to",
          "type": "address"
        },
        {
          "internalType": "uint256",
          "name": "id",
          "type": "uint256"
        },
        {
          "internalType": "uint256",
          "name": "amount",
          "type": "uint256"
        },
        {
          "internalType": "bytes",
          "name": "data",
          "type": "bytes"
        }
      ],
      "name": "safeTransferFrom",
      "outputs": [],
      "stateMutability": "nonpayable",
      "type": "function"
    },
    {
      "inputs": [
        {
          "internalType": "address",
          "name": "operator",
          "type": "address"
        },
        {
          "internalType": "bool",
          "name": "approved",
          "type": "bool"
        }
      ],
      "name": "setApprovalForAll",
      "outputs": [],
      "stateMutability": "nonpayable",
      "type": "function"
    },
    {
      "inputs": [
        {
          "internalType": "string",
          "name": "_newUri",
          "type": "string"
        }
      ],
      "name": "setContractURI",
      "outputs": [],
      "stateMutability": "nonpayable",
      "type": "function"
    },
    {
      "inputs": [
        {
          "internalType": "string",
          "name": "_newUri",
          "type": "string"
        }
      ],
      "name": "setURI",
      "outputs": [],
      "stateMutability": "nonpayable",
      "type": "function"
    },
    {
      "inputs": [
        {
          "internalType": "bytes4",
          "name": "interfaceId",
          "type": "bytes4"
        }
      ],
      "name": "supportsInterface",
      "outputs": [
        {
          "internalType": "bool",
          "name": "",
          "type": "bool"
        }
      ],
      "stateMutability": "view",
      "type": "function"
    },
    {
      "inputs": [],
      "name": "symbol",
      "outputs": [
        {
          "internalType": "string",
          "name": "",
          "type": "string"
        }
      ],
      "stateMutability": "view",
      "type": "function"
    },
    {
      "inputs": [],
      "name": "unpause",
      "outputs": [],
      "stateMutability": "nonpayable",
      "type": "function"
    },
    {
      "inputs": [
        {
          "internalType": "uint256",
          "name": "",
          "type": "uint256"
        }
      ],
      "name": "uri",
      "outputs": [
        {
          "internalType": "string",
          "name": "",
          "type": "string"
        }
      ],
      "stateMutability": "view",
      "type": "function"
    }
  ],
  "bytecode": "0x60806040523480156200001157600080fd5b50604051620033fa380380620033fa8339810160408190526200003491620003cd565b6040518060600160405280602981526020016200334860299139806200005a81620001b2565b506005805460ff1916905562000072600033620001cb565b6200008d6000805160206200339183398151915233620001cb565b620000a86000805160206200337183398151915233620001cb565b50620000b6600033620001d2565b620000d16000805160206200337183398151915233620001d2565b620000ec6000805160206200339183398151915233620001d2565b6040805180820190915260138082527f4e465420417373657420313135352054455354000000000000000000000000006020909201918252620001329160069162000327565b506040805180820190915260038082526213919560ea1b60209092019182526200015f9160079162000327565b50600980546001600160a01b0319166001600160a01b03831617905560408051608081019091526049808252620033b160208301398051620001aa9160089160209091019062000327565b50506200043c565b8051620001c790600490602084019062000327565b5050565b620001c782825b620001e982826200021560201b62000dc01760201c565b60008281526001602090815260409091206200021091839062000e5e620002b5821b17901c565b505050565b6000828152602081815260408083206001600160a01b038516845290915290205460ff16620001c7576000828152602081815260408083206001600160a01b03851684529091529020805460ff19166001179055620002713390565b6001600160a01b0316816001600160a01b0316837f2f8788117e7eff1d82e926ec794901d17c78024a50270940304540a733656f0d60405160405180910390a45050565b6000620002cc836001600160a01b038416620002d5565b90505b92915050565b60008181526001830160205260408120546200031e57508154600181810184556000848152602080822090930184905584548482528286019093526040902091909155620002cf565b506000620002cf565b8280546200033590620003ff565b90600052602060002090601f016020900481019282620003595760008555620003a4565b82601f106200037457805160ff1916838001178555620003a4565b82800160010185558215620003a4579182015b82811115620003a457825182559160200191906001019062000387565b50620003b2929150620003b6565b5090565b5b80821115620003b25760008155600101620003b7565b600060208284031215620003e057600080fd5b81516001600160a01b0381168114620003f857600080fd5b9392505050565b600181811c908216806200041457607f821691505b602082108114156200043657634e487b7160e01b600052602260045260246000fd5b50919050565b612efc806200044c6000396000f3fe608060405234801561001057600080fd5b50600436106101e45760003560e01c80638456cb591161010f578063cd7c0326116100a2578063e63ab1e911610071578063e63ab1e91461043f578063e985e9c514610466578063f242432a14610479578063f5298aca1461048c57600080fd5b8063cd7c0326146103ea578063d5391393146103fd578063d547741f14610424578063d9ce2f6d1461043757600080fd5b806395d89b41116100de57806395d89b41146103b4578063a217fddf146103bc578063a22cb465146103c4578063ca15c873146103d757600080fd5b80638456cb59146103375780639010d07c1461033f57806391d148541461036a578063938e3d7b146103a157600080fd5b80632eb2c2d6116101875780634e1273f4116101565780634e1273f4146102e65780635c975abb146103065780636b20c45414610311578063731133e91461032457600080fd5b80632eb2c2d6146102a55780632f2ff15d146102b857806336568abe146102cb5780633f4ba83a146102de57600080fd5b806306fdde03116101c357806306fdde03146102475780630e89341c1461025c5780631f7fdffa1461026f578063248a9ca31461028257600080fd5b8062fdd58e146101e957806301ffc9a71461020f57806302fe530514610232575b600080fd5b6101fc6101f7366004612495565b61049f565b6040519081526020015b60405180910390f35b61022261021d3660046124d7565b61053b565b6040519015158152602001610206565b610245610240366004612595565b610546565b005b61024f61055f565b6040516102069190612636565b61024f61026a366004612649565b6105ed565b61024561027d366004612717565b610681565b6101fc610290366004612649565b60009081526020819052604090206001015490565b6102456102b33660046127b2565b61072f565b6102456102c6366004612860565b6107d1565b6102456102d9366004612860565b6107fc565b610245610884565b6102f96102f4366004612890565b6108ba565b6040516102069190612998565b60055460ff16610222565b61024561031f3660046129ab565b6109e4565b610245610332366004612a21565b610a69565b610245610b11565b61035261034d366004612a78565b610b44565b6040516001600160a01b039091168152602001610206565b610222610378366004612860565b6000918252602082815260408084206001600160a01b0393909316845291905290205460ff1690565b6102456103af366004612595565b610b63565b61024f610b82565b6101fc600081565b6102456103d2366004612a9a565b610b8f565b6101fc6103e5366004612649565b610b9a565b600954610352906001600160a01b031681565b6101fc7f9f2df0fed2c77648de5860a4cc508cd0818c85b8b8a1ab4ceeef8d981c8956a681565b610245610432366004612860565b610bb1565b61024f610bd7565b6101fc7f65d7a28e3265b37a6474929f336521b332c1681b933f6cb9f3376673440d862a81565b610222610474366004612acd565b610be4565b610245610487366004612afb565b610cb4565b61024561049a366004612b64565b610d3b565b60006001600160a01b0383166105105760405162461bcd60e51b815260206004820152602b60248201527f455243313135353a2062616c616e636520717565727920666f7220746865207a60448201526a65726f206164647265737360a81b60648201526084015b60405180910390fd5b5060008181526002602090815260408083206001600160a01b03861684529091529020545b92915050565b600061053582610e73565b60006105528133610eb3565b61055b82610f31565b5050565b6006805461056c90612b99565b80601f016020809104026020016040519081016040528092919081815260200182805461059890612b99565b80156105e55780601f106105ba576101008083540402835291602001916105e5565b820191906000526020600020905b8154815290600101906020018083116105c857829003601f168201915b505050505081565b6060600480546105fc90612b99565b80601f016020809104026020016040519081016040528092919081815260200182805461062890612b99565b80156106755780601f1061064a57610100808354040283529160200191610675565b820191906000526020600020905b81548152906001019060200180831161065857829003601f168201915b50505050509050919050565b6106ab7f9f2df0fed2c77648de5860a4cc508cd0818c85b8b8a1ab4ceeef8d981c8956a633610378565b61071d5760405162461bcd60e51b815260206004820152603860248201527f455243313135355072657365744d696e7465725061757365723a206d7573742060448201527f68617665206d696e74657220726f6c6520746f206d696e7400000000000000006064820152608401610507565b61072984848484610f44565b50505050565b6001600160a01b03851633148061074b575061074b8533610be4565b6107bd5760405162461bcd60e51b815260206004820152603260248201527f455243313135353a207472616e736665722063616c6c6572206973206e6f742060448201527f6f776e6572206e6f7220617070726f76656400000000000000000000000000006064820152608401610507565b6107ca858585858561111a565b5050505050565b6000828152602081905260409020600101546107ed8133610eb3565b6107f78383611389565b505050565b6001600160a01b038116331461087a5760405162461bcd60e51b815260206004820152602f60248201527f416363657373436f6e74726f6c3a2063616e206f6e6c792072656e6f756e636560448201527f20726f6c657320666f722073656c6600000000000000000000000000000000006064820152608401610507565b61055b82826113ab565b7f65d7a28e3265b37a6474929f336521b332c1681b933f6cb9f3376673440d862a6108af8133610eb3565b6108b76113cd565b50565b6060815183511461091f5760405162461bcd60e51b815260206004820152602960248201527f455243313135353a206163636f756e747320616e6420696473206c656e677468604482015268040dad2e6dac2e8c6d60bb1b6064820152608401610507565b6000835167ffffffffffffffff81111561093b5761093b6124f4565b604051908082528060200260200182016040528015610964578160200160208202803683370190505b50905060005b84518110156109dc576109af85828151811061098857610988612bd4565b60200260200101518583815181106109a2576109a2612bd4565b602002602001015161049f565b8282815181106109c1576109c1612bd4565b60209081029190910101526109d581612c00565b905061096a565b509392505050565b6001600160a01b038316331480610a005750610a008333610be4565b610a5e5760405162461bcd60e51b815260206004820152602960248201527f455243313135353a2063616c6c6572206973206e6f74206f776e6572206e6f7260448201526808185c1c1c9bdd995960ba1b6064820152608401610507565b6107f7838383611469565b610a937f9f2df0fed2c77648de5860a4cc508cd0818c85b8b8a1ab4ceeef8d981c8956a633610378565b610b055760405162461bcd60e51b815260206004820152603860248201527f455243313135355072657365744d696e7465725061757365723a206d7573742060448201527f68617665206d696e74657220726f6c6520746f206d696e7400000000000000006064820152608401610507565b610729848484846116b3565b7f65d7a28e3265b37a6474929f336521b332c1681b933f6cb9f3376673440d862a610b3c8133610eb3565b6108b76117c5565b6000828152600160205260408120610b5c908361184d565b9392505050565b6000610b6f8133610eb3565b81516107f79060089060208501906123e7565b6007805461056c90612b99565b61055b338383611859565b60008181526001602052604081206105359061193a565b600082815260208190526040902060010154610bcd8133610eb3565b6107f783836113ab565b6008805461056c90612b99565b60095460405163c455279160e01b81526001600160a01b03848116600483015260009281169190841690829063c45527919060240160206040518083038186803b158015610c3157600080fd5b505afa158015610c45573d6000803e3d6000fd5b505050506040513d601f19601f82011682018060405250810190610c699190612c1b565b6001600160a01b03161415610c82576001915050610535565b6001600160a01b0380851660009081526003602090815260408083209387168352929052205460ff165b949350505050565b6001600160a01b038516331480610cd05750610cd08533610be4565b610d2e5760405162461bcd60e51b815260206004820152602960248201527f455243313135353a2063616c6c6572206973206e6f74206f776e6572206e6f7260448201526808185c1c1c9bdd995960ba1b6064820152608401610507565b6107ca8585858585611944565b6001600160a01b038316331480610d575750610d578333610be4565b610db55760405162461bcd60e51b815260206004820152602960248201527f455243313135353a2063616c6c6572206973206e6f74206f776e6572206e6f7260448201526808185c1c1c9bdd995960ba1b6064820152608401610507565b6107f7838383611ae6565b6000828152602081815260408083206001600160a01b038516845290915290205460ff1661055b576000828152602081815260408083206001600160a01b03851684529091529020805460ff19166001179055610e1a3390565b6001600160a01b0316816001600160a01b0316837f2f8788117e7eff1d82e926ec794901d17c78024a50270940304540a733656f0d60405160405180910390a45050565b6000610b5c836001600160a01b038416611c63565b60006001600160e01b03198216636cdb3d1360e11b1480610ea457506001600160e01b031982166303a24d0760e21b145b80610535575061053582611cb2565b6000828152602081815260408083206001600160a01b038516845290915290205460ff1661055b57610eef816001600160a01b03166014611cd7565b610efa836020611cd7565b604051602001610f0b929190612c38565b60408051601f198184030181529082905262461bcd60e51b825261050791600401612636565b805161055b9060049060208401906123e7565b6001600160a01b038416610fa45760405162461bcd60e51b815260206004820152602160248201527f455243313135353a206d696e7420746f20746865207a65726f206164647265736044820152607360f81b6064820152608401610507565b81518351146110065760405162461bcd60e51b815260206004820152602860248201527f455243313135353a2069647320616e6420616d6f756e7473206c656e677468206044820152670dad2e6dac2e8c6d60c31b6064820152608401610507565b3361101681600087878787611e80565b60005b84518110156110b25783818151811061103457611034612bd4565b60200260200101516002600087848151811061105257611052612bd4565b602002602001015181526020019081526020016000206000886001600160a01b03166001600160a01b03168152602001908152602001600020600082825461109a9190612cb9565b909155508190506110aa81612c00565b915050611019565b50846001600160a01b031660006001600160a01b0316826001600160a01b03167f4a39dc06d4c0dbc64b70af90fd698a233a518aa5d07e595d983b8c0526c8f7fb8787604051611103929190612cd1565b60405180910390a46107ca81600087878787611e8e565b815183511461117c5760405162461bcd60e51b815260206004820152602860248201527f455243313135353a2069647320616e6420616d6f756e7473206c656e677468206044820152670dad2e6dac2e8c6d60c31b6064820152608401610507565b6001600160a01b0384166111e05760405162461bcd60e51b815260206004820152602560248201527f455243313135353a207472616e7366657220746f20746865207a65726f206164604482015264647265737360d81b6064820152608401610507565b336111ef818787878787611e80565b60005b845181101561131b57600085828151811061120f5761120f612bd4565b60200260200101519050600085838151811061122d5761122d612bd4565b60209081029190910181015160008481526002835260408082206001600160a01b038e1683529093529190912054909150818110156112c15760405162461bcd60e51b815260206004820152602a60248201527f455243313135353a20696e73756666696369656e742062616c616e636520666f60448201526939103a3930b739b332b960b11b6064820152608401610507565b60008381526002602090815260408083206001600160a01b038e8116855292528083208585039055908b16825281208054849290611300908490612cb9565b925050819055505050508061131490612c00565b90506111f2565b50846001600160a01b0316866001600160a01b0316826001600160a01b03167f4a39dc06d4c0dbc64b70af90fd698a233a518aa5d07e595d983b8c0526c8f7fb878760405161136b929190612cd1565b60405180910390a4611381818787878787611e8e565b505050505050565b6113938282610dc0565b60008281526001602052604090206107f79082610e5e565b6113b58282612043565b60008281526001602052604090206107f790826120c2565b60055460ff1661141f5760405162461bcd60e51b815260206004820152601460248201527f5061757361626c653a206e6f74207061757365640000000000000000000000006044820152606401610507565b6005805460ff191690557f5db9ee0a495bf2e6ff9c91a7834c1ba4fdd244a5e8aa4e537bd38aeae4b073aa335b6040516001600160a01b03909116815260200160405180910390a1565b6001600160a01b0383166114cb5760405162461bcd60e51b815260206004820152602360248201527f455243313135353a206275726e2066726f6d20746865207a65726f206164647260448201526265737360e81b6064820152608401610507565b805182511461152d5760405162461bcd60e51b815260206004820152602860248201527f455243313135353a2069647320616e6420616d6f756e7473206c656e677468206044820152670dad2e6dac2e8c6d60c31b6064820152608401610507565b600033905061155081856000868660405180602001604052806000815250611e80565b60005b835181101561165457600084828151811061157057611570612bd4565b60200260200101519050600084838151811061158e5761158e612bd4565b60209081029190910181015160008481526002835260408082206001600160a01b038c16835290935291909120549091508181101561161b5760405162461bcd60e51b8152602060048201526024808201527f455243313135353a206275726e20616d6f756e7420657863656564732062616c604482015263616e636560e01b6064820152608401610507565b60009283526002602090815260408085206001600160a01b038b168652909152909220910390558061164c81612c00565b915050611553565b5060006001600160a01b0316846001600160a01b0316826001600160a01b03167f4a39dc06d4c0dbc64b70af90fd698a233a518aa5d07e595d983b8c0526c8f7fb86866040516116a5929190612cd1565b60405180910390a450505050565b6001600160a01b0384166117135760405162461bcd60e51b815260206004820152602160248201527f455243313135353a206d696e7420746f20746865207a65726f206164647265736044820152607360f81b6064820152608401610507565b3361173381600087611724886120d7565b61172d886120d7565b87611e80565b60008481526002602090815260408083206001600160a01b038916845290915281208054859290611765908490612cb9565b909155505060408051858152602081018590526001600160a01b0380881692600092918516917fc3d58168c5ae7397731d063d5bbf3d657854427343f4c083240f7aacaa2d0f62910160405180910390a46107ca81600087878787612122565b60055460ff16156118185760405162461bcd60e51b815260206004820152601060248201527f5061757361626c653a20706175736564000000000000000000000000000000006044820152606401610507565b6005805460ff191660011790557f62e78cea01bee320cd4e420270b5ea74000d11b0c9f74754ebdbfc544b05a25861144c3390565b6000610b5c838361222d565b816001600160a01b0316836001600160a01b031614156118cd5760405162461bcd60e51b815260206004820152602960248201527f455243313135353a2073657474696e6720617070726f76616c20737461747573604482015268103337b91039b2b63360b91b6064820152608401610507565b6001600160a01b03838116600081815260036020908152604080832094871680845294825291829020805460ff191686151590811790915591519182527f17307eab39ab6107e8899845ad3d59bd9653f200f220920489ca2b5937696c31910160405180910390a3505050565b6000610535825490565b6001600160a01b0384166119a85760405162461bcd60e51b815260206004820152602560248201527f455243313135353a207472616e7366657220746f20746865207a65726f206164604482015264647265737360d81b6064820152608401610507565b336119b8818787611724886120d7565b60008481526002602090815260408083206001600160a01b038a16845290915290205483811015611a3e5760405162461bcd60e51b815260206004820152602a60248201527f455243313135353a20696e73756666696369656e742062616c616e636520666f60448201526939103a3930b739b332b960b11b6064820152608401610507565b60008581526002602090815260408083206001600160a01b038b8116855292528083208785039055908816825281208054869290611a7d908490612cb9565b909155505060408051868152602081018690526001600160a01b03808916928a821692918616917fc3d58168c5ae7397731d063d5bbf3d657854427343f4c083240f7aacaa2d0f62910160405180910390a4611add828888888888612122565b50505050505050565b6001600160a01b038316611b485760405162461bcd60e51b815260206004820152602360248201527f455243313135353a206275726e2066726f6d20746865207a65726f206164647260448201526265737360e81b6064820152608401610507565b33611b7781856000611b59876120d7565b611b62876120d7565b60405180602001604052806000815250611e80565b60008381526002602090815260408083206001600160a01b038816845290915290205482811015611bf65760405162461bcd60e51b8152602060048201526024808201527f455243313135353a206275726e20616d6f756e7420657863656564732062616c604482015263616e636560e01b6064820152608401610507565b60008481526002602090815260408083206001600160a01b03898116808652918452828520888703905582518981529384018890529092908616917fc3d58168c5ae7397731d063d5bbf3d657854427343f4c083240f7aacaa2d0f62910160405180910390a45050505050565b6000818152600183016020526040812054611caa57508154600181810184556000848152602080822090930184905584548482528286019093526040902091909155610535565b506000610535565b60006001600160e01b03198216635a05180f60e01b1480610535575061053582612257565b60606000611ce6836002612cff565b611cf1906002612cb9565b67ffffffffffffffff811115611d0957611d096124f4565b6040519080825280601f01601f191660200182016040528015611d33576020820181803683370190505b509050600360fc1b81600081518110611d4e57611d4e612bd4565b60200101906001600160f81b031916908160001a905350600f60fb1b81600181518110611d7d57611d7d612bd4565b60200101906001600160f81b031916908160001a9053506000611da1846002612cff565b611dac906001612cb9565b90505b6001811115611e31577f303132333435363738396162636465660000000000000000000000000000000085600f1660108110611ded57611ded612bd4565b1a60f81b828281518110611e0357611e03612bd4565b60200101906001600160f81b031916908160001a90535060049490941c93611e2a81612d1e565b9050611daf565b508315610b5c5760405162461bcd60e51b815260206004820181905260248201527f537472696e67733a20686578206c656e67746820696e73756666696369656e746044820152606401610507565b61138186868686868661228c565b6001600160a01b0384163b156113815760405163bc197c8160e01b81526001600160a01b0385169063bc197c8190611ed29089908990889088908890600401612d35565b602060405180830381600087803b158015611eec57600080fd5b505af1925050508015611f1c575060408051601f3d908101601f19168201909252611f1991810190612d93565b60015b611fd257611f28612db0565b806308c379a01415611f625750611f3d612dcc565b80611f485750611f64565b8060405162461bcd60e51b81526004016105079190612636565b505b60405162461bcd60e51b815260206004820152603460248201527f455243313135353a207472616e7366657220746f206e6f6e204552433131353560448201527f526563656976657220696d706c656d656e7465720000000000000000000000006064820152608401610507565b6001600160e01b0319811663bc197c8160e01b14611add5760405162461bcd60e51b815260206004820152602860248201527f455243313135353a204552433131353552656365697665722072656a656374656044820152676420746f6b656e7360c01b6064820152608401610507565b6000828152602081815260408083206001600160a01b038516845290915290205460ff161561055b576000828152602081815260408083206001600160a01b0385168085529252808320805460ff1916905551339285917ff6391f5c32d9c69d2a47ea670b442974b53935d1edc7fd64eb21e047a839171b9190a45050565b6000610b5c836001600160a01b0384166122f4565b6040805160018082528183019092526060916000919060208083019080368337019050509050828160008151811061211157612111612bd4565b602090810291909101015292915050565b6001600160a01b0384163b156113815760405163f23a6e6160e01b81526001600160a01b0385169063f23a6e61906121669089908990889088908890600401612e56565b602060405180830381600087803b15801561218057600080fd5b505af19250505080156121b0575060408051601f3d908101601f191682019092526121ad91810190612d93565b60015b6121bc57611f28612db0565b6001600160e01b0319811663f23a6e6160e01b14611add5760405162461bcd60e51b815260206004820152602860248201527f455243313135353a204552433131353552656365697665722072656a656374656044820152676420746f6b656e7360c01b6064820152608401610507565b600082600001828154811061224457612244612bd4565b9060005260206000200154905092915050565b60006001600160e01b03198216637965db0b60e01b148061053557506301ffc9a760e01b6001600160e01b0319831614610535565b60055460ff16156113815760405162461bcd60e51b815260206004820152602c60248201527f455243313135355061757361626c653a20746f6b656e207472616e736665722060448201526b1dda1a5b19481c185d5cd95960a21b6064820152608401610507565b600081815260018301602052604081205480156123dd576000612318600183612e99565b855490915060009061232c90600190612e99565b905081811461239157600086600001828154811061234c5761234c612bd4565b906000526020600020015490508087600001848154811061236f5761236f612bd4565b6000918252602080832090910192909255918252600188019052604090208390555b85548690806123a2576123a2612eb0565b600190038181906000526020600020016000905590558560010160008681526020019081526020016000206000905560019350505050610535565b6000915050610535565b8280546123f390612b99565b90600052602060002090601f016020900481019282612415576000855561245b565b82601f1061242e57805160ff191683800117855561245b565b8280016001018555821561245b579182015b8281111561245b578251825591602001919060010190612440565b5061246792915061246b565b5090565b5b80821115612467576000815560010161246c565b6001600160a01b03811681146108b757600080fd5b600080604083850312156124a857600080fd5b82356124b381612480565b946020939093013593505050565b6001600160e01b0319811681146108b757600080fd5b6000602082840312156124e957600080fd5b8135610b5c816124c1565b634e487b7160e01b600052604160045260246000fd5b601f8201601f1916810167ffffffffffffffff81118282101715612530576125306124f4565b6040525050565b600067ffffffffffffffff831115612551576125516124f4565b604051612568601f8501601f19166020018261250a565b80915083815284848401111561257d57600080fd5b83836020830137600060208583010152509392505050565b6000602082840312156125a757600080fd5b813567ffffffffffffffff8111156125be57600080fd5b8201601f810184136125cf57600080fd5b610cac84823560208401612537565b60005b838110156125f95781810151838201526020016125e1565b838111156107295750506000910152565b600081518084526126228160208601602086016125de565b601f01601f19169290920160200192915050565b602081526000610b5c602083018461260a565b60006020828403121561265b57600080fd5b5035919050565b600067ffffffffffffffff82111561267c5761267c6124f4565b5060051b60200190565b600082601f83011261269757600080fd5b813560206126a482612662565b6040516126b1828261250a565b83815260059390931b85018201928281019150868411156126d157600080fd5b8286015b848110156126ec57803583529183019183016126d5565b509695505050505050565b600082601f83011261270857600080fd5b610b5c83833560208501612537565b6000806000806080858703121561272d57600080fd5b843561273881612480565b9350602085013567ffffffffffffffff8082111561275557600080fd5b61276188838901612686565b9450604087013591508082111561277757600080fd5b61278388838901612686565b9350606087013591508082111561279957600080fd5b506127a6878288016126f7565b91505092959194509250565b600080600080600060a086880312156127ca57600080fd5b85356127d581612480565b945060208601356127e581612480565b9350604086013567ffffffffffffffff8082111561280257600080fd5b61280e89838a01612686565b9450606088013591508082111561282457600080fd5b61283089838a01612686565b9350608088013591508082111561284657600080fd5b50612853888289016126f7565b9150509295509295909350565b6000806040838503121561287357600080fd5b82359150602083013561288581612480565b809150509250929050565b600080604083850312156128a357600080fd5b823567ffffffffffffffff808211156128bb57600080fd5b818501915085601f8301126128cf57600080fd5b813560206128dc82612662565b6040516128e9828261250a565b83815260059390931b850182019282810191508984111561290957600080fd5b948201945b8386101561293057853561292181612480565b8252948201949082019061290e565b9650508601359250508082111561294657600080fd5b5061295385828601612686565b9150509250929050565b600081518084526020808501945080840160005b8381101561298d57815187529582019590820190600101612971565b509495945050505050565b602081526000610b5c602083018461295d565b6000806000606084860312156129c057600080fd5b83356129cb81612480565b9250602084013567ffffffffffffffff808211156129e857600080fd5b6129f487838801612686565b93506040860135915080821115612a0a57600080fd5b50612a1786828701612686565b9150509250925092565b60008060008060808587031215612a3757600080fd5b8435612a4281612480565b93506020850135925060408501359150606085013567ffffffffffffffff811115612a6c57600080fd5b6127a6878288016126f7565b60008060408385031215612a8b57600080fd5b50508035926020909101359150565b60008060408385031215612aad57600080fd5b8235612ab881612480565b91506020830135801515811461288557600080fd5b60008060408385031215612ae057600080fd5b8235612aeb81612480565b9150602083013561288581612480565b600080600080600060a08688031215612b1357600080fd5b8535612b1e81612480565b94506020860135612b2e81612480565b93506040860135925060608601359150608086013567ffffffffffffffff811115612b5857600080fd5b612853888289016126f7565b600080600060608486031215612b7957600080fd5b8335612b8481612480565b95602085013595506040909401359392505050565b600181811c90821680612bad57607f821691505b60208210811415612bce57634e487b7160e01b600052602260045260246000fd5b50919050565b634e487b7160e01b600052603260045260246000fd5b634e487b7160e01b600052601160045260246000fd5b6000600019821415612c1457612c14612bea565b5060010190565b600060208284031215612c2d57600080fd5b8151610b5c81612480565b7f416363657373436f6e74726f6c3a206163636f756e7420000000000000000000815260008351612c708160178501602088016125de565b7f206973206d697373696e6720726f6c65200000000000000000000000000000006017918401918201528351612cad8160288401602088016125de565b01602801949350505050565b60008219821115612ccc57612ccc612bea565b500190565b604081526000612ce4604083018561295d565b8281036020840152612cf6818561295d565b95945050505050565b6000816000190483118215151615612d1957612d19612bea565b500290565b600081612d2d57612d2d612bea565b506000190190565b60006001600160a01b03808816835280871660208401525060a06040830152612d6160a083018661295d565b8281036060840152612d73818661295d565b90508281036080840152612d87818561260a565b98975050505050505050565b600060208284031215612da557600080fd5b8151610b5c816124c1565b600060033d1115612dc95760046000803e5060005160e01c5b90565b600060443d1015612dda5790565b6040516003193d81016004833e81513d67ffffffffffffffff8160248401118184111715612e0a57505050505090565b8285019150815181811115612e225750505050505090565b843d8701016020828501011115612e3c5750505050505090565b612e4b6020828601018761250a565b509095945050505050565b60006001600160a01b03808816835280871660208401525084604083015283606083015260a06080830152612e8e60a083018461260a565b979650505050505050565b600082821015612eab57612eab612bea565b500390565b634e487b7160e01b600052603160045260246000fdfea2646970667358221220a5bc077bcd3b2628958d3cfb2c3303c0bff08dc5d903a803a288c8dd88b5576e64736f6c6343000809003368747470733a2f2f6e66742d6d61726b6574706c6163652e636f6d2f76312f746f6b656e2f7b69647d65d7a28e3265b37a6474929f336521b332c1681b933f6cb9f3376673440d862a9f2df0fed2c77648de5860a4cc508cd0818c85b8b8a1ab4ceeef8d981c8956a668747470733a2f2f6d61726b6574706c6163652d6e66742e73332e75732d776573742d312e616d617a6f6e6177732e636f6d2f636f6e74726163742f636f6e74726163742e6a736f6e",
  "linkReferences": {},
  "deployedLinkReferences": {}
}