{
  "_format": "hh-sol-artifact-1",
  "contractName": "TokenMarket",
  "sourceName": "contracts/Market.sol",
  "abi": [
    {
      "inputs": [
        {
          "internalType": "uint256",
          "name": "_maxRoyalty",
          "type": "uint256"
        },
        {
          "internalType": "address",
          "name": "_nftContractAddress721",
          "type": "address"
        },
        {
          "internalType": "address",
          "name": "_nftContractAddress1155",
          "type": "address"
        },
        {
          "internalType": "address",
          "name": "_storageContractAddress",
          "type": "address"
        }
      ],
      "stateMutability": "nonpayable",
      "type": "constructor"
    },
    {
      "anonymous": false,
      "inputs": [
        {
          "indexed": true,
          "internalType": "address",
          "name": "previousOwner",
          "type": "address"
        },
        {
          "indexed": true,
          "internalType": "address",
          "name": "newOwner",
          "type": "address"
        }
      ],
      "name": "OwnershipTransferred",
      "type": "event"
    },
    {
      "anonymous": false,
      "inputs": [
        {
          "indexed": false,
          "internalType": "address",
          "name": "account",
          "type": "address"
        }
      ],
      "name": "Paused",
      "type": "event"
    },
    {
      "anonymous": false,
      "inputs": [
        {
          "indexed": true,
          "internalType": "bytes32",
          "name": "role",
          "type": "bytes32"
        },
        {
          "indexed": true,
          "internalType": "bytes32",
          "name": "previousAdminRole",
          "type": "bytes32"
        },
        {
          "indexed": true,
          "internalType": "bytes32",
          "name": "newAdminRole",
          "type": "bytes32"
        }
      ],
      "name": "RoleAdminChanged",
      "type": "event"
    },
    {
      "anonymous": false,
      "inputs": [
        {
          "indexed": true,
          "internalType": "bytes32",
          "name": "role",
          "type": "bytes32"
        },
        {
          "indexed": true,
          "internalType": "address",
          "name": "account",
          "type": "address"
        },
        {
          "indexed": true,
          "internalType": "address",
          "name": "sender",
          "type": "address"
        }
      ],
      "name": "RoleGranted",
      "type": "event"
    },
    {
      "anonymous": false,
      "inputs": [
        {
          "indexed": true,
          "internalType": "bytes32",
          "name": "role",
          "type": "bytes32"
        },
        {
          "indexed": true,
          "internalType": "address",
          "name": "account",
          "type": "address"
        },
        {
          "indexed": true,
          "internalType": "address",
          "name": "sender",
          "type": "address"
        }
      ],
      "name": "RoleRevoked",
      "type": "event"
    },
    {
      "anonymous": false,
      "inputs": [
        {
          "indexed": false,
          "internalType": "uint256",
          "name": "standard",
          "type": "uint256"
        },
        {
          "indexed": false,
          "internalType": "address",
          "name": "nftAddress",
          "type": "address"
        },
        {
          "indexed": false,
          "internalType": "uint256",
          "name": "tokenId",
          "type": "uint256"
        },
        {
          "indexed": false,
          "internalType": "uint256",
          "name": "itemId",
          "type": "uint256"
        },
        {
          "indexed": false,
          "internalType": "uint256",
          "name": "amount",
          "type": "uint256"
        },
        {
          "indexed": false,
          "internalType": "uint256",
          "name": "price",
          "type": "uint256"
        },
        {
          "indexed": false,
          "internalType": "address",
          "name": "owner",
          "type": "address"
        }
      ],
      "name": "TokenBought",
      "type": "event"
    },
    {
      "anonymous": false,
      "inputs": [
        {
          "indexed": false,
          "internalType": "uint256",
          "name": "standard",
          "type": "uint256"
        },
        {
          "indexed": false,
          "internalType": "address",
          "name": "nftAddress",
          "type": "address"
        },
        {
          "indexed": false,
          "internalType": "uint256",
          "name": "tokenId",
          "type": "uint256"
        },
        {
          "indexed": false,
          "internalType": "uint256",
          "name": "itemId",
          "type": "uint256"
        },
        {
          "indexed": false,
          "internalType": "uint256",
          "name": "amount",
          "type": "uint256"
        },
        {
          "indexed": false,
          "internalType": "address",
          "name": "owner",
          "type": "address"
        }
      ],
      "name": "TokenBurned",
      "type": "event"
    },
    {
      "anonymous": false,
      "inputs": [
        {
          "indexed": false,
          "internalType": "uint256",
          "name": "standard",
          "type": "uint256"
        },
        {
          "indexed": false,
          "internalType": "address",
          "name": "nftAddress",
          "type": "address"
        },
        {
          "indexed": false,
          "internalType": "uint256",
          "name": "tokenId",
          "type": "uint256"
        },
        {
          "indexed": false,
          "internalType": "uint256",
          "name": "itemId",
          "type": "uint256"
        },
        {
          "indexed": false,
          "internalType": "uint256",
          "name": "amount",
          "type": "uint256"
        },
        {
          "indexed": false,
          "internalType": "uint256",
          "name": "price",
          "type": "uint256"
        }
      ],
      "name": "TokenListed",
      "type": "event"
    },
    {
      "anonymous": false,
      "inputs": [
        {
          "indexed": false,
          "internalType": "uint256",
          "name": "standard",
          "type": "uint256"
        },
        {
          "indexed": false,
          "internalType": "address",
          "name": "nftAddress",
          "type": "address"
        },
        {
          "indexed": false,
          "internalType": "uint256",
          "name": "tokenId",
          "type": "uint256"
        },
        {
          "indexed": false,
          "internalType": "uint256",
          "name": "amount",
          "type": "uint256"
        },
        {
          "indexed": false,
          "internalType": "address",
          "name": "owner",
          "type": "address"
        }
      ],
      "name": "TokenMinted",
      "type": "event"
    },
    {
      "anonymous": false,
      "inputs": [
        {
          "indexed": false,
          "internalType": "uint256",
          "name": "standard",
          "type": "uint256"
        },
        {
          "indexed": false,
          "internalType": "address",
          "name": "nftAddress",
          "type": "address"
        },
        {
          "indexed": false,
          "internalType": "uint256",
          "name": "tokenId",
          "type": "uint256"
        },
        {
          "indexed": false,
          "internalType": "uint256",
          "name": "itemId",
          "type": "uint256"
        },
        {
          "indexed": false,
          "internalType": "uint256",
          "name": "price",
          "type": "uint256"
        }
      ],
      "name": "TokenUpdated",
      "type": "event"
    },
    {
      "anonymous": false,
      "inputs": [
        {
          "indexed": false,
          "internalType": "address",
          "name": "account",
          "type": "address"
        }
      ],
      "name": "Unpaused",
      "type": "event"
    },
    {
      "inputs": [],
      "name": "DEFAULT_ADMIN_ROLE",
      "outputs": [
        {
          "internalType": "bytes32",
          "name": "",
          "type": "bytes32"
        }
      ],
      "stateMutability": "view",
      "type": "function"
    },
    {
      "inputs": [],
      "name": "MARKET_ADMIN_ROLE",
      "outputs": [
        {
          "internalType": "bytes32",
          "name": "",
          "type": "bytes32"
        }
      ],
      "stateMutability": "view",
      "type": "function"
    },
    {
      "inputs": [
        {
          "internalType": "address",
          "name": "_nftAddress",
          "type": "address"
        },
        {
          "internalType": "uint256",
          "name": "_tokenId",
          "type": "uint256"
        },
        {
          "internalType": "uint256",
          "name": "_itemId",
          "type": "uint256"
        },
        {
          "internalType": "uint256",
          "name": "_amount",
          "type": "uint256"
        }
      ],
      "name": "buyToken",
      "outputs": [],
      "stateMutability": "payable",
      "type": "function"
    },
    {
      "inputs": [
        {
          "internalType": "address",
          "name": "_nftAddress",
          "type": "address"
        },
        {
          "internalType": "uint256",
          "name": "_tokenId",
          "type": "uint256"
        },
        {
          "internalType": "uint256",
          "name": "_price",
          "type": "uint256"
        },
        {
          "internalType": "uint256",
          "name": "_amount",
          "type": "uint256"
        }
      ],
      "name": "createSale",
      "outputs": [],
      "stateMutability": "nonpayable",
      "type": "function"
    },
    {
      "inputs": [
        {
          "internalType": "bytes32",
          "name": "role",
          "type": "bytes32"
        }
      ],
      "name": "getRoleAdmin",
      "outputs": [
        {
          "internalType": "bytes32",
          "name": "",
          "type": "bytes32"
        }
      ],
      "stateMutability": "view",
      "type": "function"
    },
    {
      "inputs": [
        {
          "internalType": "bytes32",
          "name": "role",
          "type": "bytes32"
        },
        {
          "internalType": "uint256",
          "name": "index",
          "type": "uint256"
        }
      ],
      "name": "getRoleMember",
      "outputs": [
        {
          "internalType": "address",
          "name": "",
          "type": "address"
        }
      ],
      "stateMutability": "view",
      "type": "function"
    },
    {
      "inputs": [
        {
          "internalType": "bytes32",
          "name": "role",
          "type": "bytes32"
        }
      ],
      "name": "getRoleMemberCount",
      "outputs": [
        {
          "internalType": "uint256",
          "name": "",
          "type": "uint256"
        }
      ],
      "stateMutability": "view",
      "type": "function"
    },
    {
      "inputs": [
        {
          "internalType": "bytes32",
          "name": "role",
          "type": "bytes32"
        },
        {
          "internalType": "address",
          "name": "account",
          "type": "address"
        }
      ],
      "name": "grantRole",
      "outputs": [],
      "stateMutability": "nonpayable",
      "type": "function"
    },
    {
      "inputs": [
        {
          "internalType": "bytes32",
          "name": "role",
          "type": "bytes32"
        },
        {
          "internalType": "address",
          "name": "account",
          "type": "address"
        }
      ],
      "name": "hasRole",
      "outputs": [
        {
          "internalType": "bool",
          "name": "",
          "type": "bool"
        }
      ],
      "stateMutability": "view",
      "type": "function"
    },
    {
      "inputs": [],
      "name": "maxRoyalty",
      "outputs": [
        {
          "internalType": "uint256",
          "name": "",
          "type": "uint256"
        }
      ],
      "stateMutability": "view",
      "type": "function"
    },
    {
      "inputs": [
        {
          "internalType": "address",
          "name": "_nftAddress",
          "type": "address"
        },
        {
          "internalType": "uint256",
          "name": "_tokenId",
          "type": "uint256"
        },
        {
          "internalType": "uint256",
          "name": "_royalty",
          "type": "uint256"
        },
        {
          "internalType": "uint256",
          "name": "_amount",
          "type": "uint256"
        }
      ],
      "name": "mintToken",
      "outputs": [],
      "stateMutability": "nonpayable",
      "type": "function"
    },
    {
      "inputs": [],
      "name": "nftContractAddress1155",
      "outputs": [
        {
          "internalType": "address",
          "name": "",
          "type": "address"
        }
      ],
      "stateMutability": "view",
      "type": "function"
    },
    {
      "inputs": [],
      "name": "nftContractAddress721",
      "outputs": [
        {
          "internalType": "address",
          "name": "",
          "type": "address"
        }
      ],
      "stateMutability": "view",
      "type": "function"
    },
    {
      "inputs": [],
      "name": "owner",
      "outputs": [
        {
          "internalType": "address",
          "name": "",
          "type": "address"
        }
      ],
      "stateMutability": "view",
      "type": "function"
    },
    {
      "inputs": [],
      "name": "paused",
      "outputs": [
        {
          "internalType": "bool",
          "name": "",
          "type": "bool"
        }
      ],
      "stateMutability": "view",
      "type": "function"
    },
    {
      "inputs": [],
      "name": "renounceOwnership",
      "outputs": [],
      "stateMutability": "nonpayable",
      "type": "function"
    },
    {
      "inputs": [
        {
          "internalType": "bytes32",
          "name": "role",
          "type": "bytes32"
        },
        {
          "internalType": "address",
          "name": "account",
          "type": "address"
        }
      ],
      "name": "renounceRole",
      "outputs": [],
      "stateMutability": "nonpayable",
      "type": "function"
    },
    {
      "inputs": [
        {
          "internalType": "bytes32",
          "name": "role",
          "type": "bytes32"
        },
        {
          "internalType": "address",
          "name": "account",
          "type": "address"
        }
      ],
      "name": "revokeRole",
      "outputs": [],
      "stateMutability": "nonpayable",
      "type": "function"
    },
    {
      "inputs": [
        {
          "internalType": "uint256",
          "name": "_newMaxRoyalty",
          "type": "uint256"
        }
      ],
      "name": "setMaxRoyalty",
      "outputs": [],
      "stateMutability": "nonpayable",
      "type": "function"
    },
    {
      "inputs": [],
      "name": "storageContractAddress",
      "outputs": [
        {
          "internalType": "address",
          "name": "",
          "type": "address"
        }
      ],
      "stateMutability": "view",
      "type": "function"
    },
    {
      "inputs": [
        {
          "internalType": "bytes4",
          "name": "interfaceId",
          "type": "bytes4"
        }
      ],
      "name": "supportsInterface",
      "outputs": [
        {
          "internalType": "bool",
          "name": "",
          "type": "bool"
        }
      ],
      "stateMutability": "view",
      "type": "function"
    },
    {
      "inputs": [
        {
          "internalType": "address",
          "name": "newOwner",
          "type": "address"
        }
      ],
      "name": "transferOwnership",
      "outputs": [],
      "stateMutability": "nonpayable",
      "type": "function"
    }
  ],
  "bytecode": "0x60806040523480156200001157600080fd5b5060405162002a3a38038062002a3a833981016040819052620000349162000366565b6000805460ff19169055620000493362000135565b620000566000336200018e565b620000827f3fb0aaa9e8051cfc6c234a5d843bed33910f70c647055f27247c10144c7552e1336200018e565b6003849055600480546001600160a01b038086166001600160a01b0319928316811790935560058054868316908416811790915560068054928616928416831790556007805484169094179093556008805483169093179092556009805490911690911790556040805180820190915260118152704f776e20616464726573733a202725732760781b6020808301919091526200012b91903090620019046200019e821b17901c565b5050505062000423565b600080546001600160a01b03838116610100818102610100600160a81b0319851617855560405193049190911692909183917f8be0079c531659141344cd1fd0a4f28419497f9722a3daafe3b4186f6b6457e091a35050565b6200019a8282620001eb565b5050565b6200019a8282604051602401620001b7929190620003ba565b60408051601f198184030181529190526020810180516001600160e01b0390811663319af33360e01b179091526200022e16565b6200020282826200024f60201b6200195e1760201c565b600082815260026020908152604090912062000229918390620019e5620002d7821b17901c565b505050565b80516a636f6e736f6c652e6c6f67602083016000808483855afa5050505050565b60008281526001602090815260408083206001600160a01b038516845290915290205460ff166200019a5760008281526001602081815260408084206001600160a01b0386168086529252808420805460ff19169093179092559051339285917f2f8788117e7eff1d82e926ec794901d17c78024a50270940304540a733656f0d9190a45050565b6000620002ee836001600160a01b038416620002f7565b90505b92915050565b60008181526001830160205260408120546200034057508154600181810184556000848152602080822090930184905584548482528286019093526040902091909155620002f1565b506000620002f1565b80516001600160a01b03811681146200036157600080fd5b919050565b600080600080608085870312156200037d57600080fd5b845193506200038f6020860162000349565b92506200039f6040860162000349565b9150620003af6060860162000349565b905092959194509250565b604081526000835180604084015260005b81811015620003ea5760208187018101516060868401015201620003cb565b81811115620003fd576000606083860101525b506001600160a01b0393909316602083015250601f91909101601f191601606001919050565b61260780620004336000396000f3fe6080604052600436106101555760003560e01c80638da5cb5b116100bb578063c9c821891161007f578063d6f0d39f11610059578063d6f0d39f146103fc578063f2fde38b14610430578063f9058b521461045057600080fd5b8063c9c821891461039c578063ca15c873146103bc578063d547741f146103dc57600080fd5b80638da5cb5b146102de5780639010d07c1461030157806391d1485414610321578063a217fddf14610367578063c96e9f4b1461037c57600080fd5b80635c975abb1161011d578063674a12c7116100f7578063674a12c714610293578063715018a6146102a95780637c377174146102be57600080fd5b80635c975abb146102485780635cc2f117146102605780636432a3641461028057600080fd5b806301ffc9a71461015a5780631cf1ced71461018f578063248a9ca3146101c75780632f2ff15d1461020657806336568abe14610228575b600080fd5b34801561016657600080fd5b5061017a6101753660046121f7565b610470565b60405190151581526020015b60405180910390f35b34801561019b57600080fd5b506004546101af906001600160a01b031681565b6040516001600160a01b039091168152602001610186565b3480156101d357600080fd5b506101f86101e2366004612221565b6000908152600160208190526040909120015490565b604051908152602001610186565b34801561021257600080fd5b5061022661022136600461224f565b61049b565b005b34801561023457600080fd5b5061022661024336600461224f565b6104c7565b34801561025457600080fd5b5060005460ff1661017a565b34801561026c57600080fd5b5061022661027b36600461227f565b610558565b61022661028e36600461227f565b610c5c565b34801561029f57600080fd5b506101f860035481565b3480156102b557600080fd5b50610226611306565b3480156102ca57600080fd5b506006546101af906001600160a01b031681565b3480156102ea57600080fd5b5060005461010090046001600160a01b03166101af565b34801561030d57600080fd5b506101af61031c3660046122ba565b611372565b34801561032d57600080fd5b5061017a61033c36600461224f565b60009182526001602090815260408084206001600160a01b0393909316845291905290205460ff1690565b34801561037357600080fd5b506101f8600081565b34801561038857600080fd5b50610226610397366004612221565b611391565b3480156103a857600080fd5b506005546101af906001600160a01b031681565b3480156103c857600080fd5b506101f86103d7366004612221565b61140c565b3480156103e857600080fd5b506102266103f736600461224f565b611423565b34801561040857600080fd5b506101f87f3fb0aaa9e8051cfc6c234a5d843bed33910f70c647055f27247c10144c7552e181565b34801561043c57600080fd5b5061022661044b3660046122dc565b61144a565b34801561045c57600080fd5b5061022661046b36600461227f565b61151b565b60006001600160e01b03198216635a05180f60e01b14806104955750610495826119fa565b92915050565b600082815260016020819052604090912001546104b88133611a2f565b6104c28383611aaf565b505050565b6001600160a01b038116331461054a5760405162461bcd60e51b815260206004820152602f60248201527f416363657373436f6e74726f6c3a2063616e206f6e6c792072656e6f756e636560448201527f20726f6c657320666f722073656c66000000000000000000000000000000000060648201526084015b60405180910390fd5b6105548282611ad1565b5050565b600081116105a85760405162461bcd60e51b815260206004820152601f60248201527f416d6f756e742073686f756c64206265206d6f7265207468616e207a65726f006044820152606401610541565b600082116105f85760405162461bcd60e51b815260206004820152601f60248201527f5072696365206d7573742062652067726561746572207468616e207a65726f006044820152606401610541565b60095460405163472bf44760e01b81526001600160a01b038681166004830152602482018690529091169063472bf4479060440160206040518083038186803b15801561064457600080fd5b505afa158015610658573d6000803e3d6000fd5b505050506040513d601f19601f8201168201806040525081019061067c919061230e565b6106c85760405162461bcd60e51b815260206004820152601960248201527f546f6b656e206e6f7420666f756e6420696e204d61726b6574000000000000006044820152606401610541565b6000806106d486611af3565b156108af576007546040516331a9108f60e11b8152600481018790526000916001600160a01b031690636352211e9060240160206040518083038186803b15801561071e57600080fd5b505afa158015610732573d6000803e3d6000fd5b505050506040513d601f19601f820116820180604052508101906107569190612329565b90506001600160a01b03811633146107b05760405162461bcd60e51b815260206004820152601360248201527f43616c6c6572206973206e6f74206f776e6572000000000000000000000000006044820152606401610541565b60018411156107be57600193505b6007546000906001600160a01b031663e985e9c5336040516001600160e01b031960e084901b1681526001600160a01b03909116600482015230602482015260440160206040518083038186803b15801561081857600080fd5b505afa15801561082c573d6000803e3d6000fd5b505050506040513d601f19601f82011682018060405250810190610850919061230e565b90508061089f5760405162461bcd60e51b815260206004820152601b60248201527f53657420617070726f76616c206265666f7265206c697374696e6700000000006044820152606401610541565b6102d19350600192505050610b67565b6108b886611b75565b15610b1f576008546000906001600160a01b031662fdd58e336040516001600160e01b031960e084901b1681526001600160a01b0390911660048201526024810189905260440160206040518083038186803b15801561091757600080fd5b505afa15801561092b573d6000803e3d6000fd5b505050506040513d601f19601f8201168201806040525081019061094f9190612346565b9050838110156109a15760405162461bcd60e51b815260206004820152601560248201527f4d757374206f776e20656e6f75676820746f6b656e00000000000000000000006044820152606401610541565b6008546000906001600160a01b031663e985e9c5336040516001600160e01b031960e084901b1681526001600160a01b03909116600482015230602482015260440160206040518083038186803b1580156109fb57600080fd5b505afa158015610a0f573d6000803e3d6000fd5b505050506040513d601f19601f82011682018060405250810190610a33919061230e565b905080610a825760405162461bcd60e51b815260206004820152601b60248201527f53657420617070726f76616c206265666f7265206c697374696e6700000000006044820152606401610541565b600954604051630baee51360e31b81526001600160a01b038a81166004830152602482018a9052610483965090911690635d7728989060440160206040518083038186803b158015610ad357600080fd5b505afa158015610ae7573d6000803e3d6000fd5b505050506040513d601f19601f82011682018060405250810190610b0b9190612346565b610b16906001612375565b92505050610b67565b60405162461bcd60e51b815260206004820152601360248201527f496e76616c6964206e66742061646472657373000000000000000000000000006044820152606401610541565b6009546040805163a371256360e01b81526001600160a01b038981166004830152602482018990526044820185905260648201879052608482018890523360a48301524260c48301529151919092169163a37125639160e480830192600092919082900301818387803b158015610bdd57600080fd5b505af1158015610bf1573d6000803e3d6000fd5b5050604080518581526001600160a01b038a166020820152908101889052606081018490526080810186905260a081018790527f325803f3e8d60dd5dd317a9a2163edb53d44aac1801625589d9cd8232b91e1cc925060c001905060405180910390a1505050505050565b60008111610cac5760405162461bcd60e51b815260206004820152601f60248201527f416d6f756e742073686f756c64206265206d6f7265207468616e207a65726f006044820152606401610541565b60003411610ceb5760405162461bcd60e51b815260206004820152600c60248201526b115d1a081b9bdd081cd95b9d60a21b6044820152606401610541565b60095460405163472bf44760e01b81526001600160a01b038681166004830152602482018690529091169063472bf4479060440160206040518083038186803b158015610d3757600080fd5b505afa158015610d4b573d6000803e3d6000fd5b505050506040513d601f19601f82011682018060405250810190610d6f919061230e565b610dbb5760405162461bcd60e51b815260206004820152601960248201527f546f6b656e206e6f7420666f756e6420696e204d61726b6574000000000000006044820152606401610541565b600954604051630baee51360e31b81526001600160a01b0386811660048301526024820186905290911690635d7728989060440160206040518083038186803b158015610e0757600080fd5b505afa158015610e1b573d6000803e3d6000fd5b505050506040513d601f19601f82011682018060405250810190610e3f9190612346565b821115610e8e5760405162461bcd60e51b815260206004820152601860248201527f4974656d206e6f7420666f756e6420696e206d61726b657400000000000000006044820152606401610541565b6009546040516367aa9b6760e01b81526001600160a01b038681166004830152602482018690526044820185905260009283928392839283928392839216906367aa9b67906064016101006040518083038186803b158015610eef57600080fd5b505afa158015610f03573d6000803e3d6000fd5b505050506040513d601f19601f82011682018060405250810190610f27919061238d565b97505096509650965096509650965060006001600160a01b0316846001600160a01b03161415610f995760405162461bcd60e51b815260206004820152601a60248201527f546f6b656e206e6f7420666f756e6420696e206c697374696e670000000000006044820152606401610541565b81610fe65760405162461bcd60e51b815260206004820152601560248201527f546f6b656e206973206e6f74207472616461626c6500000000000000000000006044820152606401610541565b6001600160a01b03841633141561103f5760405162461bcd60e51b815260206004820152601460248201527f43616e6e6f7420627579206f776e20746f6b656e0000000000000000000000006044820152606401610541565b6110498888612405565b34146110975760405162461bcd60e51b815260206004820152601360248201527f4e6f7420656e6f756768206574682073656e74000000000000000000000000006044820152606401610541565b878610156110e75760405162461bcd60e51b815260206004820152601e60248201527f43616e6e6f7420627579206d6f7265207468616e20617661696c61626c6500006044820152606401610541565b6110f08b611af3565b1561116757600754604051632142170760e11b81526001600160a01b038681166004830152336024830152604482018d9052909116906342842e0e906064015b600060405180830381600087803b15801561114a57600080fd5b505af115801561115e573d6000803e3d6000fd5b505050506111c9565b6111708b611b75565b15610b1f57600854604051637921219560e11b81526001600160a01b038681166004830152336024830152604482018d9052606482018b905260a06084830152600060a48301529091169063f242432a9060c401611130565b6111d584843488611bab565b6009546001600160a01b0316637cd7efc58c8c8c8c6111f4818e612405565b8a3360405160e089901b6001600160e01b03191681526001600160a01b0397881660048201526024810196909652604486019490945260648501929092526084840152831660a483015290911660c48201524260e482015261010401600060405180830381600087803b15801561126a57600080fd5b505af115801561127e573d6000803e3d6000fd5b505050507fa75b2a2e83f06090ef705ebcdd769b503ed43ca519febed2d72a7c2baa239ec5818c8c8c8a8c8a6040516112f197969594939291909687526001600160a01b03958616602088015260408701949094526060860192909252608085015260a08401521660c082015260e00190565b60405180910390a15050505050505050505050565b6000546001600160a01b036101009091041633146113665760405162461bcd60e51b815260206004820181905260248201527f4f776e61626c653a2063616c6c6572206973206e6f7420746865206f776e65726044820152606401610541565b6113706000611dad565b565b600082815260026020526040812061138a9083611e13565b9392505050565b6113bb7f3fb0aaa9e8051cfc6c234a5d843bed33910f70c647055f27247c10144c7552e13361033c565b6114075760405162461bcd60e51b815260206004820152601b60248201527f2361646d696e4f6e6c793a206e6565642061646d696e20726f6c6500000000006044820152606401610541565b600355565b600081815260026020526040812061049590611e1f565b600082815260016020819052604090912001546114408133611a2f565b6104c28383611ad1565b6000546001600160a01b036101009091041633146114aa5760405162461bcd60e51b815260206004820181905260248201527f4f776e61626c653a2063616c6c6572206973206e6f7420746865206f776e65726044820152606401610541565b6001600160a01b03811661150f5760405162461bcd60e51b815260206004820152602660248201527f4f776e61626c653a206e6577206f776e657220697320746865207a65726f206160448201526564647265737360d01b6064820152608401610541565b61151881611dad565b50565b6000811161156b5760405162461bcd60e51b815260206004820152601f60248201527f416d6f756e742073686f756c64206265206d6f7265207468616e207a65726f006044820152606401610541565b6003548211156115bd5760405162461bcd60e51b815260206004820152601660248201527f526f79616c7479206c696d6974206578636565646564000000000000000000006044820152606401610541565b60095460405163472bf44760e01b81526001600160a01b038681166004830152602482018690529091169063472bf4479060440160206040518083038186803b15801561160957600080fd5b505afa15801561161d573d6000803e3d6000fd5b505050506040513d601f19601f82011682018060405250810190611641919061230e565b1561168e5760405162461bcd60e51b815260206004820152601760248201527f546f6b656e20494420616c7265616479206d696e7465640000000000000000006044820152606401610541565b600061169985611af3565b1561176a57816001146116ee5760405162461bcd60e51b815260206004820152601360248201527f496e76616c6964206d696e7420616d6f756e74000000000000000000000000006044820152606401610541565b6007546001600160a01b03166340c10f19336040516001600160e01b031960e084901b1681526001600160a01b03909116600482015260248101879052604401600060405180830381600087803b15801561174857600080fd5b505af115801561175c573d6000803e3d6000fd5b505050506102d19050611810565b61177385611b75565b15610b1f576008546001600160a01b031663731133e9336040516001600160e01b031960e084901b1681526001600160a01b0390911660048201526024810187905260448101859052608060648201526002608482015261060f60f31b60a482015260c401600060405180830381600087803b1580156117f257600080fd5b505af1158015611806573d6000803e3d6000fd5b5050505061048390505b600954604080516388f6535160e01b81526001600160a01b03888116600483015260248201889052604482018690523360648301526084820187905260a482018590524260c4830152915191909216916388f653519160e480830192600092919082900301818387803b15801561188657600080fd5b505af115801561189a573d6000803e3d6000fd5b505050507fe5899d53140a064b8ea8b041ccbf3982768d44db6050ded24778104afa7b4b8c818686856118ca3390565b604080519586526001600160a01b039485166020870152850192909252606084015216608082015260a00160405180910390a15050505050565b610554828260405160240161191a929190612480565b60408051601f198184030181529190526020810180517bffffffffffffffffffffffffffffffffffffffffffffffffffffffff1663319af33360e01b179052611e29565b60008281526001602090815260408083206001600160a01b038516845290915290205460ff166105545760008281526001602081815260408084206001600160a01b0386168086529252808420805460ff19169093179092559051339285917f2f8788117e7eff1d82e926ec794901d17c78024a50270940304540a733656f0d9190a45050565b600061138a836001600160a01b038416611e4a565b60006001600160e01b03198216637965db0b60e01b148061049557506301ffc9a760e01b6001600160e01b0319831614610495565b60008281526001602090815260408083206001600160a01b038516845290915290205460ff1661055457611a6d816001600160a01b03166014611e99565b611a78836020611e99565b604051602001611a899291906124ab565b60408051601f198184030181529082905262461bcd60e51b82526105419160040161252c565b611ab9828261195e565b60008281526002602052604090206104c290826119e5565b611adb8282612042565b60008281526002602052604090206104c290826120c5565b6040516301ffc9a760e01b81526380ac58cd60e01b60048201526000906001600160a01b038316906301ffc9a7906024015b60206040518083038186803b158015611b3d57600080fd5b505afa158015611b51573d6000803e3d6000fd5b505050506040513d601f19601f82011682018060405250810190610495919061230e565b6040516301ffc9a760e01b8152636cdb3d1360e11b60048201526000906001600160a01b038316906301ffc9a790602401611b25565b60095460408051630824ea6b60e31b815290516000926001600160a01b0316916341275358916004808301926020929190829003018186803b158015611bf057600080fd5b505afa158015611c04573d6000803e3d6000fd5b505050506040513d601f19601f82011682018060405250810190611c289190612329565b905060006064611c388486612405565b611c42919061253f565b905060006064600960009054906101000a90046001600160a01b03166001600160a01b03166326232a2e6040518163ffffffff1660e01b815260040160206040518083038186803b158015611c9657600080fd5b505afa158015611caa573d6000803e3d6000fd5b505050506040513d601f19601f82011682018060405250810190611cce9190612346565b611cd89087612405565b611ce2919061253f565b9050600081611cf18488612561565b611cfb9190612561565b6040519091506001600160a01b0389169082156108fc029083906000818181858888f19350505050158015611d34573d6000803e3d6000fd5b506040516001600160a01b0388169084156108fc029085906000818181858888f19350505050158015611d6b573d6000803e3d6000fd5b506040516001600160a01b0385169083156108fc029084906000818181858888f19350505050158015611da2573d6000803e3d6000fd5b505050505050505050565b600080546001600160a01b0383811661010081810274ffffffffffffffffffffffffffffffffffffffff0019851617855560405193049190911692909183917f8be0079c531659141344cd1fd0a4f28419497f9722a3daafe3b4186f6b6457e091a35050565b600061138a83836120da565b6000610495825490565b80516a636f6e736f6c652e6c6f67602083016000808483855afa5050505050565b6000818152600183016020526040812054611e9157508154600181810184556000848152602080822090930184905584548482528286019093526040902091909155610495565b506000610495565b60606000611ea8836002612405565b611eb3906002612375565b67ffffffffffffffff811115611ecb57611ecb612578565b6040519080825280601f01601f191660200182016040528015611ef5576020820181803683370190505b509050600360fc1b81600081518110611f1057611f1061258e565b60200101906001600160f81b031916908160001a905350600f60fb1b81600181518110611f3f57611f3f61258e565b60200101906001600160f81b031916908160001a9053506000611f63846002612405565b611f6e906001612375565b90505b6001811115611ff3577f303132333435363738396162636465660000000000000000000000000000000085600f1660108110611faf57611faf61258e565b1a60f81b828281518110611fc557611fc561258e565b60200101906001600160f81b031916908160001a90535060049490941c93611fec816125a4565b9050611f71565b50831561138a5760405162461bcd60e51b815260206004820181905260248201527f537472696e67733a20686578206c656e67746820696e73756666696369656e746044820152606401610541565b60008281526001602090815260408083206001600160a01b038516845290915290205460ff16156105545760008281526001602090815260408083206001600160a01b0385168085529252808320805460ff1916905551339285917ff6391f5c32d9c69d2a47ea670b442974b53935d1edc7fd64eb21e047a839171b9190a45050565b600061138a836001600160a01b038416612104565b60008260000182815481106120f1576120f161258e565b9060005260206000200154905092915050565b600081815260018301602052604081205480156121ed576000612128600183612561565b855490915060009061213c90600190612561565b90508181146121a157600086600001828154811061215c5761215c61258e565b906000526020600020015490508087600001848154811061217f5761217f61258e565b6000918252602080832090910192909255918252600188019052604090208390555b85548690806121b2576121b26125bb565b600190038181906000526020600020016000905590558560010160008681526020019081526020016000206000905560019350505050610495565b6000915050610495565b60006020828403121561220957600080fd5b81356001600160e01b03198116811461138a57600080fd5b60006020828403121561223357600080fd5b5035919050565b6001600160a01b038116811461151857600080fd5b6000806040838503121561226257600080fd5b8235915060208301356122748161223a565b809150509250929050565b6000806000806080858703121561229557600080fd5b84356122a08161223a565b966020860135965060408601359560600135945092505050565b600080604083850312156122cd57600080fd5b50508035926020909101359150565b6000602082840312156122ee57600080fd5b813561138a8161223a565b8051801515811461230957600080fd5b919050565b60006020828403121561232057600080fd5b61138a826122f9565b60006020828403121561233b57600080fd5b815161138a8161223a565b60006020828403121561235857600080fd5b5051919050565b634e487b7160e01b600052601160045260246000fd5b600082198211156123885761238861235f565b500190565b600080600080600080600080610100898b0312156123aa57600080fd5b88519750602089015196506040890151955060608901516123ca8161223a565b60808a01519095506123db8161223a565b93506123e960a08a016122f9565b60c08a015160e0909a0151989b979a5095989497939692505050565b600081600019048311821515161561241f5761241f61235f565b500290565b60005b8381101561243f578181015183820152602001612427565b8381111561244e576000848401525b50505050565b6000815180845261246c816020860160208601612424565b601f01601f19169290920160200192915050565b6040815260006124936040830185612454565b90506001600160a01b03831660208301529392505050565b7f416363657373436f6e74726f6c3a206163636f756e74200000000000000000008152600083516124e3816017850160208801612424565b7f206973206d697373696e6720726f6c65200000000000000000000000000000006017918401918201528351612520816028840160208801612424565b01602801949350505050565b60208152600061138a6020830184612454565b60008261255c57634e487b7160e01b600052601260045260246000fd5b500490565b6000828210156125735761257361235f565b500390565b634e487b7160e01b600052604160045260246000fd5b634e487b7160e01b600052603260045260246000fd5b6000816125b3576125b361235f565b506000190190565b634e487b7160e01b600052603160045260246000fdfea26469706673582212207566eb057c5ae6140d3f9383ff64eb0bc11a3c69b148092e22363902bc2b6b6664736f6c63430008090033",
  "linkReferences": {},
  "deployedLinkReferences": {}
}