{
  "_format": "hh-sol-artifact-1",
  "contractName": "TokenAsset",
  "sourceName": "contracts/TokenAsset.sol",
  "abi": [
    {
      "inputs": [
        {
          "internalType": "string",
          "name": "_name",
          "type": "string"
        },
        {
          "internalType": "string",
          "name": "_symbol",
          "type": "string"
        },
        {
          "internalType": "string",
          "name": "_chainId",
          "type": "string"
        }
      ],
      "stateMutability": "nonpayable",
      "type": "constructor"
    },
    {
      "anonymous": false,
      "inputs": [
        {
          "indexed": true,
          "internalType": "address",
          "name": "account",
          "type": "address"
        },
        {
          "indexed": true,
          "internalType": "address",
          "name": "operator",
          "type": "address"
        },
        {
          "indexed": false,
          "internalType": "bool",
          "name": "approved",
          "type": "bool"
        }
      ],
      "name": "ApprovalForAll",
      "type": "event"
    },
    {
      "anonymous": false,
      "inputs": [
        {
          "indexed": false,
          "internalType": "address",
          "name": "account",
          "type": "address"
        }
      ],
      "name": "Paused",
      "type": "event"
    },
    {
      "anonymous": false,
      "inputs": [
        {
          "indexed": true,
          "internalType": "bytes32",
          "name": "role",
          "type": "bytes32"
        },
        {
          "indexed": true,
          "internalType": "bytes32",
          "name": "previousAdminRole",
          "type": "bytes32"
        },
        {
          "indexed": true,
          "internalType": "bytes32",
          "name": "newAdminRole",
          "type": "bytes32"
        }
      ],
      "name": "RoleAdminChanged",
      "type": "event"
    },
    {
      "anonymous": false,
      "inputs": [
        {
          "indexed": true,
          "internalType": "bytes32",
          "name": "role",
          "type": "bytes32"
        },
        {
          "indexed": true,
          "internalType": "address",
          "name": "account",
          "type": "address"
        },
        {
          "indexed": true,
          "internalType": "address",
          "name": "sender",
          "type": "address"
        }
      ],
      "name": "RoleGranted",
      "type": "event"
    },
    {
      "anonymous": false,
      "inputs": [
        {
          "indexed": true,
          "internalType": "bytes32",
          "name": "role",
          "type": "bytes32"
        },
        {
          "indexed": true,
          "internalType": "address",
          "name": "account",
          "type": "address"
        },
        {
          "indexed": true,
          "internalType": "address",
          "name": "sender",
          "type": "address"
        }
      ],
      "name": "RoleRevoked",
      "type": "event"
    },
    {
      "anonymous": false,
      "inputs": [
        {
          "indexed": true,
          "internalType": "address",
          "name": "operator",
          "type": "address"
        },
        {
          "indexed": true,
          "internalType": "address",
          "name": "from",
          "type": "address"
        },
        {
          "indexed": true,
          "internalType": "address",
          "name": "to",
          "type": "address"
        },
        {
          "indexed": false,
          "internalType": "uint256[]",
          "name": "ids",
          "type": "uint256[]"
        },
        {
          "indexed": false,
          "internalType": "uint256[]",
          "name": "values",
          "type": "uint256[]"
        }
      ],
      "name": "TransferBatch",
      "type": "event"
    },
    {
      "anonymous": false,
      "inputs": [
        {
          "indexed": true,
          "internalType": "address",
          "name": "operator",
          "type": "address"
        },
        {
          "indexed": true,
          "internalType": "address",
          "name": "from",
          "type": "address"
        },
        {
          "indexed": true,
          "internalType": "address",
          "name": "to",
          "type": "address"
        },
        {
          "indexed": false,
          "internalType": "uint256",
          "name": "id",
          "type": "uint256"
        },
        {
          "indexed": false,
          "internalType": "uint256",
          "name": "value",
          "type": "uint256"
        }
      ],
      "name": "TransferSingle",
      "type": "event"
    },
    {
      "anonymous": false,
      "inputs": [
        {
          "indexed": false,
          "internalType": "string",
          "name": "value",
          "type": "string"
        },
        {
          "indexed": true,
          "internalType": "uint256",
          "name": "id",
          "type": "uint256"
        }
      ],
      "name": "URI",
      "type": "event"
    },
    {
      "anonymous": false,
      "inputs": [
        {
          "indexed": false,
          "internalType": "address",
          "name": "account",
          "type": "address"
        }
      ],
      "name": "Unpaused",
      "type": "event"
    },
    {
      "inputs": [],
      "name": "DEFAULT_ADMIN_ROLE",
      "outputs": [
        {
          "internalType": "bytes32",
          "name": "",
          "type": "bytes32"
        }
      ],
      "stateMutability": "view",
      "type": "function"
    },
    {
      "inputs": [],
      "name": "MINTER_ROLE",
      "outputs": [
        {
          "internalType": "bytes32",
          "name": "",
          "type": "bytes32"
        }
      ],
      "stateMutability": "view",
      "type": "function"
    },
    {
      "inputs": [],
      "name": "PAUSER_ROLE",
      "outputs": [
        {
          "internalType": "bytes32",
          "name": "",
          "type": "bytes32"
        }
      ],
      "stateMutability": "view",
      "type": "function"
    },
    {
      "inputs": [],
      "name": "_contractUri",
      "outputs": [
        {
          "internalType": "string",
          "name": "",
          "type": "string"
        }
      ],
      "stateMutability": "view",
      "type": "function"
    },
    {
      "inputs": [
        {
          "internalType": "address",
          "name": "account",
          "type": "address"
        },
        {
          "internalType": "uint256",
          "name": "id",
          "type": "uint256"
        }
      ],
      "name": "balanceOf",
      "outputs": [
        {
          "internalType": "uint256",
          "name": "",
          "type": "uint256"
        }
      ],
      "stateMutability": "view",
      "type": "function"
    },
    {
      "inputs": [
        {
          "internalType": "address[]",
          "name": "accounts",
          "type": "address[]"
        },
        {
          "internalType": "uint256[]",
          "name": "ids",
          "type": "uint256[]"
        }
      ],
      "name": "balanceOfBatch",
      "outputs": [
        {
          "internalType": "uint256[]",
          "name": "",
          "type": "uint256[]"
        }
      ],
      "stateMutability": "view",
      "type": "function"
    },
    {
      "inputs": [
        {
          "internalType": "address",
          "name": "account",
          "type": "address"
        },
        {
          "internalType": "uint256",
          "name": "id",
          "type": "uint256"
        },
        {
          "internalType": "uint256",
          "name": "value",
          "type": "uint256"
        }
      ],
      "name": "burn",
      "outputs": [],
      "stateMutability": "nonpayable",
      "type": "function"
    },
    {
      "inputs": [
        {
          "internalType": "address",
          "name": "account",
          "type": "address"
        },
        {
          "internalType": "uint256[]",
          "name": "ids",
          "type": "uint256[]"
        },
        {
          "internalType": "uint256[]",
          "name": "values",
          "type": "uint256[]"
        }
      ],
      "name": "burnBatch",
      "outputs": [],
      "stateMutability": "nonpayable",
      "type": "function"
    },
    {
      "inputs": [
        {
          "internalType": "bytes32",
          "name": "role",
          "type": "bytes32"
        }
      ],
      "name": "getRoleAdmin",
      "outputs": [
        {
          "internalType": "bytes32",
          "name": "",
          "type": "bytes32"
        }
      ],
      "stateMutability": "view",
      "type": "function"
    },
    {
      "inputs": [
        {
          "internalType": "bytes32",
          "name": "role",
          "type": "bytes32"
        },
        {
          "internalType": "uint256",
          "name": "index",
          "type": "uint256"
        }
      ],
      "name": "getRoleMember",
      "outputs": [
        {
          "internalType": "address",
          "name": "",
          "type": "address"
        }
      ],
      "stateMutability": "view",
      "type": "function"
    },
    {
      "inputs": [
        {
          "internalType": "bytes32",
          "name": "role",
          "type": "bytes32"
        }
      ],
      "name": "getRoleMemberCount",
      "outputs": [
        {
          "internalType": "uint256",
          "name": "",
          "type": "uint256"
        }
      ],
      "stateMutability": "view",
      "type": "function"
    },
    {
      "inputs": [
        {
          "internalType": "bytes32",
          "name": "role",
          "type": "bytes32"
        },
        {
          "internalType": "address",
          "name": "account",
          "type": "address"
        }
      ],
      "name": "grantRole",
      "outputs": [],
      "stateMutability": "nonpayable",
      "type": "function"
    },
    {
      "inputs": [
        {
          "internalType": "bytes32",
          "name": "role",
          "type": "bytes32"
        },
        {
          "internalType": "address",
          "name": "account",
          "type": "address"
        }
      ],
      "name": "hasRole",
      "outputs": [
        {
          "internalType": "bool",
          "name": "",
          "type": "bool"
        }
      ],
      "stateMutability": "view",
      "type": "function"
    },
    {
      "inputs": [
        {
          "internalType": "address",
          "name": "account",
          "type": "address"
        },
        {
          "internalType": "address",
          "name": "operator",
          "type": "address"
        }
      ],
      "name": "isApprovedForAll",
      "outputs": [
        {
          "internalType": "bool",
          "name": "",
          "type": "bool"
        }
      ],
      "stateMutability": "view",
      "type": "function"
    },
    {
      "inputs": [
        {
          "internalType": "address",
          "name": "to",
          "type": "address"
        },
        {
          "internalType": "uint256",
          "name": "id",
          "type": "uint256"
        },
        {
          "internalType": "uint256",
          "name": "amount",
          "type": "uint256"
        },
        {
          "internalType": "bytes",
          "name": "data",
          "type": "bytes"
        }
      ],
      "name": "mint",
      "outputs": [],
      "stateMutability": "nonpayable",
      "type": "function"
    },
    {
      "inputs": [
        {
          "internalType": "address",
          "name": "to",
          "type": "address"
        },
        {
          "internalType": "uint256[]",
          "name": "ids",
          "type": "uint256[]"
        },
        {
          "internalType": "uint256[]",
          "name": "amounts",
          "type": "uint256[]"
        },
        {
          "internalType": "bytes",
          "name": "data",
          "type": "bytes"
        }
      ],
      "name": "mintBatch",
      "outputs": [],
      "stateMutability": "nonpayable",
      "type": "function"
    },
    {
      "inputs": [],
      "name": "name",
      "outputs": [
        {
          "internalType": "string",
          "name": "",
          "type": "string"
        }
      ],
      "stateMutability": "view",
      "type": "function"
    },
    {
      "inputs": [],
      "name": "pause",
      "outputs": [],
      "stateMutability": "nonpayable",
      "type": "function"
    },
    {
      "inputs": [],
      "name": "paused",
      "outputs": [
        {
          "internalType": "bool",
          "name": "",
          "type": "bool"
        }
      ],
      "stateMutability": "view",
      "type": "function"
    },
    {
      "inputs": [
        {
          "internalType": "bytes32",
          "name": "role",
          "type": "bytes32"
        },
        {
          "internalType": "address",
          "name": "account",
          "type": "address"
        }
      ],
      "name": "renounceRole",
      "outputs": [],
      "stateMutability": "nonpayable",
      "type": "function"
    },
    {
      "inputs": [
        {
          "internalType": "bytes32",
          "name": "role",
          "type": "bytes32"
        },
        {
          "internalType": "address",
          "name": "account",
          "type": "address"
        }
      ],
      "name": "revokeRole",
      "outputs": [],
      "stateMutability": "nonpayable",
      "type": "function"
    },
    {
      "inputs": [
        {
          "internalType": "address",
          "name": "from",
          "type": "address"
        },
        {
          "internalType": "address",
          "name": "to",
          "type": "address"
        },
        {
          "internalType": "uint256[]",
          "name": "ids",
          "type": "uint256[]"
        },
        {
          "internalType": "uint256[]",
          "name": "amounts",
          "type": "uint256[]"
        },
        {
          "internalType": "bytes",
          "name": "data",
          "type": "bytes"
        }
      ],
      "name": "safeBatchTransferFrom",
      "outputs": [],
      "stateMutability": "nonpayable",
      "type": "function"
    },
    {
      "inputs": [
        {
          "internalType": "address",
          "name": "from",
          "type": "address"
        },
        {
          "internalType": "address",
          "name": "to",
          "type": "address"
        },
        {
          "internalType": "uint256",
          "name": "id",
          "type": "uint256"
        },
        {
          "internalType": "uint256",
          "name": "amount",
          "type": "uint256"
        },
        {
          "internalType": "bytes",
          "name": "data",
          "type": "bytes"
        }
      ],
      "name": "safeTransferFrom",
      "outputs": [],
      "stateMutability": "nonpayable",
      "type": "function"
    },
    {
      "inputs": [
        {
          "internalType": "address",
          "name": "operator",
          "type": "address"
        },
        {
          "internalType": "bool",
          "name": "approved",
          "type": "bool"
        }
      ],
      "name": "setApprovalForAll",
      "outputs": [],
      "stateMutability": "nonpayable",
      "type": "function"
    },
    {
      "inputs": [
        {
          "internalType": "string",
          "name": "_newUri",
          "type": "string"
        }
      ],
      "name": "setContractURI",
      "outputs": [],
      "stateMutability": "nonpayable",
      "type": "function"
    },
    {
      "inputs": [
        {
          "internalType": "string",
          "name": "_newUri",
          "type": "string"
        }
      ],
      "name": "setURI",
      "outputs": [],
      "stateMutability": "nonpayable",
      "type": "function"
    },
    {
      "inputs": [
        {
          "internalType": "bytes4",
          "name": "interfaceId",
          "type": "bytes4"
        }
      ],
      "name": "supportsInterface",
      "outputs": [
        {
          "internalType": "bool",
          "name": "",
          "type": "bool"
        }
      ],
      "stateMutability": "view",
      "type": "function"
    },
    {
      "inputs": [],
      "name": "symbol",
      "outputs": [
        {
          "internalType": "string",
          "name": "",
          "type": "string"
        }
      ],
      "stateMutability": "view",
      "type": "function"
    },
    {
      "inputs": [],
      "name": "unpause",
      "outputs": [],
      "stateMutability": "nonpayable",
      "type": "function"
    },
    {
      "inputs": [
        {
          "internalType": "uint256",
          "name": "",
          "type": "uint256"
        }
      ],
      "name": "uri",
      "outputs": [
        {
          "internalType": "string",
          "name": "",
          "type": "string"
        }
      ],
      "stateMutability": "view",
      "type": "function"
    }
  ],
  "bytecode": "0x60806040523480156200001157600080fd5b506040516200394e3803806200394e833981016040819052620000349162000679565b620000846040518060600160405280603c8152602001620038c9603c9139826200005e3062000188565b6040805180820190915260098152683db4b23e973539b7b760b91b602082015262000315565b80620000908162000349565b506005805460ff19169055620000a860003362000362565b620000c3600080516020620038a98339815191523362000362565b620000de600080516020620038898339815191523362000362565b50620000ec60003362000369565b62000107600080516020620038898339815191523362000369565b62000122600080516020620038a98339815191523362000369565b825162000137906006906020860190620004f9565b5081516200014d906007906020850190620004f9565b50604051806080016040528060498152602001620039056049913980516200017e91600891602090910190620004f9565b5050505062000a63565b60408051602880825260608281019093526000919060208201818036833701905050905060005b6014811015620002ea576000620001c882601362000720565b620001d59060086200073a565b620001e290600262000859565b620001f7906001600160a01b0387166200087d565b60f81b9050600060108260f81c62000210919062000894565b60f81b905060008160f81c6010620002299190620008b9565b8360f81c620002399190620008dd565b60f81b90506200024982620003ac565b85620002578660026200073a565b815181106200026a576200026a62000903565b60200101906001600160f81b031916908160001a9053506200028c81620003ac565b856200029a8660026200073a565b620002a790600162000919565b81518110620002ba57620002ba62000903565b60200101906001600160f81b031916908160001a9053505050508080620002e19062000934565b915050620001af565b5080604051602001620002fe919062000952565b604051602081830303815290604052915050919050565b6060848484846040516020016200033094939291906200097e565b6040516020818303038152906040529050949350505050565b80516200035e906004906020840190620004f9565b5050565b6200035e82825b620003808282620003e760201b62000cfb1760201c565b6000828152600160209081526040909120620003a791839062000d9962000487821b17901c565b505050565b6000600a60f883901c1015620003d657620003cd60f883901c6030620009fe565b60f81b92915050565b620003cd60f883901c6057620009fe565b6000828152602081815260408083206001600160a01b038516845290915290205460ff166200035e576000828152602081815260408083206001600160a01b03851684529091529020805460ff19166001179055620004433390565b6001600160a01b0316816001600160a01b0316837f2f8788117e7eff1d82e926ec794901d17c78024a50270940304540a733656f0d60405160405180910390a45050565b60006200049e836001600160a01b038416620004a7565b90505b92915050565b6000818152600183016020526040812054620004f057508154600181810184556000848152602080822090930184905584548482528286019093526040902091909155620004a1565b506000620004a1565b828054620005079062000a26565b90600052602060002090601f0160209004810192826200052b576000855562000576565b82601f106200054657805160ff191683800117855562000576565b8280016001018555821562000576579182015b828111156200057657825182559160200191906001019062000559565b506200058492915062000588565b5090565b5b8082111562000584576000815560010162000589565b634e487b7160e01b600052604160045260246000fd5b60005b83811015620005d2578181015183820152602001620005b8565b83811115620005e2576000848401525b50505050565b600082601f830112620005fa57600080fd5b81516001600160401b03808211156200061757620006176200059f565b604051601f8301601f19908116603f011681019082821181831017156200064257620006426200059f565b816040528381528660208588010111156200065c57600080fd5b6200066f846020830160208901620005b5565b9695505050505050565b6000806000606084860312156200068f57600080fd5b83516001600160401b0380821115620006a757600080fd5b620006b587838801620005e8565b94506020860151915080821115620006cc57600080fd5b620006da87838801620005e8565b93506040860151915080821115620006f157600080fd5b506200070086828701620005e8565b9150509250925092565b634e487b7160e01b600052601160045260246000fd5b6000828210156200073557620007356200070a565b500390565b60008160001904831182151516156200075757620007576200070a565b500290565b600181815b808511156200079d5781600019048211156200078157620007816200070a565b808516156200078f57918102915b93841c939080029062000761565b509250929050565b600082620007b657506001620004a1565b81620007c557506000620004a1565b8160018114620007de5760028114620007e95762000809565b6001915050620004a1565b60ff841115620007fd57620007fd6200070a565b50506001821b620004a1565b5060208310610133831016604e8410600b84101617156200082e575081810a620004a1565b6200083a83836200075c565b80600019048211156200085157620008516200070a565b029392505050565b60006200049e8383620007a5565b634e487b7160e01b600052601260045260246000fd5b6000826200088f576200088f62000867565b500490565b600060ff831680620008aa57620008aa62000867565b8060ff84160491505092915050565b600060ff821660ff84168160ff04811182151516156200085157620008516200070a565b600060ff821660ff841680821015620008fa57620008fa6200070a565b90039392505050565b634e487b7160e01b600052603260045260246000fd5b600082198211156200092f576200092f6200070a565b500190565b60006000198214156200094b576200094b6200070a565b5060010190565b61060f60f31b81526000825162000971816002850160208701620005b5565b9190910160020192915050565b6000855162000992818460208a01620005b5565b8083019050602f60f81b8082528651620009b4816001850160208b01620005b5565b600192019182018190528551620009d3816002850160208a01620005b5565b60029201918201528351620009f0816003840160208801620005b5565b016003019695505050505050565b600060ff821660ff84168060ff0382111562000a1e5762000a1e6200070a565b019392505050565b600181811c9082168062000a3b57607f821691505b6020821081141562000a5d57634e487b7160e01b600052602260045260246000fd5b50919050565b612e168062000a736000396000f3fe608060405234801561001057600080fd5b50600436106101d95760003560e01c80638456cb5911610104578063ca15c873116100a2578063e63ab1e911610071578063e63ab1e914610421578063e985e9c514610448578063f242432a14610484578063f5298aca1461049757600080fd5b8063ca15c873146103cc578063d5391393146103df578063d547741f14610406578063d9ce2f6d1461041957600080fd5b8063938e3d7b116100de578063938e3d7b1461039657806395d89b41146103a9578063a217fddf146103b1578063a22cb465146103b957600080fd5b80638456cb591461032c5780639010d07c1461033457806391d148541461035f57600080fd5b80632eb2c2d61161017c5780634e1273f41161014b5780634e1273f4146102db5780635c975abb146102fb5780636b20c45414610306578063731133e91461031957600080fd5b80632eb2c2d61461029a5780632f2ff15d146102ad57806336568abe146102c05780633f4ba83a146102d357600080fd5b806306fdde03116101b857806306fdde031461023c5780630e89341c146102515780631f7fdffa14610264578063248a9ca31461027757600080fd5b8062fdd58e146101de57806301ffc9a71461020457806302fe530514610227575b600080fd5b6101f16101ec3660046123d7565b6104aa565b6040519081526020015b60405180910390f35b610217610212366004612417565b610546565b60405190151581526020016101fb565b61023a6102353660046124d5565b610551565b005b61024461056a565b6040516101fb919061257e565b61024461025f366004612591565b6105f8565b61023a61027236600461265f565b61068c565b6101f1610285366004612591565b60009081526020819052604090206001015490565b61023a6102a83660046126f8565b61073a565b61023a6102bb3660046127a2565b6107dc565b61023a6102ce3660046127a2565b610807565b61023a61088f565b6102ee6102e93660046127ce565b6108c5565b6040516101fb91906128d4565b60055460ff16610217565b61023a6103143660046128e7565b6109ef565b61023a61032736600461295b565b610a74565b61023a610b1c565b6103476103423660046129b0565b610b4f565b6040516001600160a01b0390911681526020016101fb565b61021761036d3660046127a2565b6000918252602082815260408084206001600160a01b0393909316845291905290205460ff1690565b61023a6103a43660046124d5565b610b6e565b610244610b8d565b6101f1600081565b61023a6103c73660046129d2565b610b9a565b6101f16103da366004612591565b610ba5565b6101f17f9f2df0fed2c77648de5860a4cc508cd0818c85b8b8a1ab4ceeef8d981c8956a681565b61023a6104143660046127a2565b610bbc565b610244610be2565b6101f17f65d7a28e3265b37a6474929f336521b332c1681b933f6cb9f3376673440d862a81565b610217610456366004612a0e565b6001600160a01b03918216600090815260036020908152604080832093909416825291909152205460ff1690565b61023a610492366004612a38565b610bef565b61023a6104a5366004612a9d565b610c76565b60006001600160a01b03831661051b5760405162461bcd60e51b815260206004820152602b60248201527f455243313135353a2062616c616e636520717565727920666f7220746865207a60448201526a65726f206164647265737360a81b60648201526084015b60405180910390fd5b5060008181526002602090815260408083206001600160a01b03861684529091529020545b92915050565b600061054082610dae565b600061055d8133610dee565b61056682610e6c565b5050565b6006805461057790612ad0565b80601f01602080910402602001604051908101604052809291908181526020018280546105a390612ad0565b80156105f05780601f106105c5576101008083540402835291602001916105f0565b820191906000526020600020905b8154815290600101906020018083116105d357829003601f168201915b505050505081565b60606004805461060790612ad0565b80601f016020809104026020016040519081016040528092919081815260200182805461063390612ad0565b80156106805780601f1061065557610100808354040283529160200191610680565b820191906000526020600020905b81548152906001019060200180831161066357829003601f168201915b50505050509050919050565b6106b67f9f2df0fed2c77648de5860a4cc508cd0818c85b8b8a1ab4ceeef8d981c8956a63361036d565b6107285760405162461bcd60e51b815260206004820152603860248201527f455243313135355072657365744d696e7465725061757365723a206d7573742060448201527f68617665206d696e74657220726f6c6520746f206d696e7400000000000000006064820152608401610512565b61073484848484610e7f565b50505050565b6001600160a01b03851633148061075657506107568533610456565b6107c85760405162461bcd60e51b815260206004820152603260248201527f455243313135353a207472616e736665722063616c6c6572206973206e6f742060448201527f6f776e6572206e6f7220617070726f76656400000000000000000000000000006064820152608401610512565b6107d58585858585611055565b5050505050565b6000828152602081905260409020600101546107f88133610dee565b61080283836112c4565b505050565b6001600160a01b03811633146108855760405162461bcd60e51b815260206004820152602f60248201527f416363657373436f6e74726f6c3a2063616e206f6e6c792072656e6f756e636560448201527f20726f6c657320666f722073656c6600000000000000000000000000000000006064820152608401610512565b61056682826112e6565b7f65d7a28e3265b37a6474929f336521b332c1681b933f6cb9f3376673440d862a6108ba8133610dee565b6108c2611308565b50565b6060815183511461092a5760405162461bcd60e51b815260206004820152602960248201527f455243313135353a206163636f756e747320616e6420696473206c656e677468604482015268040dad2e6dac2e8c6d60bb1b6064820152608401610512565b6000835167ffffffffffffffff81111561094657610946612434565b60405190808252806020026020018201604052801561096f578160200160208202803683370190505b50905060005b84518110156109e7576109ba85828151811061099357610993612b0b565b60200260200101518583815181106109ad576109ad612b0b565b60200260200101516104aa565b8282815181106109cc576109cc612b0b565b60209081029190910101526109e081612b37565b9050610975565b509392505050565b6001600160a01b038316331480610a0b5750610a0b8333610456565b610a695760405162461bcd60e51b815260206004820152602960248201527f455243313135353a2063616c6c6572206973206e6f74206f776e6572206e6f7260448201526808185c1c1c9bdd995960ba1b6064820152608401610512565b6108028383836113a4565b610a9e7f9f2df0fed2c77648de5860a4cc508cd0818c85b8b8a1ab4ceeef8d981c8956a63361036d565b610b105760405162461bcd60e51b815260206004820152603860248201527f455243313135355072657365744d696e7465725061757365723a206d7573742060448201527f68617665206d696e74657220726f6c6520746f206d696e7400000000000000006064820152608401610512565b610734848484846115ee565b7f65d7a28e3265b37a6474929f336521b332c1681b933f6cb9f3376673440d862a610b478133610dee565b6108c2611700565b6000828152600160205260408120610b679083611788565b9392505050565b6000610b7a8133610dee565b8151610802906008906020850190612322565b6007805461057790612ad0565b610566338383611794565b600081815260016020526040812061054090611875565b600082815260208190526040902060010154610bd88133610dee565b61080283836112e6565b6008805461057790612ad0565b6001600160a01b038516331480610c0b5750610c0b8533610456565b610c695760405162461bcd60e51b815260206004820152602960248201527f455243313135353a2063616c6c6572206973206e6f74206f776e6572206e6f7260448201526808185c1c1c9bdd995960ba1b6064820152608401610512565b6107d5858585858561187f565b6001600160a01b038316331480610c925750610c928333610456565b610cf05760405162461bcd60e51b815260206004820152602960248201527f455243313135353a2063616c6c6572206973206e6f74206f776e6572206e6f7260448201526808185c1c1c9bdd995960ba1b6064820152608401610512565b610802838383611a21565b6000828152602081815260408083206001600160a01b038516845290915290205460ff16610566576000828152602081815260408083206001600160a01b03851684529091529020805460ff19166001179055610d553390565b6001600160a01b0316816001600160a01b0316837f2f8788117e7eff1d82e926ec794901d17c78024a50270940304540a733656f0d60405160405180910390a45050565b6000610b67836001600160a01b038416611b9e565b60006001600160e01b03198216636cdb3d1360e11b1480610ddf57506001600160e01b031982166303a24d0760e21b145b80610540575061054082611bed565b6000828152602081815260408083206001600160a01b038516845290915290205460ff1661056657610e2a816001600160a01b03166014611c12565b610e35836020611c12565b604051602001610e46929190612b52565b60408051601f198184030181529082905262461bcd60e51b82526105129160040161257e565b8051610566906004906020840190612322565b6001600160a01b038416610edf5760405162461bcd60e51b815260206004820152602160248201527f455243313135353a206d696e7420746f20746865207a65726f206164647265736044820152607360f81b6064820152608401610512565b8151835114610f415760405162461bcd60e51b815260206004820152602860248201527f455243313135353a2069647320616e6420616d6f756e7473206c656e677468206044820152670dad2e6dac2e8c6d60c31b6064820152608401610512565b33610f5181600087878787611dbb565b60005b8451811015610fed57838181518110610f6f57610f6f612b0b565b602002602001015160026000878481518110610f8d57610f8d612b0b565b602002602001015181526020019081526020016000206000886001600160a01b03166001600160a01b031681526020019081526020016000206000828254610fd59190612bd3565b90915550819050610fe581612b37565b915050610f54565b50846001600160a01b031660006001600160a01b0316826001600160a01b03167f4a39dc06d4c0dbc64b70af90fd698a233a518aa5d07e595d983b8c0526c8f7fb878760405161103e929190612beb565b60405180910390a46107d581600087878787611dc9565b81518351146110b75760405162461bcd60e51b815260206004820152602860248201527f455243313135353a2069647320616e6420616d6f756e7473206c656e677468206044820152670dad2e6dac2e8c6d60c31b6064820152608401610512565b6001600160a01b03841661111b5760405162461bcd60e51b815260206004820152602560248201527f455243313135353a207472616e7366657220746f20746865207a65726f206164604482015264647265737360d81b6064820152608401610512565b3361112a818787878787611dbb565b60005b845181101561125657600085828151811061114a5761114a612b0b565b60200260200101519050600085838151811061116857611168612b0b565b60209081029190910181015160008481526002835260408082206001600160a01b038e1683529093529190912054909150818110156111fc5760405162461bcd60e51b815260206004820152602a60248201527f455243313135353a20696e73756666696369656e742062616c616e636520666f60448201526939103a3930b739b332b960b11b6064820152608401610512565b60008381526002602090815260408083206001600160a01b038e8116855292528083208585039055908b1682528120805484929061123b908490612bd3565b925050819055505050508061124f90612b37565b905061112d565b50846001600160a01b0316866001600160a01b0316826001600160a01b03167f4a39dc06d4c0dbc64b70af90fd698a233a518aa5d07e595d983b8c0526c8f7fb87876040516112a6929190612beb565b60405180910390a46112bc818787878787611dc9565b505050505050565b6112ce8282610cfb565b60008281526001602052604090206108029082610d99565b6112f08282611f7e565b60008281526001602052604090206108029082611ffd565b60055460ff1661135a5760405162461bcd60e51b815260206004820152601460248201527f5061757361626c653a206e6f74207061757365640000000000000000000000006044820152606401610512565b6005805460ff191690557f5db9ee0a495bf2e6ff9c91a7834c1ba4fdd244a5e8aa4e537bd38aeae4b073aa335b6040516001600160a01b03909116815260200160405180910390a1565b6001600160a01b0383166114065760405162461bcd60e51b815260206004820152602360248201527f455243313135353a206275726e2066726f6d20746865207a65726f206164647260448201526265737360e81b6064820152608401610512565b80518251146114685760405162461bcd60e51b815260206004820152602860248201527f455243313135353a2069647320616e6420616d6f756e7473206c656e677468206044820152670dad2e6dac2e8c6d60c31b6064820152608401610512565b600033905061148b81856000868660405180602001604052806000815250611dbb565b60005b835181101561158f5760008482815181106114ab576114ab612b0b565b6020026020010151905060008483815181106114c9576114c9612b0b565b60209081029190910181015160008481526002835260408082206001600160a01b038c1683529093529190912054909150818110156115565760405162461bcd60e51b8152602060048201526024808201527f455243313135353a206275726e20616d6f756e7420657863656564732062616c604482015263616e636560e01b6064820152608401610512565b60009283526002602090815260408085206001600160a01b038b168652909152909220910390558061158781612b37565b91505061148e565b5060006001600160a01b0316846001600160a01b0316826001600160a01b03167f4a39dc06d4c0dbc64b70af90fd698a233a518aa5d07e595d983b8c0526c8f7fb86866040516115e0929190612beb565b60405180910390a450505050565b6001600160a01b03841661164e5760405162461bcd60e51b815260206004820152602160248201527f455243313135353a206d696e7420746f20746865207a65726f206164647265736044820152607360f81b6064820152608401610512565b3361166e8160008761165f88612012565b61166888612012565b87611dbb565b60008481526002602090815260408083206001600160a01b0389168452909152812080548592906116a0908490612bd3565b909155505060408051858152602081018590526001600160a01b0380881692600092918516917fc3d58168c5ae7397731d063d5bbf3d657854427343f4c083240f7aacaa2d0f62910160405180910390a46107d58160008787878761205d565b60055460ff16156117535760405162461bcd60e51b815260206004820152601060248201527f5061757361626c653a20706175736564000000000000000000000000000000006044820152606401610512565b6005805460ff191660011790557f62e78cea01bee320cd4e420270b5ea74000d11b0c9f74754ebdbfc544b05a2586113873390565b6000610b678383612168565b816001600160a01b0316836001600160a01b031614156118085760405162461bcd60e51b815260206004820152602960248201527f455243313135353a2073657474696e6720617070726f76616c20737461747573604482015268103337b91039b2b63360b91b6064820152608401610512565b6001600160a01b03838116600081815260036020908152604080832094871680845294825291829020805460ff191686151590811790915591519182527f17307eab39ab6107e8899845ad3d59bd9653f200f220920489ca2b5937696c31910160405180910390a3505050565b6000610540825490565b6001600160a01b0384166118e35760405162461bcd60e51b815260206004820152602560248201527f455243313135353a207472616e7366657220746f20746865207a65726f206164604482015264647265737360d81b6064820152608401610512565b336118f381878761165f88612012565b60008481526002602090815260408083206001600160a01b038a168452909152902054838110156119795760405162461bcd60e51b815260206004820152602a60248201527f455243313135353a20696e73756666696369656e742062616c616e636520666f60448201526939103a3930b739b332b960b11b6064820152608401610512565b60008581526002602090815260408083206001600160a01b038b81168552925280832087850390559088168252812080548692906119b8908490612bd3565b909155505060408051868152602081018690526001600160a01b03808916928a821692918616917fc3d58168c5ae7397731d063d5bbf3d657854427343f4c083240f7aacaa2d0f62910160405180910390a4611a1882888888888861205d565b50505050505050565b6001600160a01b038316611a835760405162461bcd60e51b815260206004820152602360248201527f455243313135353a206275726e2066726f6d20746865207a65726f206164647260448201526265737360e81b6064820152608401610512565b33611ab281856000611a9487612012565b611a9d87612012565b60405180602001604052806000815250611dbb565b60008381526002602090815260408083206001600160a01b038816845290915290205482811015611b315760405162461bcd60e51b8152602060048201526024808201527f455243313135353a206275726e20616d6f756e7420657863656564732062616c604482015263616e636560e01b6064820152608401610512565b60008481526002602090815260408083206001600160a01b03898116808652918452828520888703905582518981529384018890529092908616917fc3d58168c5ae7397731d063d5bbf3d657854427343f4c083240f7aacaa2d0f62910160405180910390a45050505050565b6000818152600183016020526040812054611be557508154600181810184556000848152602080822090930184905584548482528286019093526040902091909155610540565b506000610540565b60006001600160e01b03198216635a05180f60e01b1480610540575061054082612192565b60606000611c21836002612c19565b611c2c906002612bd3565b67ffffffffffffffff811115611c4457611c44612434565b6040519080825280601f01601f191660200182016040528015611c6e576020820181803683370190505b509050600360fc1b81600081518110611c8957611c89612b0b565b60200101906001600160f81b031916908160001a905350600f60fb1b81600181518110611cb857611cb8612b0b565b60200101906001600160f81b031916908160001a9053506000611cdc846002612c19565b611ce7906001612bd3565b90505b6001811115611d6c577f303132333435363738396162636465660000000000000000000000000000000085600f1660108110611d2857611d28612b0b565b1a60f81b828281518110611d3e57611d3e612b0b565b60200101906001600160f81b031916908160001a90535060049490941c93611d6581612c38565b9050611cea565b508315610b675760405162461bcd60e51b815260206004820181905260248201527f537472696e67733a20686578206c656e67746820696e73756666696369656e746044820152606401610512565b6112bc8686868686866121c7565b6001600160a01b0384163b156112bc5760405163bc197c8160e01b81526001600160a01b0385169063bc197c8190611e0d9089908990889088908890600401612c4f565b602060405180830381600087803b158015611e2757600080fd5b505af1925050508015611e57575060408051601f3d908101601f19168201909252611e5491810190612cad565b60015b611f0d57611e63612cca565b806308c379a01415611e9d5750611e78612ce6565b80611e835750611e9f565b8060405162461bcd60e51b8152600401610512919061257e565b505b60405162461bcd60e51b815260206004820152603460248201527f455243313135353a207472616e7366657220746f206e6f6e204552433131353560448201527f526563656976657220696d706c656d656e7465720000000000000000000000006064820152608401610512565b6001600160e01b0319811663bc197c8160e01b14611a185760405162461bcd60e51b815260206004820152602860248201527f455243313135353a204552433131353552656365697665722072656a656374656044820152676420746f6b656e7360c01b6064820152608401610512565b6000828152602081815260408083206001600160a01b038516845290915290205460ff1615610566576000828152602081815260408083206001600160a01b0385168085529252808320805460ff1916905551339285917ff6391f5c32d9c69d2a47ea670b442974b53935d1edc7fd64eb21e047a839171b9190a45050565b6000610b67836001600160a01b03841661222f565b6040805160018082528183019092526060916000919060208083019080368337019050509050828160008151811061204c5761204c612b0b565b602090810291909101015292915050565b6001600160a01b0384163b156112bc5760405163f23a6e6160e01b81526001600160a01b0385169063f23a6e61906120a19089908990889088908890600401612d70565b602060405180830381600087803b1580156120bb57600080fd5b505af19250505080156120eb575060408051601f3d908101601f191682019092526120e891810190612cad565b60015b6120f757611e63612cca565b6001600160e01b0319811663f23a6e6160e01b14611a185760405162461bcd60e51b815260206004820152602860248201527f455243313135353a204552433131353552656365697665722072656a656374656044820152676420746f6b656e7360c01b6064820152608401610512565b600082600001828154811061217f5761217f612b0b565b9060005260206000200154905092915050565b60006001600160e01b03198216637965db0b60e01b148061054057506301ffc9a760e01b6001600160e01b0319831614610540565b60055460ff16156112bc5760405162461bcd60e51b815260206004820152602c60248201527f455243313135355061757361626c653a20746f6b656e207472616e736665722060448201526b1dda1a5b19481c185d5cd95960a21b6064820152608401610512565b60008181526001830160205260408120548015612318576000612253600183612db3565b855490915060009061226790600190612db3565b90508181146122cc57600086600001828154811061228757612287612b0b565b90600052602060002001549050808760000184815481106122aa576122aa612b0b565b6000918252602080832090910192909255918252600188019052604090208390555b85548690806122dd576122dd612dca565b600190038181906000526020600020016000905590558560010160008681526020019081526020016000206000905560019350505050610540565b6000915050610540565b82805461232e90612ad0565b90600052602060002090601f0160209004810192826123505760008555612396565b82601f1061236957805160ff1916838001178555612396565b82800160010185558215612396579182015b8281111561239657825182559160200191906001019061237b565b506123a29291506123a6565b5090565b5b808211156123a257600081556001016123a7565b80356001600160a01b03811681146123d257600080fd5b919050565b600080604083850312156123ea57600080fd5b6123f3836123bb565b946020939093013593505050565b6001600160e01b0319811681146108c257600080fd5b60006020828403121561242957600080fd5b8135610b6781612401565b634e487b7160e01b600052604160045260246000fd5b601f8201601f1916810167ffffffffffffffff8111828210171561247057612470612434565b6040525050565b600067ffffffffffffffff83111561249157612491612434565b6040516124a8601f8501601f19166020018261244a565b8091508381528484840111156124bd57600080fd5b83836020830137600060208583010152509392505050565b6000602082840312156124e757600080fd5b813567ffffffffffffffff8111156124fe57600080fd5b8201601f8101841361250f57600080fd5b61251e84823560208401612477565b949350505050565b60005b83811015612541578181015183820152602001612529565b838111156107345750506000910152565b6000815180845261256a816020860160208601612526565b601f01601f19169290920160200192915050565b602081526000610b676020830184612552565b6000602082840312156125a357600080fd5b5035919050565b600067ffffffffffffffff8211156125c4576125c4612434565b5060051b60200190565b600082601f8301126125df57600080fd5b813560206125ec826125aa565b6040516125f9828261244a565b83815260059390931b850182019282810191508684111561261957600080fd5b8286015b84811015612634578035835291830191830161261d565b509695505050505050565b600082601f83011261265057600080fd5b610b6783833560208501612477565b6000806000806080858703121561267557600080fd5b61267e856123bb565b9350602085013567ffffffffffffffff8082111561269b57600080fd5b6126a7888389016125ce565b945060408701359150808211156126bd57600080fd5b6126c9888389016125ce565b935060608701359150808211156126df57600080fd5b506126ec8782880161263f565b91505092959194509250565b600080600080600060a0868803121561271057600080fd5b612719866123bb565b9450612727602087016123bb565b9350604086013567ffffffffffffffff8082111561274457600080fd5b61275089838a016125ce565b9450606088013591508082111561276657600080fd5b61277289838a016125ce565b9350608088013591508082111561278857600080fd5b506127958882890161263f565b9150509295509295909350565b600080604083850312156127b557600080fd5b823591506127c5602084016123bb565b90509250929050565b600080604083850312156127e157600080fd5b823567ffffffffffffffff808211156127f957600080fd5b818501915085601f83011261280d57600080fd5b8135602061281a826125aa565b604051612827828261244a565b83815260059390931b850182019282810191508984111561284757600080fd5b948201945b8386101561286c5761285d866123bb565b8252948201949082019061284c565b9650508601359250508082111561288257600080fd5b5061288f858286016125ce565b9150509250929050565b600081518084526020808501945080840160005b838110156128c9578151875295820195908201906001016128ad565b509495945050505050565b602081526000610b676020830184612899565b6000806000606084860312156128fc57600080fd5b612905846123bb565b9250602084013567ffffffffffffffff8082111561292257600080fd5b61292e878388016125ce565b9350604086013591508082111561294457600080fd5b50612951868287016125ce565b9150509250925092565b6000806000806080858703121561297157600080fd5b61297a856123bb565b93506020850135925060408501359150606085013567ffffffffffffffff8111156129a457600080fd5b6126ec8782880161263f565b600080604083850312156129c357600080fd5b50508035926020909101359150565b600080604083850312156129e557600080fd5b6129ee836123bb565b915060208301358015158114612a0357600080fd5b809150509250929050565b60008060408385031215612a2157600080fd5b612a2a836123bb565b91506127c5602084016123bb565b600080600080600060a08688031215612a5057600080fd5b612a59866123bb565b9450612a67602087016123bb565b93506040860135925060608601359150608086013567ffffffffffffffff811115612a9157600080fd5b6127958882890161263f565b600080600060608486031215612ab257600080fd5b612abb846123bb565b95602085013595506040909401359392505050565b600181811c90821680612ae457607f821691505b60208210811415612b0557634e487b7160e01b600052602260045260246000fd5b50919050565b634e487b7160e01b600052603260045260246000fd5b634e487b7160e01b600052601160045260246000fd5b6000600019821415612b4b57612b4b612b21565b5060010190565b7f416363657373436f6e74726f6c3a206163636f756e7420000000000000000000815260008351612b8a816017850160208801612526565b7f206973206d697373696e6720726f6c65200000000000000000000000000000006017918401918201528351612bc7816028840160208801612526565b01602801949350505050565b60008219821115612be657612be6612b21565b500190565b604081526000612bfe6040830185612899565b8281036020840152612c108185612899565b95945050505050565b6000816000190483118215151615612c3357612c33612b21565b500290565b600081612c4757612c47612b21565b506000190190565b60006001600160a01b03808816835280871660208401525060a06040830152612c7b60a0830186612899565b8281036060840152612c8d8186612899565b90508281036080840152612ca18185612552565b98975050505050505050565b600060208284031215612cbf57600080fd5b8151610b6781612401565b600060033d1115612ce35760046000803e5060005160e01c5b90565b600060443d1015612cf45790565b6040516003193d81016004833e81513d67ffffffffffffffff8160248401118184111715612d2457505050505090565b8285019150815181811115612d3c5750505050505090565b843d8701016020828501011115612d565750505050505090565b612d656020828601018761244a565b509095945050505050565b60006001600160a01b03808816835280871660208401525084604083015283606083015260a06080830152612da860a0830184612552565b979650505050505050565b600082821015612dc557612dc5612b21565b500390565b634e487b7160e01b600052603160045260246000fdfea2646970667358221220f664be93417e241267167a2e854b62cbaac7c9a92e54b79d817aa74ef064021464736f6c6343000809003365d7a28e3265b37a6474929f336521b332c1681b933f6cb9f3376673440d862a9f2df0fed2c77648de5860a4cc508cd0818c85b8b8a1ab4ceeef8d981c8956a668747470733a2f2f6d61726b6574706c6163652d6e66742e73332e75732d776573742d312e616d617a6f6e6177732e636f6d2f6e66742f746f6b656e68747470733a2f2f6d61726b6574706c6163652d6e66742e73332e75732d776573742d312e616d617a6f6e6177732e636f6d2f636f6e74726163742f636f6e74726163742e6a736f6e",
  "linkReferences": {},
  "deployedLinkReferences": {}
}