{
  "_format": "hh-sol-artifact-1",
  "contractName": "TokenStorage",
  "sourceName": "contracts/Storage.sol",
  "abi": [
    {
      "inputs": [
        {
          "internalType": "uint256",
          "name": "_platformFee",
          "type": "uint256"
        },
        {
          "internalType": "address",
          "name": "_feeAddress",
          "type": "address"
        }
      ],
      "stateMutability": "nonpayable",
      "type": "constructor"
    },
    {
      "anonymous": false,
      "inputs": [
        {
          "indexed": true,
          "internalType": "bytes32",
          "name": "role",
          "type": "bytes32"
        },
        {
          "indexed": true,
          "internalType": "bytes32",
          "name": "previousAdminRole",
          "type": "bytes32"
        },
        {
          "indexed": true,
          "internalType": "bytes32",
          "name": "newAdminRole",
          "type": "bytes32"
        }
      ],
      "name": "RoleAdminChanged",
      "type": "event"
    },
    {
      "anonymous": false,
      "inputs": [
        {
          "indexed": true,
          "internalType": "bytes32",
          "name": "role",
          "type": "bytes32"
        },
        {
          "indexed": true,
          "internalType": "address",
          "name": "account",
          "type": "address"
        },
        {
          "indexed": true,
          "internalType": "address",
          "name": "sender",
          "type": "address"
        }
      ],
      "name": "RoleGranted",
      "type": "event"
    },
    {
      "anonymous": false,
      "inputs": [
        {
          "indexed": true,
          "internalType": "bytes32",
          "name": "role",
          "type": "bytes32"
        },
        {
          "indexed": true,
          "internalType": "address",
          "name": "account",
          "type": "address"
        },
        {
          "indexed": true,
          "internalType": "address",
          "name": "sender",
          "type": "address"
        }
      ],
      "name": "RoleRevoked",
      "type": "event"
    },
    {
      "inputs": [],
      "name": "DEFAULT_ADMIN_ROLE",
      "outputs": [
        {
          "internalType": "bytes32",
          "name": "",
          "type": "bytes32"
        }
      ],
      "stateMutability": "view",
      "type": "function"
    },
    {
      "inputs": [],
      "name": "STORAGE_ADMIN_ROLE",
      "outputs": [
        {
          "internalType": "bytes32",
          "name": "",
          "type": "bytes32"
        }
      ],
      "stateMutability": "view",
      "type": "function"
    },
    {
      "inputs": [
        {
          "internalType": "address",
          "name": "_nftAddress",
          "type": "address"
        },
        {
          "internalType": "uint256",
          "name": "_tokenId",
          "type": "uint256"
        },
        {
          "internalType": "uint256",
          "name": "_itemId",
          "type": "uint256"
        },
        {
          "internalType": "uint256",
          "name": "_amount",
          "type": "uint256"
        },
        {
          "internalType": "uint256",
          "name": "_price",
          "type": "uint256"
        },
        {
          "internalType": "address",
          "name": "_owner",
          "type": "address"
        },
        {
          "internalType": "address",
          "name": "_buyer",
          "type": "address"
        },
        {
          "internalType": "uint256",
          "name": "_timestamp",
          "type": "uint256"
        }
      ],
      "name": "buyToken",
      "outputs": [],
      "stateMutability": "nonpayable",
      "type": "function"
    },
    {
      "inputs": [],
      "name": "feeAddress",
      "outputs": [
        {
          "internalType": "address",
          "name": "",
          "type": "address"
        }
      ],
      "stateMutability": "view",
      "type": "function"
    },
    {
      "inputs": [
        {
          "internalType": "address",
          "name": "_nftAddress",
          "type": "address"
        },
        {
          "internalType": "uint256",
          "name": "_tokenId",
          "type": "uint256"
        }
      ],
      "name": "getCreator",
      "outputs": [
        {
          "internalType": "address",
          "name": "creator",
          "type": "address"
        }
      ],
      "stateMutability": "view",
      "type": "function"
    },
    {
      "inputs": [
        {
          "internalType": "address",
          "name": "_nftAddress",
          "type": "address"
        },
        {
          "internalType": "uint256",
          "name": "_tokenId",
          "type": "uint256"
        },
        {
          "internalType": "uint256",
          "name": "_itemId",
          "type": "uint256"
        }
      ],
      "name": "getListedToken",
      "outputs": [
        {
          "internalType": "uint256",
          "name": "price",
          "type": "uint256"
        },
        {
          "internalType": "uint256",
          "name": "amount",
          "type": "uint256"
        },
        {
          "internalType": "uint256",
          "name": "royalty",
          "type": "uint256"
        },
        {
          "internalType": "address",
          "name": "owner",
          "type": "address"
        },
        {
          "internalType": "address",
          "name": "creator",
          "type": "address"
        },
        {
          "internalType": "bool",
          "name": "tradable",
          "type": "bool"
        },
        {
          "internalType": "uint256",
          "name": "timestamp",
          "type": "uint256"
        },
        {
          "internalType": "uint256",
          "name": "standard",
          "type": "uint256"
        }
      ],
      "stateMutability": "view",
      "type": "function"
    },
    {
      "inputs": [
        {
          "internalType": "address",
          "name": "_nftAddress",
          "type": "address"
        },
        {
          "internalType": "uint256",
          "name": "_tokenId",
          "type": "uint256"
        }
      ],
      "name": "getMintedToken",
      "outputs": [
        {
          "components": [
            {
              "internalType": "address",
              "name": "nftAddress",
              "type": "address"
            },
            {
              "internalType": "uint256",
              "name": "tokenId",
              "type": "uint256"
            },
            {
              "internalType": "uint256",
              "name": "amount",
              "type": "uint256"
            },
            {
              "internalType": "address",
              "name": "creator",
              "type": "address"
            },
            {
              "internalType": "uint256",
              "name": "royalty",
              "type": "uint256"
            },
            {
              "internalType": "uint256",
              "name": "standard",
              "type": "uint256"
            },
            {
              "internalType": "uint256",
              "name": "timestamp",
              "type": "uint256"
            }
          ],
          "internalType": "struct TokenStorage.MintedTokens",
          "name": "",
          "type": "tuple"
        }
      ],
      "stateMutability": "view",
      "type": "function"
    },
    {
      "inputs": [
        {
          "internalType": "bytes32",
          "name": "role",
          "type": "bytes32"
        }
      ],
      "name": "getRoleAdmin",
      "outputs": [
        {
          "internalType": "bytes32",
          "name": "",
          "type": "bytes32"
        }
      ],
      "stateMutability": "view",
      "type": "function"
    },
    {
      "inputs": [
        {
          "internalType": "address",
          "name": "_nftAddress",
          "type": "address"
        },
        {
          "internalType": "uint256",
          "name": "_tokenId",
          "type": "uint256"
        }
      ],
      "name": "getRoyalty",
      "outputs": [
        {
          "internalType": "uint256",
          "name": "royalty",
          "type": "uint256"
        }
      ],
      "stateMutability": "view",
      "type": "function"
    },
    {
      "inputs": [
        {
          "internalType": "address",
          "name": "_nftAddress",
          "type": "address"
        },
        {
          "internalType": "uint256",
          "name": "_tokenId",
          "type": "uint256"
        }
      ],
      "name": "getTokenListingCount",
      "outputs": [
        {
          "internalType": "uint256",
          "name": "itemId",
          "type": "uint256"
        }
      ],
      "stateMutability": "view",
      "type": "function"
    },
    {
      "inputs": [
        {
          "internalType": "bytes32",
          "name": "role",
          "type": "bytes32"
        },
        {
          "internalType": "address",
          "name": "account",
          "type": "address"
        }
      ],
      "name": "grantRole",
      "outputs": [],
      "stateMutability": "nonpayable",
      "type": "function"
    },
    {
      "inputs": [
        {
          "internalType": "bytes32",
          "name": "role",
          "type": "bytes32"
        },
        {
          "internalType": "address",
          "name": "account",
          "type": "address"
        }
      ],
      "name": "hasRole",
      "outputs": [
        {
          "internalType": "bool",
          "name": "",
          "type": "bool"
        }
      ],
      "stateMutability": "view",
      "type": "function"
    },
    {
      "inputs": [
        {
          "internalType": "address",
          "name": "_nftAddress",
          "type": "address"
        },
        {
          "internalType": "uint256",
          "name": "_tokenId",
          "type": "uint256"
        }
      ],
      "name": "isTokenMinted",
      "outputs": [
        {
          "internalType": "bool",
          "name": "available",
          "type": "bool"
        }
      ],
      "stateMutability": "view",
      "type": "function"
    },
    {
      "inputs": [
        {
          "internalType": "address",
          "name": "_nftAddress",
          "type": "address"
        },
        {
          "internalType": "uint256",
          "name": "_tokenId",
          "type": "uint256"
        },
        {
          "internalType": "uint256",
          "name": "_itemId",
          "type": "uint256"
        },
        {
          "internalType": "uint256",
          "name": "_amount",
          "type": "uint256"
        },
        {
          "internalType": "uint256",
          "name": "_price",
          "type": "uint256"
        },
        {
          "internalType": "address",
          "name": "_owner",
          "type": "address"
        },
        {
          "internalType": "uint256",
          "name": "_timestamp",
          "type": "uint256"
        }
      ],
      "name": "listToken",
      "outputs": [],
      "stateMutability": "nonpayable",
      "type": "function"
    },
    {
      "inputs": [
        {
          "internalType": "address",
          "name": "_nftAddress",
          "type": "address"
        },
        {
          "internalType": "uint256",
          "name": "_tokenId",
          "type": "uint256"
        },
        {
          "internalType": "uint256",
          "name": "_amount",
          "type": "uint256"
        },
        {
          "internalType": "address",
          "name": "_creator",
          "type": "address"
        },
        {
          "internalType": "uint256",
          "name": "_royalty",
          "type": "uint256"
        },
        {
          "internalType": "uint256",
          "name": "_standard",
          "type": "uint256"
        },
        {
          "internalType": "uint256",
          "name": "_timestamp",
          "type": "uint256"
        }
      ],
      "name": "mintToken",
      "outputs": [],
      "stateMutability": "nonpayable",
      "type": "function"
    },
    {
      "inputs": [],
      "name": "platformFee",
      "outputs": [
        {
          "internalType": "uint256",
          "name": "",
          "type": "uint256"
        }
      ],
      "stateMutability": "view",
      "type": "function"
    },
    {
      "inputs": [
        {
          "internalType": "bytes32",
          "name": "role",
          "type": "bytes32"
        },
        {
          "internalType": "address",
          "name": "account",
          "type": "address"
        }
      ],
      "name": "renounceRole",
      "outputs": [],
      "stateMutability": "nonpayable",
      "type": "function"
    },
    {
      "inputs": [
        {
          "internalType": "bytes32",
          "name": "role",
          "type": "bytes32"
        },
        {
          "internalType": "address",
          "name": "account",
          "type": "address"
        }
      ],
      "name": "revokeRole",
      "outputs": [],
      "stateMutability": "nonpayable",
      "type": "function"
    },
    {
      "inputs": [
        {
          "internalType": "address",
          "name": "_feeAddress",
          "type": "address"
        }
      ],
      "name": "setFeeAddress",
      "outputs": [],
      "stateMutability": "nonpayable",
      "type": "function"
    },
    {
      "inputs": [
        {
          "internalType": "uint256",
          "name": "_newPlatformFee",
          "type": "uint256"
        }
      ],
      "name": "setPlatformFee",
      "outputs": [],
      "stateMutability": "nonpayable",
      "type": "function"
    },
    {
      "inputs": [
        {
          "internalType": "bytes4",
          "name": "interfaceId",
          "type": "bytes4"
        }
      ],
      "name": "supportsInterface",
      "outputs": [
        {
          "internalType": "bool",
          "name": "",
          "type": "bool"
        }
      ],
      "stateMutability": "view",
      "type": "function"
    }
  ],
  "bytecode": "0x60806040523480156200001157600080fd5b506040516200165938038062001659833981016040819052620000349162000146565b6200004160003362000096565b6200006d7fc03db245cc70ce2f326895d3fd3d48dc3fd51b4a8018a792cebeaa2b40460eb23362000096565b600180546001600160a01b0319166001600160a01b039290921691909117905560025562000185565b620000a28282620000a6565b5050565b6000828152602081815260408083206001600160a01b038516845290915290205460ff16620000a2576000828152602081815260408083206001600160a01b03851684529091529020805460ff19166001179055620001023390565b6001600160a01b0316816001600160a01b0316837f2f8788117e7eff1d82e926ec794901d17c78024a50270940304540a733656f0d60405160405180910390a45050565b600080604083850312156200015a57600080fd5b825160208401519092506001600160a01b03811681146200017a57600080fd5b809150509250929050565b6114c480620001956000396000f3fe608060405234801561001057600080fd5b50600436106101475760003560e01c806367aa9b67116100c85780638705fcd41161008c578063a217fddf11610066578063a217fddf146104ae578063a3712563146104b6578063d547741f146104c957600080fd5b80638705fcd41461045157806388f653511461046457806391d148541461047757600080fd5b806367aa9b67146102d35780636e44a72f146103a557806374869089146103de5780637cd7efc5146104175780637f92b33b1461042a57600080fd5b806336568abe1161010f57806336568abe146101d657806341275358146101e957806346bf231d14610214578063472bf4471461028a5780635d7728981461029d57600080fd5b806301ffc9a71461014c57806312e8e2c314610174578063248a9ca31461018957806326232a2e146101ba5780632f2ff15d146101c3575b600080fd5b61015f61015a3660046110ad565b6104dc565b60405190151581526020015b60405180910390f35b6101876101823660046110d7565b610513565b005b6101ac6101973660046110d7565b60009081526020819052604090206001015490565b60405190815260200161016b565b6101ac60025481565b6101876101d136600461110c565b610593565b6101876101e436600461110c565b6105be565b6001546101fc906001600160a01b031681565b6040516001600160a01b03909116815260200161016b565b610227610222366004611138565b61064a565b60405161016b9190600060e0820190506001600160a01b038084511683526020840151602084015260408401516040840152806060850151166060840152506080830151608083015260a083015160a083015260c083015160c083015292915050565b61015f610298366004611138565b610715565b6101ac6102ab366004611138565b6001600160a01b03919091166000908152600360209081526040808320938352929052205490565b61035e6102e1366004611162565b6001600160a01b0392831660008181526004602081815260408084208785528252808420808401546003808301546005938401549888528386528488209a885299855283872098875297909352932091820154948201546002830154929093015492979196909585821695911693600160a01b90910460ff169291565b604080519889526020890197909752958701949094526001600160a01b03928316606087015291166080850152151560a084015260c083015260e08201526101000161016b565b6101ac6103b3366004611138565b6001600160a01b03919091166000908152600460208181526040808420948452939052919020015490565b6101fc6103ec366004611138565b6001600160a01b03918216600090815260046020908152604080832093835292905220600301541690565b610187610425366004611195565b610750565b6101ac7fc03db245cc70ce2f326895d3fd3d48dc3fd51b4a8018a792cebeaa2b40460eb281565b61018761045f366004611209565b610b2a565b610187610472366004611224565b610bc2565b61015f61048536600461110c565b6000918252602082815260408084206001600160a01b0393909316845291905290205460ff1690565b6101ac600081565b6101876104c4366004611285565b610c5e565b6101876104d736600461110c565b610d3c565b60006001600160e01b03198216637965db0b60e01b148061050d57506301ffc9a760e01b6001600160e01b03198316145b92915050565b61053d7fc03db245cc70ce2f326895d3fd3d48dc3fd51b4a8018a792cebeaa2b40460eb233610485565b61058e5760405162461bcd60e51b815260206004820152601c60248201527f4d75737420686176652073746f726167652061646d696e20726f6c650000000060448201526064015b60405180910390fd5b600255565b6000828152602081905260409020600101546105af8133610d62565b6105b98383610de0565b505050565b6001600160a01b038116331461063c5760405162461bcd60e51b815260206004820152602f60248201527f416363657373436f6e74726f6c3a2063616e206f6e6c792072656e6f756e636560448201527f20726f6c657320666f722073656c6600000000000000000000000000000000006064820152608401610585565b6106468282610e7e565b5050565b61069c6040518060e0016040528060006001600160a01b03168152602001600081526020016000815260200160006001600160a01b031681526020016000815260200160008152602001600081525090565b506001600160a01b03918216600090815260046020818152604080842094845293815291839020835160e08101855281548616815260018201549381019390935260028101549383019390935260038301549093166060820152918101546080830152600581015460a08301526006015460c082015290565b6001600160a01b03821660009081526004602090815260408083208484529091528120600201546107485750600061050d565b50600161050d565b7fc03db245cc70ce2f326895d3fd3d48dc3fd51b4a8018a792cebeaa2b40460eb261077b8133610d62565b88600660008b6001600160a01b03166001600160a01b0316815260200190815260200160002060008a8152602001908152602001600020600089815260200190815260200160002060000160006101000a8154816001600160a01b0302191690836001600160a01b0316021790555087600660008b6001600160a01b03166001600160a01b0316815260200190815260200160002060008a815260200190815260200160002060008981526020019081526020016000206001018190555086600660008b6001600160a01b03166001600160a01b0316815260200190815260200160002060008a815260200190815260200160002060008981526020019081526020016000206002018190555085600660008b6001600160a01b03166001600160a01b0316815260200190815260200160002060008a815260200190815260200160002060008981526020019081526020016000206003018190555084600660008b6001600160a01b03166001600160a01b0316815260200190815260200160002060008a815260200190815260200160002060008981526020019081526020016000206004018190555083600660008b6001600160a01b03166001600160a01b0316815260200190815260200160002060008a8152602001908152602001600020600089815260200190815260200160002060050160006101000a8154816001600160a01b0302191690836001600160a01b0316021790555082600660008b6001600160a01b03166001600160a01b0316815260200190815260200160002060008a8152602001908152602001600020600089815260200190815260200160002060060160006101000a8154816001600160a01b0302191690836001600160a01b0316021790555081600660008b6001600160a01b03166001600160a01b0316815260200190815260200160002060008a815260200190815260200160002060008981526020019081526020016000206007018190555085600560008b6001600160a01b03166001600160a01b0316815260200190815260200160002060008a815260200190815260200160002060008981526020019081526020016000206002016000828254610aad91906112fe565b90915550506001600160a01b03891660009081526005602090815260408083208b845282528083208a8452909152902060020154610b1f576001600160a01b03891660009081526005602090815260408083208b845282528083208a84529091529020600401805460ff60a01b191690555b505050505050505050565b610b547fc03db245cc70ce2f326895d3fd3d48dc3fd51b4a8018a792cebeaa2b40460eb233610485565b610ba05760405162461bcd60e51b815260206004820152601c60248201527f4d75737420686176652073746f726167652061646d696e20726f6c65000000006044820152606401610585565b600180546001600160a01b0319166001600160a01b0392909216919091179055565b7fc03db245cc70ce2f326895d3fd3d48dc3fd51b4a8018a792cebeaa2b40460eb2610bed8133610d62565b506001600160a01b0396871660008181526004602081815260408084208b855290915290912080546001600160a01b03199081169093178155600181019890985560028801969096556003870180549590981694169390931790955591830191909155600582019290925560060155565b7fc03db245cc70ce2f326895d3fd3d48dc3fd51b4a8018a792cebeaa2b40460eb2610c898133610d62565b6001600160a01b0380891660008181526005602081815260408084208d855282528084208c8552825280842080546001600160a01b03191686178155600181018e9055600281018c905560038082018c905560048201805474ffffffffffffffffffffffffffffffffffffffffff1916988c1698909817600160a01b179097559092018790559282529282528281208a8252909152908120805491610d2d83611315565b91905055505050505050505050565b600082815260208190526040902060010154610d588133610d62565b6105b98383610e7e565b6000828152602081815260408083206001600160a01b038516845290915290205460ff1661064657610d9e816001600160a01b03166014610efd565b610da9836020610efd565b604051602001610dba929190611360565b60408051601f198184030181529082905262461bcd60e51b8252610585916004016113e1565b6000828152602081815260408083206001600160a01b038516845290915290205460ff16610646576000828152602081815260408083206001600160a01b03851684529091529020805460ff19166001179055610e3a3390565b6001600160a01b0316816001600160a01b0316837f2f8788117e7eff1d82e926ec794901d17c78024a50270940304540a733656f0d60405160405180910390a45050565b6000828152602081815260408083206001600160a01b038516845290915290205460ff1615610646576000828152602081815260408083206001600160a01b0385168085529252808320805460ff1916905551339285917ff6391f5c32d9c69d2a47ea670b442974b53935d1edc7fd64eb21e047a839171b9190a45050565b60606000610f0c836002611414565b610f17906002611433565b67ffffffffffffffff811115610f2f57610f2f61144b565b6040519080825280601f01601f191660200182016040528015610f59576020820181803683370190505b509050600360fc1b81600081518110610f7457610f74611461565b60200101906001600160f81b031916908160001a905350600f60fb1b81600181518110610fa357610fa3611461565b60200101906001600160f81b031916908160001a9053506000610fc7846002611414565b610fd2906001611433565b90505b6001811115611057577f303132333435363738396162636465660000000000000000000000000000000085600f166010811061101357611013611461565b1a60f81b82828151811061102957611029611461565b60200101906001600160f81b031916908160001a90535060049490941c9361105081611477565b9050610fd5565b5083156110a65760405162461bcd60e51b815260206004820181905260248201527f537472696e67733a20686578206c656e67746820696e73756666696369656e746044820152606401610585565b9392505050565b6000602082840312156110bf57600080fd5b81356001600160e01b0319811681146110a657600080fd5b6000602082840312156110e957600080fd5b5035919050565b80356001600160a01b038116811461110757600080fd5b919050565b6000806040838503121561111f57600080fd5b8235915061112f602084016110f0565b90509250929050565b6000806040838503121561114b57600080fd5b611154836110f0565b946020939093013593505050565b60008060006060848603121561117757600080fd5b611180846110f0565b95602085013595506040909401359392505050565b600080600080600080600080610100898b0312156111b257600080fd5b6111bb896110f0565b9750602089013596506040890135955060608901359450608089013593506111e560a08a016110f0565b92506111f360c08a016110f0565b915060e089013590509295985092959890939650565b60006020828403121561121b57600080fd5b6110a6826110f0565b600080600080600080600060e0888a03121561123f57600080fd5b611248886110f0565b96506020880135955060408801359450611264606089016110f0565b9699959850939660808101359560a0820135955060c0909101359350915050565b600080600080600080600060e0888a0312156112a057600080fd5b6112a9886110f0565b9650602088013595506040880135945060608801359350608088013592506112d360a089016110f0565b915060c0880135905092959891949750929550565b634e487b7160e01b600052601160045260246000fd5b600082821015611310576113106112e8565b500390565b6000600019821415611329576113296112e8565b5060010190565b60005b8381101561134b578181015183820152602001611333565b8381111561135a576000848401525b50505050565b7f416363657373436f6e74726f6c3a206163636f756e7420000000000000000000815260008351611398816017850160208801611330565b7f206973206d697373696e6720726f6c652000000000000000000000000000000060179184019182015283516113d5816028840160208801611330565b01602801949350505050565b6020815260008251806020840152611400816040850160208701611330565b601f01601f19169190910160400192915050565b600081600019048311821515161561142e5761142e6112e8565b500290565b60008219821115611446576114466112e8565b500190565b634e487b7160e01b600052604160045260246000fd5b634e487b7160e01b600052603260045260246000fd5b600081611486576114866112e8565b50600019019056fea26469706673582212209742971efa5d0af9b9c9b4553ba3982bbf40b47dc491fb6db5788223e18bde2b64736f6c63430008090033",
  "linkReferences": {},
  "deployedLinkReferences": {}
}