{
  "_format": "hh-sol-artifact-1",
  "contractName": "TokenStorage",
  "sourceName": "contracts/Storage.sol",
  "abi": [
    {
      "inputs": [
        {
          "internalType": "uint256",
          "name": "_platformFee",
          "type": "uint256"
        },
        {
          "internalType": "address",
          "name": "_feeAddress",
          "type": "address"
        }
      ],
      "stateMutability": "nonpayable",
      "type": "constructor"
    },
    {
      "anonymous": false,
      "inputs": [
        {
          "indexed": true,
          "internalType": "bytes32",
          "name": "role",
          "type": "bytes32"
        },
        {
          "indexed": true,
          "internalType": "bytes32",
          "name": "previousAdminRole",
          "type": "bytes32"
        },
        {
          "indexed": true,
          "internalType": "bytes32",
          "name": "newAdminRole",
          "type": "bytes32"
        }
      ],
      "name": "RoleAdminChanged",
      "type": "event"
    },
    {
      "anonymous": false,
      "inputs": [
        {
          "indexed": true,
          "internalType": "bytes32",
          "name": "role",
          "type": "bytes32"
        },
        {
          "indexed": true,
          "internalType": "address",
          "name": "account",
          "type": "address"
        },
        {
          "indexed": true,
          "internalType": "address",
          "name": "sender",
          "type": "address"
        }
      ],
      "name": "RoleGranted",
      "type": "event"
    },
    {
      "anonymous": false,
      "inputs": [
        {
          "indexed": true,
          "internalType": "bytes32",
          "name": "role",
          "type": "bytes32"
        },
        {
          "indexed": true,
          "internalType": "address",
          "name": "account",
          "type": "address"
        },
        {
          "indexed": true,
          "internalType": "address",
          "name": "sender",
          "type": "address"
        }
      ],
      "name": "RoleRevoked",
      "type": "event"
    },
    {
      "inputs": [],
      "name": "DEFAULT_ADMIN_ROLE",
      "outputs": [
        {
          "internalType": "bytes32",
          "name": "",
          "type": "bytes32"
        }
      ],
      "stateMutability": "view",
      "type": "function"
    },
    {
      "inputs": [],
      "name": "STORAGE_ADMIN_ROLE",
      "outputs": [
        {
          "internalType": "bytes32",
          "name": "",
          "type": "bytes32"
        }
      ],
      "stateMutability": "view",
      "type": "function"
    },
    {
      "inputs": [
        {
          "internalType": "address",
          "name": "_nftAddress",
          "type": "address"
        },
        {
          "internalType": "uint256",
          "name": "_tokenId",
          "type": "uint256"
        },
        {
          "internalType": "uint256",
          "name": "_itemId",
          "type": "uint256"
        },
        {
          "internalType": "uint256",
          "name": "_amount",
          "type": "uint256"
        },
        {
          "internalType": "uint256",
          "name": "_price",
          "type": "uint256"
        },
        {
          "internalType": "address",
          "name": "_owner",
          "type": "address"
        },
        {
          "internalType": "address",
          "name": "_buyer",
          "type": "address"
        },
        {
          "internalType": "uint256",
          "name": "_timestamp",
          "type": "uint256"
        }
      ],
      "name": "buyToken",
      "outputs": [],
      "stateMutability": "nonpayable",
      "type": "function"
    },
    {
      "inputs": [],
      "name": "feeAddress",
      "outputs": [
        {
          "internalType": "address",
          "name": "",
          "type": "address"
        }
      ],
      "stateMutability": "view",
      "type": "function"
    },
    {
      "inputs": [
        {
          "internalType": "address",
          "name": "_nftAddress",
          "type": "address"
        },
        {
          "internalType": "uint256",
          "name": "_tokenId",
          "type": "uint256"
        },
        {
          "internalType": "uint256",
          "name": "_itemId",
          "type": "uint256"
        }
      ],
      "name": "getBoughtToken",
      "outputs": [
        {
          "components": [
            {
              "internalType": "address",
              "name": "nftAddress",
              "type": "address"
            },
            {
              "internalType": "uint256",
              "name": "tokenId",
              "type": "uint256"
            },
            {
              "internalType": "uint256",
              "name": "itemId",
              "type": "uint256"
            },
            {
              "internalType": "uint256",
              "name": "amount",
              "type": "uint256"
            },
            {
              "internalType": "uint256",
              "name": "price",
              "type": "uint256"
            },
            {
              "internalType": "address",
              "name": "owner",
              "type": "address"
            },
            {
              "internalType": "address",
              "name": "buyer",
              "type": "address"
            },
            {
              "internalType": "uint256",
              "name": "timestamp",
              "type": "uint256"
            }
          ],
          "internalType": "struct TokenStorage.BoughtToken",
          "name": "",
          "type": "tuple"
        }
      ],
      "stateMutability": "view",
      "type": "function"
    },
    {
      "inputs": [
        {
          "internalType": "address",
          "name": "_nftAddress",
          "type": "address"
        },
        {
          "internalType": "uint256",
          "name": "_tokenId",
          "type": "uint256"
        }
      ],
      "name": "getCreator",
      "outputs": [
        {
          "internalType": "address",
          "name": "creator",
          "type": "address"
        }
      ],
      "stateMutability": "view",
      "type": "function"
    },
    {
      "inputs": [
        {
          "internalType": "address",
          "name": "_nftAddress",
          "type": "address"
        },
        {
          "internalType": "uint256",
          "name": "_tokenId",
          "type": "uint256"
        },
        {
          "internalType": "uint256",
          "name": "_itemId",
          "type": "uint256"
        }
      ],
      "name": "getListedToken",
      "outputs": [
        {
          "internalType": "uint256",
          "name": "price",
          "type": "uint256"
        },
        {
          "internalType": "uint256",
          "name": "amount",
          "type": "uint256"
        },
        {
          "internalType": "uint256",
          "name": "royalty",
          "type": "uint256"
        },
        {
          "internalType": "address",
          "name": "owner",
          "type": "address"
        },
        {
          "internalType": "address",
          "name": "creator",
          "type": "address"
        },
        {
          "internalType": "bool",
          "name": "tradable",
          "type": "bool"
        },
        {
          "internalType": "uint256",
          "name": "timestamp",
          "type": "uint256"
        },
        {
          "internalType": "uint256",
          "name": "standard",
          "type": "uint256"
        }
      ],
      "stateMutability": "view",
      "type": "function"
    },
    {
      "inputs": [
        {
          "internalType": "address",
          "name": "_nftAddress",
          "type": "address"
        },
        {
          "internalType": "uint256",
          "name": "_tokenId",
          "type": "uint256"
        }
      ],
      "name": "getMintedToken",
      "outputs": [
        {
          "components": [
            {
              "internalType": "address",
              "name": "nftAddress",
              "type": "address"
            },
            {
              "internalType": "uint256",
              "name": "tokenId",
              "type": "uint256"
            },
            {
              "internalType": "uint256",
              "name": "amount",
              "type": "uint256"
            },
            {
              "internalType": "address",
              "name": "creator",
              "type": "address"
            },
            {
              "internalType": "uint256",
              "name": "royalty",
              "type": "uint256"
            },
            {
              "internalType": "uint256",
              "name": "standard",
              "type": "uint256"
            },
            {
              "internalType": "uint256",
              "name": "timestamp",
              "type": "uint256"
            }
          ],
          "internalType": "struct TokenStorage.MintedTokens",
          "name": "",
          "type": "tuple"
        }
      ],
      "stateMutability": "view",
      "type": "function"
    },
    {
      "inputs": [
        {
          "internalType": "bytes32",
          "name": "role",
          "type": "bytes32"
        }
      ],
      "name": "getRoleAdmin",
      "outputs": [
        {
          "internalType": "bytes32",
          "name": "",
          "type": "bytes32"
        }
      ],
      "stateMutability": "view",
      "type": "function"
    },
    {
      "inputs": [
        {
          "internalType": "address",
          "name": "_nftAddress",
          "type": "address"
        },
        {
          "internalType": "uint256",
          "name": "_tokenId",
          "type": "uint256"
        }
      ],
      "name": "getRoyalty",
      "outputs": [
        {
          "internalType": "uint256",
          "name": "royalty",
          "type": "uint256"
        }
      ],
      "stateMutability": "view",
      "type": "function"
    },
    {
      "inputs": [
        {
          "internalType": "address",
          "name": "_nftAddress",
          "type": "address"
        },
        {
          "internalType": "uint256",
          "name": "_tokenId",
          "type": "uint256"
        }
      ],
      "name": "getTokenListingCount",
      "outputs": [
        {
          "internalType": "uint256",
          "name": "itemId",
          "type": "uint256"
        }
      ],
      "stateMutability": "view",
      "type": "function"
    },
    {
      "inputs": [
        {
          "internalType": "bytes32",
          "name": "role",
          "type": "bytes32"
        },
        {
          "internalType": "address",
          "name": "account",
          "type": "address"
        }
      ],
      "name": "grantRole",
      "outputs": [],
      "stateMutability": "nonpayable",
      "type": "function"
    },
    {
      "inputs": [
        {
          "internalType": "bytes32",
          "name": "role",
          "type": "bytes32"
        },
        {
          "internalType": "address",
          "name": "account",
          "type": "address"
        }
      ],
      "name": "hasRole",
      "outputs": [
        {
          "internalType": "bool",
          "name": "",
          "type": "bool"
        }
      ],
      "stateMutability": "view",
      "type": "function"
    },
    {
      "inputs": [
        {
          "internalType": "address",
          "name": "_nftAddress",
          "type": "address"
        },
        {
          "internalType": "uint256",
          "name": "_tokenId",
          "type": "uint256"
        }
      ],
      "name": "isTokenMinted",
      "outputs": [
        {
          "internalType": "bool",
          "name": "available",
          "type": "bool"
        }
      ],
      "stateMutability": "view",
      "type": "function"
    },
    {
      "inputs": [
        {
          "internalType": "address",
          "name": "_nftAddress",
          "type": "address"
        },
        {
          "internalType": "uint256",
          "name": "_tokenId",
          "type": "uint256"
        },
        {
          "internalType": "uint256",
          "name": "_itemId",
          "type": "uint256"
        },
        {
          "internalType": "uint256",
          "name": "_amount",
          "type": "uint256"
        },
        {
          "internalType": "uint256",
          "name": "_price",
          "type": "uint256"
        },
        {
          "internalType": "address",
          "name": "_owner",
          "type": "address"
        },
        {
          "internalType": "uint256",
          "name": "_standard",
          "type": "uint256"
        },
        {
          "internalType": "uint256",
          "name": "_timestamp",
          "type": "uint256"
        }
      ],
      "name": "listToken",
      "outputs": [],
      "stateMutability": "nonpayable",
      "type": "function"
    },
    {
      "inputs": [
        {
          "internalType": "address",
          "name": "_nftAddress",
          "type": "address"
        },
        {
          "internalType": "uint256",
          "name": "_tokenId",
          "type": "uint256"
        },
        {
          "internalType": "uint256",
          "name": "_amount",
          "type": "uint256"
        },
        {
          "internalType": "address",
          "name": "_creator",
          "type": "address"
        },
        {
          "internalType": "uint256",
          "name": "_royalty",
          "type": "uint256"
        },
        {
          "internalType": "uint256",
          "name": "_timestamp",
          "type": "uint256"
        }
      ],
      "name": "mintToken",
      "outputs": [],
      "stateMutability": "nonpayable",
      "type": "function"
    },
    {
      "inputs": [],
      "name": "platformFee",
      "outputs": [
        {
          "internalType": "uint256",
          "name": "",
          "type": "uint256"
        }
      ],
      "stateMutability": "view",
      "type": "function"
    },
    {
      "inputs": [
        {
          "internalType": "bytes32",
          "name": "role",
          "type": "bytes32"
        },
        {
          "internalType": "address",
          "name": "account",
          "type": "address"
        }
      ],
      "name": "renounceRole",
      "outputs": [],
      "stateMutability": "nonpayable",
      "type": "function"
    },
    {
      "inputs": [
        {
          "internalType": "bytes32",
          "name": "role",
          "type": "bytes32"
        },
        {
          "internalType": "address",
          "name": "account",
          "type": "address"
        }
      ],
      "name": "revokeRole",
      "outputs": [],
      "stateMutability": "nonpayable",
      "type": "function"
    },
    {
      "inputs": [
        {
          "internalType": "address",
          "name": "_feeAddress",
          "type": "address"
        }
      ],
      "name": "setFeeAddress",
      "outputs": [],
      "stateMutability": "nonpayable",
      "type": "function"
    },
    {
      "inputs": [
        {
          "internalType": "uint256",
          "name": "_newPlatformFee",
          "type": "uint256"
        }
      ],
      "name": "setPlatformFee",
      "outputs": [],
      "stateMutability": "nonpayable",
      "type": "function"
    },
    {
      "inputs": [
        {
          "internalType": "bytes4",
          "name": "interfaceId",
          "type": "bytes4"
        }
      ],
      "name": "supportsInterface",
      "outputs": [
        {
          "internalType": "bool",
          "name": "",
          "type": "bool"
        }
      ],
      "stateMutability": "view",
      "type": "function"
    }
  ],
  "bytecode": "0x60806040523480156200001157600080fd5b50604051620017f0380380620017f0833981016040819052620000349162000146565b6200004160003362000096565b6200006d7fc03db245cc70ce2f326895d3fd3d48dc3fd51b4a8018a792cebeaa2b40460eb23362000096565b600180546001600160a01b0319166001600160a01b039290921691909117905560025562000185565b620000a28282620000a6565b5050565b6000828152602081815260408083206001600160a01b038516845290915290205460ff16620000a2576000828152602081815260408083206001600160a01b03851684529091529020805460ff19166001179055620001023390565b6001600160a01b0316816001600160a01b0316837f2f8788117e7eff1d82e926ec794901d17c78024a50270940304540a733656f0d60405160405180910390a45050565b600080604083850312156200015a57600080fd5b825160208401519092506001600160a01b03811681146200017a57600080fd5b809150509250929050565b61165b80620001956000396000f3fe608060405234801561001057600080fd5b50600436106101625760003560e01c806367aa9b67116100c8578063841730791161008c578063a217fddf11610066578063a217fddf14610552578063caa2f7981461055a578063d547741f1461056d57600080fd5b806384173079146104f55780638705fcd41461050857806391d148541461051b57600080fd5b806367aa9b67146103715780636e44a72f1461044957806374869089146104825780637cd7efc5146104bb5780637f92b33b146104ce57600080fd5b806336568abe1161012a578063472bf44711610104578063472bf447146102a55780635d772898146102b857806361adca8c146102ee57600080fd5b806336568abe146101f1578063412753581461020457806346bf231d1461022f57600080fd5b806301ffc9a71461016757806312e8e2c31461018f578063248a9ca3146101a457806326232a2e146101d55780632f2ff15d146101de575b600080fd5b61017a610175366004611243565b610580565b60405190151581526020015b60405180910390f35b6101a261019d36600461126d565b6105b7565b005b6101c76101b236600461126d565b60009081526020819052604090206001015490565b604051908152602001610186565b6101c760025481565b6101a26101ec3660046112a2565b610637565b6101a26101ff3660046112a2565b610662565b600154610217906001600160a01b031681565b6040516001600160a01b039091168152602001610186565b61024261023d3660046112ce565b6106ee565b6040516101869190600060e0820190506001600160a01b038084511683526020840151602084015260408401516040840152806060850151166060840152506080830151608083015260a083015160a083015260c083015160c083015292915050565b61017a6102b33660046112ce565b6107b9565b6101c76102c63660046112ce565b6001600160a01b03919091166000908152600360209081526040808320938352929052205490565b6103016102fc3660046112f8565b6107f4565b60405161018691906000610100820190506001600160a01b03808451168352602084015160208401526040840151604084015260608401516060840152608084015160808401528060a08501511660a08401528060c08501511660c08401525060e083015160e083015292915050565b61040261037f3660046112f8565b6001600160a01b0392831660008181526004602081815260408084208785528252808420808401546003918201549686526005808552838720998752988452828620978652969092529092209485015490850154918501546002860154600690960154909795969495838616959490941693600160a01b90930460ff1692909190565b604080519889526020890197909752958701949094526001600160a01b03928316606087015291166080850152151560a084015260c083015260e082015261010001610186565b6101c76104573660046112ce565b6001600160a01b03919091166000908152600460208181526040808420948452939052919020015490565b6102176104903660046112ce565b6001600160a01b03918216600090815260046020908152604080832093835292905220600301541690565b6101a26104c936600461132b565b6108e5565b6101c77fc03db245cc70ce2f326895d3fd3d48dc3fd51b4a8018a792cebeaa2b40460eb281565b6101a261050336600461139f565b610cbf565b6101a261051636600461140c565b610da6565b61017a6105293660046112a2565b6000918252602082815260408084206001600160a01b0393909316845291905290205460ff1690565b6101c7600081565b6101a2610568366004611427565b610e3e565b6101a261057b3660046112a2565b610ed2565b60006001600160e01b03198216637965db0b60e01b14806105b157506301ffc9a760e01b6001600160e01b03198316145b92915050565b6105e17fc03db245cc70ce2f326895d3fd3d48dc3fd51b4a8018a792cebeaa2b40460eb233610529565b6106325760405162461bcd60e51b815260206004820152601c60248201527f4d75737420686176652073746f726167652061646d696e20726f6c650000000060448201526064015b60405180910390fd5b600255565b6000828152602081905260409020600101546106538133610ef8565b61065d8383610f76565b505050565b6001600160a01b03811633146106e05760405162461bcd60e51b815260206004820152602f60248201527f416363657373436f6e74726f6c3a2063616e206f6e6c792072656e6f756e636560448201527f20726f6c657320666f722073656c6600000000000000000000000000000000006064820152608401610629565b6106ea8282611014565b5050565b6107406040518060e0016040528060006001600160a01b03168152602001600081526020016000815260200160006001600160a01b031681526020016000815260200160008152602001600081525090565b506001600160a01b03918216600090815260046020818152604080842094845293815291839020835160e08101855281548616815260018201549381019390935260028101549383019390935260038301549093166060820152918101546080830152600581015460a08301526006015460c082015290565b6001600160a01b03821660009081526004602090815260408083208484529091528120600201546107ec575060006105b1565b5060016105b1565b61085760405180610100016040528060006001600160a01b031681526020016000815260200160008152602001600081526020016000815260200160006001600160a01b0316815260200160006001600160a01b03168152602001600081525090565b506001600160a01b0392831660009081526006602081815260408084209584529481528483209383529283529083902083516101008101855281548616815260018201549381019390935260028101549383019390935260038301546060830152600483015460808301526005830154841660a083015282015490921660c08301526007015460e082015290565b7fc03db245cc70ce2f326895d3fd3d48dc3fd51b4a8018a792cebeaa2b40460eb26109108133610ef8565b88600660008b6001600160a01b03166001600160a01b0316815260200190815260200160002060008a8152602001908152602001600020600089815260200190815260200160002060000160006101000a8154816001600160a01b0302191690836001600160a01b0316021790555087600660008b6001600160a01b03166001600160a01b0316815260200190815260200160002060008a815260200190815260200160002060008981526020019081526020016000206001018190555086600660008b6001600160a01b03166001600160a01b0316815260200190815260200160002060008a815260200190815260200160002060008981526020019081526020016000206002018190555085600660008b6001600160a01b03166001600160a01b0316815260200190815260200160002060008a815260200190815260200160002060008981526020019081526020016000206003018190555084600660008b6001600160a01b03166001600160a01b0316815260200190815260200160002060008a815260200190815260200160002060008981526020019081526020016000206004018190555083600660008b6001600160a01b03166001600160a01b0316815260200190815260200160002060008a8152602001908152602001600020600089815260200190815260200160002060050160006101000a8154816001600160a01b0302191690836001600160a01b0316021790555082600660008b6001600160a01b03166001600160a01b0316815260200190815260200160002060008a8152602001908152602001600020600089815260200190815260200160002060060160006101000a8154816001600160a01b0302191690836001600160a01b0316021790555081600660008b6001600160a01b03166001600160a01b0316815260200190815260200160002060008a815260200190815260200160002060008981526020019081526020016000206007018190555085600560008b6001600160a01b03166001600160a01b0316815260200190815260200160002060008a815260200190815260200160002060008981526020019081526020016000206002016000828254610c429190611495565b90915550506001600160a01b03891660009081526005602090815260408083208b845282528083208a8452909152902060020154610cb4576001600160a01b03891660009081526005602090815260408083208b845282528083208a84529091529020600401805460ff60a01b191690555b505050505050505050565b7fc03db245cc70ce2f326895d3fd3d48dc3fd51b4a8018a792cebeaa2b40460eb2610cea8133610ef8565b6001600160a01b03808a1660008181526005602081815260408084208e855282528084208d8552825280842080546001600160a01b03191686178155600181018f9055600281018d905560038082018d905560048201805474ffffffffffffffffffffffffffffffffffffffffff1916988d1698909817600160a01b1790975592830189905560069092018790559282529282528281208b8252909152908120805491610d96836114ac565b9190505550505050505050505050565b610dd07fc03db245cc70ce2f326895d3fd3d48dc3fd51b4a8018a792cebeaa2b40460eb233610529565b610e1c5760405162461bcd60e51b815260206004820152601c60248201527f4d75737420686176652073746f726167652061646d696e20726f6c65000000006044820152606401610629565b600180546001600160a01b0319166001600160a01b0392909216919091179055565b7fc03db245cc70ce2f326895d3fd3d48dc3fd51b4a8018a792cebeaa2b40460eb2610e698133610ef8565b506001600160a01b0395861660008181526004602081815260408084208a855290915290912080546001600160a01b0319908116909317815560018101979097556002870195909555600386018054949097169316929092179094559082019290925560060155565b600082815260208190526040902060010154610eee8133610ef8565b61065d8383611014565b6000828152602081815260408083206001600160a01b038516845290915290205460ff166106ea57610f34816001600160a01b03166014611093565b610f3f836020611093565b604051602001610f509291906114f7565b60408051601f198184030181529082905262461bcd60e51b825261062991600401611578565b6000828152602081815260408083206001600160a01b038516845290915290205460ff166106ea576000828152602081815260408083206001600160a01b03851684529091529020805460ff19166001179055610fd03390565b6001600160a01b0316816001600160a01b0316837f2f8788117e7eff1d82e926ec794901d17c78024a50270940304540a733656f0d60405160405180910390a45050565b6000828152602081815260408083206001600160a01b038516845290915290205460ff16156106ea576000828152602081815260408083206001600160a01b0385168085529252808320805460ff1916905551339285917ff6391f5c32d9c69d2a47ea670b442974b53935d1edc7fd64eb21e047a839171b9190a45050565b606060006110a28360026115ab565b6110ad9060026115ca565b67ffffffffffffffff8111156110c5576110c56115e2565b6040519080825280601f01601f1916602001820160405280156110ef576020820181803683370190505b509050600360fc1b8160008151811061110a5761110a6115f8565b60200101906001600160f81b031916908160001a905350600f60fb1b81600181518110611139576111396115f8565b60200101906001600160f81b031916908160001a905350600061115d8460026115ab565b6111689060016115ca565b90505b60018111156111ed577f303132333435363738396162636465660000000000000000000000000000000085600f16601081106111a9576111a96115f8565b1a60f81b8282815181106111bf576111bf6115f8565b60200101906001600160f81b031916908160001a90535060049490941c936111e68161160e565b905061116b565b50831561123c5760405162461bcd60e51b815260206004820181905260248201527f537472696e67733a20686578206c656e67746820696e73756666696369656e746044820152606401610629565b9392505050565b60006020828403121561125557600080fd5b81356001600160e01b03198116811461123c57600080fd5b60006020828403121561127f57600080fd5b5035919050565b80356001600160a01b038116811461129d57600080fd5b919050565b600080604083850312156112b557600080fd5b823591506112c560208401611286565b90509250929050565b600080604083850312156112e157600080fd5b6112ea83611286565b946020939093013593505050565b60008060006060848603121561130d57600080fd5b61131684611286565b95602085013595506040909401359392505050565b600080600080600080600080610100898b03121561134857600080fd5b61135189611286565b97506020890135965060408901359550606089013594506080890135935061137b60a08a01611286565b925061138960c08a01611286565b915060e089013590509295985092959890939650565b600080600080600080600080610100898b0312156113bc57600080fd5b6113c589611286565b9750602089013596506040890135955060608901359450608089013593506113ef60a08a01611286565b925060c0890135915060e089013590509295985092959890939650565b60006020828403121561141e57600080fd5b61123c82611286565b60008060008060008060c0878903121561144057600080fd5b61144987611286565b9550602087013594506040870135935061146560608801611286565b92506080870135915060a087013590509295509295509295565b634e487b7160e01b600052601160045260246000fd5b6000828210156114a7576114a761147f565b500390565b60006000198214156114c0576114c061147f565b5060010190565b60005b838110156114e25781810151838201526020016114ca565b838111156114f1576000848401525b50505050565b7f416363657373436f6e74726f6c3a206163636f756e742000000000000000000081526000835161152f8160178501602088016114c7565b7f206973206d697373696e6720726f6c6520000000000000000000000000000000601791840191820152835161156c8160288401602088016114c7565b01602801949350505050565b60208152600082518060208401526115978160408501602087016114c7565b601f01601f19169190910160400192915050565b60008160001904831182151516156115c5576115c561147f565b500290565b600082198211156115dd576115dd61147f565b500190565b634e487b7160e01b600052604160045260246000fd5b634e487b7160e01b600052603260045260246000fd5b60008161161d5761161d61147f565b50600019019056fea26469706673582212206a4c337640c93022699eb1cb26e69b7f333d101f1bdf2733ecacf11ab9f7b2e764736f6c63430008090033",
  "linkReferences": {},
  "deployedLinkReferences": {}
}