{
  "_format": "hh-sol-artifact-1",
  "contractName": "TokenAsset",
  "sourceName": "contracts/TokenAsset.sol",
  "abi": [
    {
      "inputs": [
        {
          "internalType": "string",
          "name": "_name",
          "type": "string"
        },
        {
          "internalType": "string",
          "name": "_symbol",
          "type": "string"
        },
        {
          "internalType": "string",
          "name": "_chainId",
          "type": "string"
        },
        {
          "internalType": "uint256",
          "name": "_platformFee",
          "type": "uint256"
        },
        {
          "internalType": "address",
          "name": "_feeAddress",
          "type": "address"
        },
        {
          "internalType": "address",
          "name": "_proxyRegistryAddress",
          "type": "address"
        }
      ],
      "stateMutability": "nonpayable",
      "type": "constructor"
    },
    {
      "anonymous": false,
      "inputs": [
        {
          "indexed": true,
          "internalType": "address",
          "name": "account",
          "type": "address"
        },
        {
          "indexed": true,
          "internalType": "address",
          "name": "operator",
          "type": "address"
        },
        {
          "indexed": false,
          "internalType": "bool",
          "name": "approved",
          "type": "bool"
        }
      ],
      "name": "ApprovalForAll",
      "type": "event"
    },
    {
      "anonymous": false,
      "inputs": [
        {
          "indexed": false,
          "internalType": "address",
          "name": "account",
          "type": "address"
        }
      ],
      "name": "Paused",
      "type": "event"
    },
    {
      "anonymous": false,
      "inputs": [
        {
          "indexed": true,
          "internalType": "bytes32",
          "name": "role",
          "type": "bytes32"
        },
        {
          "indexed": true,
          "internalType": "bytes32",
          "name": "previousAdminRole",
          "type": "bytes32"
        },
        {
          "indexed": true,
          "internalType": "bytes32",
          "name": "newAdminRole",
          "type": "bytes32"
        }
      ],
      "name": "RoleAdminChanged",
      "type": "event"
    },
    {
      "anonymous": false,
      "inputs": [
        {
          "indexed": true,
          "internalType": "bytes32",
          "name": "role",
          "type": "bytes32"
        },
        {
          "indexed": true,
          "internalType": "address",
          "name": "account",
          "type": "address"
        },
        {
          "indexed": true,
          "internalType": "address",
          "name": "sender",
          "type": "address"
        }
      ],
      "name": "RoleGranted",
      "type": "event"
    },
    {
      "anonymous": false,
      "inputs": [
        {
          "indexed": true,
          "internalType": "bytes32",
          "name": "role",
          "type": "bytes32"
        },
        {
          "indexed": true,
          "internalType": "address",
          "name": "account",
          "type": "address"
        },
        {
          "indexed": true,
          "internalType": "address",
          "name": "sender",
          "type": "address"
        }
      ],
      "name": "RoleRevoked",
      "type": "event"
    },
    {
      "anonymous": false,
      "inputs": [
        {
          "indexed": true,
          "internalType": "address",
          "name": "operator",
          "type": "address"
        },
        {
          "indexed": true,
          "internalType": "address",
          "name": "from",
          "type": "address"
        },
        {
          "indexed": true,
          "internalType": "address",
          "name": "to",
          "type": "address"
        },
        {
          "indexed": false,
          "internalType": "uint256[]",
          "name": "ids",
          "type": "uint256[]"
        },
        {
          "indexed": false,
          "internalType": "uint256[]",
          "name": "values",
          "type": "uint256[]"
        }
      ],
      "name": "TransferBatch",
      "type": "event"
    },
    {
      "anonymous": false,
      "inputs": [
        {
          "indexed": true,
          "internalType": "address",
          "name": "operator",
          "type": "address"
        },
        {
          "indexed": true,
          "internalType": "address",
          "name": "from",
          "type": "address"
        },
        {
          "indexed": true,
          "internalType": "address",
          "name": "to",
          "type": "address"
        },
        {
          "indexed": false,
          "internalType": "uint256",
          "name": "id",
          "type": "uint256"
        },
        {
          "indexed": false,
          "internalType": "uint256",
          "name": "value",
          "type": "uint256"
        }
      ],
      "name": "TransferSingle",
      "type": "event"
    },
    {
      "anonymous": false,
      "inputs": [
        {
          "indexed": false,
          "internalType": "string",
          "name": "value",
          "type": "string"
        },
        {
          "indexed": true,
          "internalType": "uint256",
          "name": "id",
          "type": "uint256"
        }
      ],
      "name": "URI",
      "type": "event"
    },
    {
      "anonymous": false,
      "inputs": [
        {
          "indexed": false,
          "internalType": "address",
          "name": "account",
          "type": "address"
        }
      ],
      "name": "Unpaused",
      "type": "event"
    },
    {
      "inputs": [],
      "name": "DEFAULT_ADMIN_ROLE",
      "outputs": [
        {
          "internalType": "bytes32",
          "name": "",
          "type": "bytes32"
        }
      ],
      "stateMutability": "view",
      "type": "function"
    },
    {
      "inputs": [],
      "name": "MINTER_ROLE",
      "outputs": [
        {
          "internalType": "bytes32",
          "name": "",
          "type": "bytes32"
        }
      ],
      "stateMutability": "view",
      "type": "function"
    },
    {
      "inputs": [],
      "name": "PAUSER_ROLE",
      "outputs": [
        {
          "internalType": "bytes32",
          "name": "",
          "type": "bytes32"
        }
      ],
      "stateMutability": "view",
      "type": "function"
    },
    {
      "inputs": [],
      "name": "_contractUri",
      "outputs": [
        {
          "internalType": "string",
          "name": "",
          "type": "string"
        }
      ],
      "stateMutability": "view",
      "type": "function"
    },
    {
      "inputs": [
        {
          "internalType": "address",
          "name": "account",
          "type": "address"
        },
        {
          "internalType": "uint256",
          "name": "id",
          "type": "uint256"
        }
      ],
      "name": "balanceOf",
      "outputs": [
        {
          "internalType": "uint256",
          "name": "",
          "type": "uint256"
        }
      ],
      "stateMutability": "view",
      "type": "function"
    },
    {
      "inputs": [
        {
          "internalType": "address[]",
          "name": "accounts",
          "type": "address[]"
        },
        {
          "internalType": "uint256[]",
          "name": "ids",
          "type": "uint256[]"
        }
      ],
      "name": "balanceOfBatch",
      "outputs": [
        {
          "internalType": "uint256[]",
          "name": "",
          "type": "uint256[]"
        }
      ],
      "stateMutability": "view",
      "type": "function"
    },
    {
      "inputs": [
        {
          "internalType": "address",
          "name": "account",
          "type": "address"
        },
        {
          "internalType": "uint256",
          "name": "id",
          "type": "uint256"
        },
        {
          "internalType": "uint256",
          "name": "value",
          "type": "uint256"
        }
      ],
      "name": "burn",
      "outputs": [],
      "stateMutability": "nonpayable",
      "type": "function"
    },
    {
      "inputs": [
        {
          "internalType": "address",
          "name": "account",
          "type": "address"
        },
        {
          "internalType": "uint256[]",
          "name": "ids",
          "type": "uint256[]"
        },
        {
          "internalType": "uint256[]",
          "name": "values",
          "type": "uint256[]"
        }
      ],
      "name": "burnBatch",
      "outputs": [],
      "stateMutability": "nonpayable",
      "type": "function"
    },
    {
      "inputs": [
        {
          "internalType": "bytes1",
          "name": "b",
          "type": "bytes1"
        }
      ],
      "name": "char",
      "outputs": [
        {
          "internalType": "bytes1",
          "name": "c",
          "type": "bytes1"
        }
      ],
      "stateMutability": "pure",
      "type": "function"
    },
    {
      "inputs": [
        {
          "internalType": "string",
          "name": "a",
          "type": "string"
        },
        {
          "internalType": "string",
          "name": "b",
          "type": "string"
        },
        {
          "internalType": "string",
          "name": "c",
          "type": "string"
        },
        {
          "internalType": "string",
          "name": "d",
          "type": "string"
        },
        {
          "internalType": "string",
          "name": "e",
          "type": "string"
        }
      ],
      "name": "concat",
      "outputs": [
        {
          "internalType": "string",
          "name": "",
          "type": "string"
        }
      ],
      "stateMutability": "pure",
      "type": "function"
    },
    {
      "inputs": [],
      "name": "feeAddress",
      "outputs": [
        {
          "internalType": "address",
          "name": "",
          "type": "address"
        }
      ],
      "stateMutability": "view",
      "type": "function"
    },
    {
      "inputs": [
        {
          "internalType": "bytes32",
          "name": "role",
          "type": "bytes32"
        }
      ],
      "name": "getRoleAdmin",
      "outputs": [
        {
          "internalType": "bytes32",
          "name": "",
          "type": "bytes32"
        }
      ],
      "stateMutability": "view",
      "type": "function"
    },
    {
      "inputs": [
        {
          "internalType": "bytes32",
          "name": "role",
          "type": "bytes32"
        },
        {
          "internalType": "uint256",
          "name": "index",
          "type": "uint256"
        }
      ],
      "name": "getRoleMember",
      "outputs": [
        {
          "internalType": "address",
          "name": "",
          "type": "address"
        }
      ],
      "stateMutability": "view",
      "type": "function"
    },
    {
      "inputs": [
        {
          "internalType": "bytes32",
          "name": "role",
          "type": "bytes32"
        }
      ],
      "name": "getRoleMemberCount",
      "outputs": [
        {
          "internalType": "uint256",
          "name": "",
          "type": "uint256"
        }
      ],
      "stateMutability": "view",
      "type": "function"
    },
    {
      "inputs": [
        {
          "internalType": "bytes32",
          "name": "role",
          "type": "bytes32"
        },
        {
          "internalType": "address",
          "name": "account",
          "type": "address"
        }
      ],
      "name": "grantRole",
      "outputs": [],
      "stateMutability": "nonpayable",
      "type": "function"
    },
    {
      "inputs": [
        {
          "internalType": "bytes32",
          "name": "role",
          "type": "bytes32"
        },
        {
          "internalType": "address",
          "name": "account",
          "type": "address"
        }
      ],
      "name": "hasRole",
      "outputs": [
        {
          "internalType": "bool",
          "name": "",
          "type": "bool"
        }
      ],
      "stateMutability": "view",
      "type": "function"
    },
    {
      "inputs": [
        {
          "internalType": "address",
          "name": "_owner",
          "type": "address"
        },
        {
          "internalType": "address",
          "name": "_operator",
          "type": "address"
        }
      ],
      "name": "isApprovedForAll",
      "outputs": [
        {
          "internalType": "bool",
          "name": "isOperator",
          "type": "bool"
        }
      ],
      "stateMutability": "view",
      "type": "function"
    },
    {
      "inputs": [
        {
          "internalType": "address",
          "name": "to",
          "type": "address"
        },
        {
          "internalType": "uint256",
          "name": "id",
          "type": "uint256"
        },
        {
          "internalType": "uint256",
          "name": "amount",
          "type": "uint256"
        },
        {
          "internalType": "bytes",
          "name": "data",
          "type": "bytes"
        }
      ],
      "name": "mint",
      "outputs": [],
      "stateMutability": "nonpayable",
      "type": "function"
    },
    {
      "inputs": [
        {
          "internalType": "address",
          "name": "to",
          "type": "address"
        },
        {
          "internalType": "uint256[]",
          "name": "ids",
          "type": "uint256[]"
        },
        {
          "internalType": "uint256[]",
          "name": "amounts",
          "type": "uint256[]"
        },
        {
          "internalType": "bytes",
          "name": "data",
          "type": "bytes"
        }
      ],
      "name": "mintBatch",
      "outputs": [],
      "stateMutability": "nonpayable",
      "type": "function"
    },
    {
      "inputs": [],
      "name": "name",
      "outputs": [
        {
          "internalType": "string",
          "name": "",
          "type": "string"
        }
      ],
      "stateMutability": "view",
      "type": "function"
    },
    {
      "inputs": [],
      "name": "pause",
      "outputs": [],
      "stateMutability": "nonpayable",
      "type": "function"
    },
    {
      "inputs": [],
      "name": "paused",
      "outputs": [
        {
          "internalType": "bool",
          "name": "",
          "type": "bool"
        }
      ],
      "stateMutability": "view",
      "type": "function"
    },
    {
      "inputs": [],
      "name": "platformFee",
      "outputs": [
        {
          "internalType": "uint256",
          "name": "",
          "type": "uint256"
        }
      ],
      "stateMutability": "view",
      "type": "function"
    },
    {
      "inputs": [],
      "name": "proxyRegistryAddress",
      "outputs": [
        {
          "internalType": "address",
          "name": "",
          "type": "address"
        }
      ],
      "stateMutability": "view",
      "type": "function"
    },
    {
      "inputs": [
        {
          "internalType": "bytes32",
          "name": "role",
          "type": "bytes32"
        },
        {
          "internalType": "address",
          "name": "account",
          "type": "address"
        }
      ],
      "name": "renounceRole",
      "outputs": [],
      "stateMutability": "nonpayable",
      "type": "function"
    },
    {
      "inputs": [
        {
          "internalType": "bytes32",
          "name": "role",
          "type": "bytes32"
        },
        {
          "internalType": "address",
          "name": "account",
          "type": "address"
        }
      ],
      "name": "revokeRole",
      "outputs": [],
      "stateMutability": "nonpayable",
      "type": "function"
    },
    {
      "inputs": [
        {
          "internalType": "address",
          "name": "from",
          "type": "address"
        },
        {
          "internalType": "address",
          "name": "to",
          "type": "address"
        },
        {
          "internalType": "uint256[]",
          "name": "ids",
          "type": "uint256[]"
        },
        {
          "internalType": "uint256[]",
          "name": "amounts",
          "type": "uint256[]"
        },
        {
          "internalType": "bytes",
          "name": "data",
          "type": "bytes"
        }
      ],
      "name": "safeBatchTransferFrom",
      "outputs": [],
      "stateMutability": "nonpayable",
      "type": "function"
    },
    {
      "inputs": [
        {
          "internalType": "address",
          "name": "from",
          "type": "address"
        },
        {
          "internalType": "address",
          "name": "to",
          "type": "address"
        },
        {
          "internalType": "uint256",
          "name": "id",
          "type": "uint256"
        },
        {
          "internalType": "uint256",
          "name": "amount",
          "type": "uint256"
        },
        {
          "internalType": "bytes",
          "name": "data",
          "type": "bytes"
        }
      ],
      "name": "safeTransferFrom",
      "outputs": [],
      "stateMutability": "nonpayable",
      "type": "function"
    },
    {
      "inputs": [
        {
          "internalType": "address",
          "name": "operator",
          "type": "address"
        },
        {
          "internalType": "bool",
          "name": "approved",
          "type": "bool"
        }
      ],
      "name": "setApprovalForAll",
      "outputs": [],
      "stateMutability": "nonpayable",
      "type": "function"
    },
    {
      "inputs": [
        {
          "internalType": "string",
          "name": "_newUri",
          "type": "string"
        }
      ],
      "name": "setContractURI",
      "outputs": [],
      "stateMutability": "nonpayable",
      "type": "function"
    },
    {
      "inputs": [
        {
          "internalType": "string",
          "name": "_newUri",
          "type": "string"
        }
      ],
      "name": "setURI",
      "outputs": [],
      "stateMutability": "nonpayable",
      "type": "function"
    },
    {
      "inputs": [
        {
          "internalType": "bytes4",
          "name": "interfaceId",
          "type": "bytes4"
        }
      ],
      "name": "supportsInterface",
      "outputs": [
        {
          "internalType": "bool",
          "name": "",
          "type": "bool"
        }
      ],
      "stateMutability": "view",
      "type": "function"
    },
    {
      "inputs": [],
      "name": "symbol",
      "outputs": [
        {
          "internalType": "string",
          "name": "",
          "type": "string"
        }
      ],
      "stateMutability": "view",
      "type": "function"
    },
    {
      "inputs": [
        {
          "internalType": "address",
          "name": "x",
          "type": "address"
        }
      ],
      "name": "toAsciiString",
      "outputs": [
        {
          "internalType": "string",
          "name": "",
          "type": "string"
        }
      ],
      "stateMutability": "pure",
      "type": "function"
    },
    {
      "inputs": [],
      "name": "unpause",
      "outputs": [],
      "stateMutability": "nonpayable",
      "type": "function"
    },
    {
      "inputs": [
        {
          "internalType": "uint256",
          "name": "",
          "type": "uint256"
        }
      ],
      "name": "uri",
      "outputs": [
        {
          "internalType": "string",
          "name": "",
          "type": "string"
        }
      ],
      "stateMutability": "view",
      "type": "function"
    }
  ],
  "bytecode": "0x60806040523480156200001157600080fd5b506040516200447938038062004479833981016040819052620000349162000a07565b604080516020810190915260008152806200004f8162000289565b506005805460ff1916905562000067600033620002a2565b620000826000805160206200445983398151915233620002a2565b6200009d600080516020620043fc83398151915233620002a2565b50600a6009541115620000ec5760405162461bcd60e51b8152602060048201526012602482015271119959481b1a5b5a5d08195e18d95959195960721b60448201526064015b60405180910390fd5b620000f9600033620002a9565b62000114600080516020620043fc83398151915233620002a9565b6200012f6000805160206200445983398151915233620002a9565b8551620001449060069060208901906200086f565b5084516200015a9060079060208801906200086f565b50600a80546001600160a01b038085166001600160a01b0319928316179092556009859055600b80549284169290911691909117905560408051606081018252818152620001f291620043bc60208301396040805180820190915260018152602f60f81b60208201528690620001d030620002ec565b604080518082019091526005815264173539b7b760d91b602082015262000479565b805162000208916008916020909101906200086f565b506200027d620002776040518060600160405280603d81526020016200441c603d91396040805180820190915260018152602f60f81b602082015287906200025030620002ec565b60408051808201909152600a81526917bdb4b23e973539b7b760b11b602082015262000479565b620004b0565b50505050505062000f07565b80516200029e9060049060208401906200086f565b5050565b6200029e82825b620002c08282620004c960201b620010391760201c565b6000828152600160209081526040909120620002e7918390620010d762000569821b17901c565b505050565b60408051602880825260608281019093526000919060208201818036833701905050905060005b60148110156200044e5760006200032c82601362000adc565b6200033990600862000af6565b6200034690600262000c15565b6200035b906001600160a01b03871662000c39565b60f81b9050600060108260f81c62000374919062000c50565b60f81b905060008160f81c60106200038d919062000c75565b8360f81c6200039d919062000c99565b60f81b9050620003ad8262000589565b85620003bb86600262000af6565b81518110620003ce57620003ce62000cbf565b60200101906001600160f81b031916908160001a905350620003f08162000589565b85620003fe86600262000af6565b6200040b90600162000cd5565b815181106200041e576200041e62000cbf565b60200101906001600160f81b031916908160001a9053505050508080620004459062000cf0565b91505062000313565b508060405160200162000462919062000d0e565b604051602081830303815290604052915050919050565b606085858585856040516020016200049695949392919062000d3a565b604051602081830303815290604052905095945050505050565b6000620004be8133620005c9565b6200029e8262000289565b6000828152602081815260408083206001600160a01b038516845290915290205460ff166200029e576000828152602081815260408083206001600160a01b03851684529091529020805460ff19166001179055620005253390565b6001600160a01b0316816001600160a01b0316837f2f8788117e7eff1d82e926ec794901d17c78024a50270940304540a733656f0d60405160405180910390a45050565b600062000580836001600160a01b03841662000664565b90505b92915050565b6000600a60f883901c1015620005b357620005aa60f883901c603062000dda565b60f81b92915050565b620005aa60f883901c605762000dda565b919050565b6000828152602081815260408083206001600160a01b038516845290915290205460ff166200029e5762000613816001600160a01b03166014620006b660201b620010ec1760201c565b62000629836020620010ec620006b6821b17811c565b6040516020016200063c92919062000e02565b60408051601f198184030181529082905262461bcd60e51b8252620000e39160040162000e7b565b6000818152600183016020526040812054620006ad5750815460018181018455600084815260208082209093018490558454848252828601909352604090209190915562000583565b50600062000583565b60606000620006c783600262000af6565b620006d490600262000cd5565b6001600160401b03811115620006ee57620006ee62000915565b6040519080825280601f01601f19166020018201604052801562000719576020820181803683370190505b509050600360fc1b8160008151811062000737576200073762000cbf565b60200101906001600160f81b031916908160001a905350600f60fb1b8160018151811062000769576200076962000cbf565b60200101906001600160f81b031916908160001a90535060006200078f84600262000af6565b6200079c90600162000cd5565b90505b60018111156200081e576f181899199a1a9b1b9c1cb0b131b232b360811b85600f1660108110620007d457620007d462000cbf565b1a60f81b828281518110620007ed57620007ed62000cbf565b60200101906001600160f81b031916908160001a90535060049490941c93620008168162000eb0565b90506200079f565b508315620005805760405162461bcd60e51b815260206004820181905260248201527f537472696e67733a20686578206c656e67746820696e73756666696369656e746044820152606401620000e3565b8280546200087d9062000eca565b90600052602060002090601f016020900481019282620008a15760008555620008ec565b82601f10620008bc57805160ff1916838001178555620008ec565b82800160010185558215620008ec579182015b82811115620008ec578251825591602001919060010190620008cf565b50620008fa929150620008fe565b5090565b5b80821115620008fa5760008155600101620008ff565b634e487b7160e01b600052604160045260246000fd5b60005b83811015620009485781810151838201526020016200092e565b8381111562000958576000848401525b50505050565b600082601f8301126200097057600080fd5b81516001600160401b03808211156200098d576200098d62000915565b604051601f8301601f19908116603f01168101908282118183101715620009b857620009b862000915565b81604052838152866020858801011115620009d257600080fd5b620009e58460208301602089016200092b565b9695505050505050565b80516001600160a01b0381168114620005c457600080fd5b60008060008060008060c0878903121562000a2157600080fd5b86516001600160401b038082111562000a3957600080fd5b62000a478a838b016200095e565b9750602089015191508082111562000a5e57600080fd5b62000a6c8a838b016200095e565b9650604089015191508082111562000a8357600080fd5b5062000a9289828a016200095e565b9450506060870151925062000aaa60808801620009ef565b915062000aba60a08801620009ef565b90509295509295509295565b634e487b7160e01b600052601160045260246000fd5b60008282101562000af15762000af162000ac6565b500390565b600081600019048311821515161562000b135762000b1362000ac6565b500290565b600181815b8085111562000b5957816000190482111562000b3d5762000b3d62000ac6565b8085161562000b4b57918102915b93841c939080029062000b1d565b509250929050565b60008262000b725750600162000583565b8162000b815750600062000583565b816001811462000b9a576002811462000ba55762000bc5565b600191505062000583565b60ff84111562000bb95762000bb962000ac6565b50506001821b62000583565b5060208310610133831016604e8410600b841016171562000bea575081810a62000583565b62000bf6838362000b18565b806000190482111562000c0d5762000c0d62000ac6565b029392505050565b600062000580838362000b61565b634e487b7160e01b600052601260045260246000fd5b60008262000c4b5762000c4b62000c23565b500490565b600060ff83168062000c665762000c6662000c23565b8060ff84160491505092915050565b600060ff821660ff84168160ff048111821515161562000c0d5762000c0d62000ac6565b600060ff821660ff84168082101562000cb65762000cb662000ac6565b90039392505050565b634e487b7160e01b600052603260045260246000fd5b6000821982111562000ceb5762000ceb62000ac6565b500190565b600060001982141562000d075762000d0762000ac6565b5060010190565b61060f60f31b81526000825162000d2d8160028501602087016200092b565b9190910160020192915050565b6000865162000d4e818460208b016200092b565b8083019050602f60f81b808252875162000d70816001850160208c016200092b565b60019201918201819052865162000d8f816002850160208b016200092b565b60029201918201819052855162000dae816003850160208a016200092b565b6003920191820152835162000dcb8160048401602088016200092b565b01600401979650505050505050565b600060ff821660ff84168060ff0382111562000dfa5762000dfa62000ac6565b019392505050565b7f416363657373436f6e74726f6c3a206163636f756e742000000000000000000081526000835162000e3c8160178501602088016200092b565b7001034b99036b4b9b9b4b733903937b6329607d1b601791840191820152835162000e6f8160288401602088016200092b565b01602801949350505050565b602081526000825180602084015262000e9c8160408501602087016200092b565b601f01601f19169190910160400192915050565b60008162000ec25762000ec262000ac6565b506000190190565b600181811c9082168062000edf57607f821691505b6020821081141562000f0157634e487b7160e01b600052602260045260246000fd5b50919050565b6134a58062000f176000396000f3fe608060405234801561001057600080fd5b506004361061021b5760003560e01c8063731133e911610125578063cd7c0326116100ad578063d9ce2f6d1161007c578063d9ce2f6d146104dc578063e63ab1e9146104e4578063e985e9c51461050b578063f242432a1461051e578063f5298aca1461053157600080fd5b8063cd7c03261461047c578063d53913931461048f578063d547741f146104b6578063d97d445b146104c957600080fd5b8063938e3d7b116100f4578063938e3d7b1461043357806395d89b4114610446578063a217fddf1461044e578063a22cb46514610456578063ca15c8731461046957600080fd5b8063731133e9146103ce5780638456cb59146103e15780639010d07c146103e957806391d14854146103fc57600080fd5b80632eb2c2d6116101a8578063412753581161017757806341275358146103395780634e1273f4146103645780635c975abb1461038457806369f9ad2f1461038f5780636b20c454146103bb57600080fd5b80632eb2c2d6146102f85780632f2ff15d1461030b57806336568abe1461031e5780633f4ba83a1461033157600080fd5b80630e89341c116101ef5780630e89341c146102935780631f7fdffa146102a6578063248a9ca3146102b957806326232a2e146102dc5780632c6e7598146102e557600080fd5b8062fdd58e1461022057806301ffc9a71461024657806302fe53051461026957806306fdde031461027e575b600080fd5b61023361022e36600461270e565b610544565b6040519081526020015b60405180910390f35b610259610254366004612750565b6105e0565b604051901515815260200161023d565b61027c610277366004612824565b6105eb565b005b610286610604565b60405161023d91906128b1565b6102866102a13660046128c4565b610692565b61027c6102b4366004612972565b610726565b6102336102c73660046128c4565b60009081526020819052604090206001015490565b61023360095481565b6102866102f3366004612a0d565b6107d4565b61027c610306366004612a2a565b61093d565b61027c610319366004612ad8565b6109df565b61027c61032c366004612ad8565b610a0a565b61027c610a92565b600a5461034c906001600160a01b031681565b6040516001600160a01b03909116815260200161023d565b610377610372366004612b08565b610ac8565b60405161023d9190612c10565b60055460ff16610259565b6103a261039d366004612c23565b610bf2565b6040516001600160f81b0319909116815260200161023d565b61027c6103c9366004612c4d565b610c28565b61027c6103dc366004612cc3565b610cad565b61027c610d55565b61034c6103f7366004612d1a565b610d88565b61025961040a366004612ad8565b6000918252602082815260408084206001600160a01b0393909316845291905290205460ff1690565b61027c610441366004612824565b610da7565b610286610dc6565b610233600081565b61027c610464366004612d3c565b610dd3565b6102336104773660046128c4565b610dde565b600b5461034c906001600160a01b031681565b6102337f9f2df0fed2c77648de5860a4cc508cd0818c85b8b8a1ab4ceeef8d981c8956a681565b61027c6104c4366004612ad8565b610df5565b6102866104d7366004612d6f565b610e1b565b610286610e50565b6102337f65d7a28e3265b37a6474929f336521b332c1681b933f6cb9f3376673440d862a81565b610259610519366004612e11565b610e5d565b61027c61052c366004612e3f565b610f2d565b61027c61053f366004612ea8565b610fb4565b60006001600160a01b0383166105b55760405162461bcd60e51b815260206004820152602b60248201527f455243313135353a2062616c616e636520717565727920666f7220746865207a60448201526a65726f206164647265737360a81b60648201526084015b60405180910390fd5b5060008181526002602090815260408083206001600160a01b03861684529091529020545b92915050565b60006105da82611295565b60006105f781336112d5565b61060082611353565b5050565b6006805461061190612edd565b80601f016020809104026020016040519081016040528092919081815260200182805461063d90612edd565b801561068a5780601f1061065f5761010080835404028352916020019161068a565b820191906000526020600020905b81548152906001019060200180831161066d57829003601f168201915b505050505081565b6060600480546106a190612edd565b80601f01602080910402602001604051908101604052809291908181526020018280546106cd90612edd565b801561071a5780601f106106ef5761010080835404028352916020019161071a565b820191906000526020600020905b8154815290600101906020018083116106fd57829003601f168201915b50505050509050919050565b6107507f9f2df0fed2c77648de5860a4cc508cd0818c85b8b8a1ab4ceeef8d981c8956a63361040a565b6107c25760405162461bcd60e51b815260206004820152603860248201527f455243313135355072657365744d696e7465725061757365723a206d7573742060448201527f68617665206d696e74657220726f6c6520746f206d696e74000000000000000060648201526084016105ac565b6107ce84848484611366565b50505050565b60408051602880825260608281019093526000919060208201818036833701905050905060005b6014811015610914576000610811826013612f2e565b61081c906008612f45565b610827906002613048565b61083a906001600160a01b03871661306a565b60f81b9050600060108260f81c610851919061307e565b60f81b905060008160f81c601061086891906130a0565b8360f81c61087691906130c1565b60f81b905061088482610bf2565b85610890866002612f45565b815181106108a0576108a06130e4565b60200101906001600160f81b031916908160001a9053506108c081610bf2565b856108cc866002612f45565b6108d79060016130fa565b815181106108e7576108e76130e4565b60200101906001600160f81b031916908160001a905350505050808061090c90613112565b9150506107fb565b5080604051602001610926919061312d565b604051602081830303815290604052915050919050565b6001600160a01b03851633148061095957506109598533610e5d565b6109cb5760405162461bcd60e51b815260206004820152603260248201527f455243313135353a207472616e736665722063616c6c6572206973206e6f742060448201527f6f776e6572206e6f7220617070726f766564000000000000000000000000000060648201526084016105ac565b6109d8858585858561153c565b5050505050565b6000828152602081905260409020600101546109fb81336112d5565b610a0583836117ab565b505050565b6001600160a01b0381163314610a885760405162461bcd60e51b815260206004820152602f60248201527f416363657373436f6e74726f6c3a2063616e206f6e6c792072656e6f756e636560448201527f20726f6c657320666f722073656c66000000000000000000000000000000000060648201526084016105ac565b61060082826117cd565b7f65d7a28e3265b37a6474929f336521b332c1681b933f6cb9f3376673440d862a610abd81336112d5565b610ac56117ef565b50565b60608151835114610b2d5760405162461bcd60e51b815260206004820152602960248201527f455243313135353a206163636f756e747320616e6420696473206c656e677468604482015268040dad2e6dac2e8c6d60bb1b60648201526084016105ac565b6000835167ffffffffffffffff811115610b4957610b4961276d565b604051908082528060200260200182016040528015610b72578160200160208202803683370190505b50905060005b8451811015610bea57610bbd858281518110610b9657610b966130e4565b6020026020010151858381518110610bb057610bb06130e4565b6020026020010151610544565b828281518110610bcf57610bcf6130e4565b6020908102919091010152610be381613112565b9050610b78565b509392505050565b6000600a60f883901c1015610c1957610c1060f883901c6030613157565b60f81b92915050565b610c1060f883901c6057613157565b6001600160a01b038316331480610c445750610c448333610e5d565b610ca25760405162461bcd60e51b815260206004820152602960248201527f455243313135353a2063616c6c6572206973206e6f74206f776e6572206e6f7260448201526808185c1c1c9bdd995960ba1b60648201526084016105ac565b610a0583838361188b565b610cd77f9f2df0fed2c77648de5860a4cc508cd0818c85b8b8a1ab4ceeef8d981c8956a63361040a565b610d495760405162461bcd60e51b815260206004820152603860248201527f455243313135355072657365744d696e7465725061757365723a206d7573742060448201527f68617665206d696e74657220726f6c6520746f206d696e74000000000000000060648201526084016105ac565b6107ce84848484611ad5565b7f65d7a28e3265b37a6474929f336521b332c1681b933f6cb9f3376673440d862a610d8081336112d5565b610ac5611be7565b6000828152600160205260408120610da09083611c6f565b9392505050565b6000610db381336112d5565b8151610a05906008906020850190612660565b6007805461061190612edd565b610600338383611c7b565b60008181526001602052604081206105da90611d5c565b600082815260208190526040902060010154610e1181336112d5565b610a0583836117cd565b60608585858585604051602001610e3695949392919061317c565b604051602081830303815290604052905095945050505050565b6008805461061190612edd565b600b5460405163c455279160e01b81526001600160a01b03848116600483015260009281169190841690829063c45527919060240160206040518083038186803b158015610eaa57600080fd5b505afa158015610ebe573d6000803e3d6000fd5b505050506040513d601f19601f82011682018060405250810190610ee29190613212565b6001600160a01b03161415610efb5760019150506105da565b6001600160a01b0380851660009081526003602090815260408083209387168352929052205460ff165b949350505050565b6001600160a01b038516331480610f495750610f498533610e5d565b610fa75760405162461bcd60e51b815260206004820152602960248201527f455243313135353a2063616c6c6572206973206e6f74206f776e6572206e6f7260448201526808185c1c1c9bdd995960ba1b60648201526084016105ac565b6109d88585858585611d66565b6001600160a01b038316331480610fd05750610fd08333610e5d565b61102e5760405162461bcd60e51b815260206004820152602960248201527f455243313135353a2063616c6c6572206973206e6f74206f776e6572206e6f7260448201526808185c1c1c9bdd995960ba1b60648201526084016105ac565b610a05838383611f08565b6000828152602081815260408083206001600160a01b038516845290915290205460ff16610600576000828152602081815260408083206001600160a01b03851684529091529020805460ff191660011790556110933390565b6001600160a01b0316816001600160a01b0316837f2f8788117e7eff1d82e926ec794901d17c78024a50270940304540a733656f0d60405160405180910390a45050565b6000610da0836001600160a01b038416612085565b606060006110fb836002612f45565b6111069060026130fa565b67ffffffffffffffff81111561111e5761111e61276d565b6040519080825280601f01601f191660200182016040528015611148576020820181803683370190505b509050600360fc1b81600081518110611163576111636130e4565b60200101906001600160f81b031916908160001a905350600f60fb1b81600181518110611192576111926130e4565b60200101906001600160f81b031916908160001a90535060006111b6846002612f45565b6111c19060016130fa565b90505b6001811115611246577f303132333435363738396162636465660000000000000000000000000000000085600f1660108110611202576112026130e4565b1a60f81b828281518110611218576112186130e4565b60200101906001600160f81b031916908160001a90535060049490941c9361123f8161322f565b90506111c4565b508315610da05760405162461bcd60e51b815260206004820181905260248201527f537472696e67733a20686578206c656e67746820696e73756666696369656e7460448201526064016105ac565b60006001600160e01b03198216636cdb3d1360e11b14806112c657506001600160e01b031982166303a24d0760e21b145b806105da57506105da826120d4565b6000828152602081815260408083206001600160a01b038516845290915290205460ff1661060057611311816001600160a01b031660146110ec565b61131c8360206110ec565b60405160200161132d929190613246565b60408051601f198184030181529082905262461bcd60e51b82526105ac916004016128b1565b8051610600906004906020840190612660565b6001600160a01b0384166113c65760405162461bcd60e51b815260206004820152602160248201527f455243313135353a206d696e7420746f20746865207a65726f206164647265736044820152607360f81b60648201526084016105ac565b81518351146114285760405162461bcd60e51b815260206004820152602860248201527f455243313135353a2069647320616e6420616d6f756e7473206c656e677468206044820152670dad2e6dac2e8c6d60c31b60648201526084016105ac565b33611438816000878787876120f9565b60005b84518110156114d457838181518110611456576114566130e4565b602002602001015160026000878481518110611474576114746130e4565b602002602001015181526020019081526020016000206000886001600160a01b03166001600160a01b0316815260200190815260200160002060008282546114bc91906130fa565b909155508190506114cc81613112565b91505061143b565b50846001600160a01b031660006001600160a01b0316826001600160a01b03167f4a39dc06d4c0dbc64b70af90fd698a233a518aa5d07e595d983b8c0526c8f7fb87876040516115259291906132c7565b60405180910390a46109d881600087878787612107565b815183511461159e5760405162461bcd60e51b815260206004820152602860248201527f455243313135353a2069647320616e6420616d6f756e7473206c656e677468206044820152670dad2e6dac2e8c6d60c31b60648201526084016105ac565b6001600160a01b0384166116025760405162461bcd60e51b815260206004820152602560248201527f455243313135353a207472616e7366657220746f20746865207a65726f206164604482015264647265737360d81b60648201526084016105ac565b336116118187878787876120f9565b60005b845181101561173d576000858281518110611631576116316130e4565b60200260200101519050600085838151811061164f5761164f6130e4565b60209081029190910181015160008481526002835260408082206001600160a01b038e1683529093529190912054909150818110156116e35760405162461bcd60e51b815260206004820152602a60248201527f455243313135353a20696e73756666696369656e742062616c616e636520666f60448201526939103a3930b739b332b960b11b60648201526084016105ac565b60008381526002602090815260408083206001600160a01b038e8116855292528083208585039055908b168252812080548492906117229084906130fa565b925050819055505050508061173690613112565b9050611614565b50846001600160a01b0316866001600160a01b0316826001600160a01b03167f4a39dc06d4c0dbc64b70af90fd698a233a518aa5d07e595d983b8c0526c8f7fb878760405161178d9291906132c7565b60405180910390a46117a3818787878787612107565b505050505050565b6117b58282611039565b6000828152600160205260409020610a0590826110d7565b6117d782826122bc565b6000828152600160205260409020610a05908261233b565b60055460ff166118415760405162461bcd60e51b815260206004820152601460248201527f5061757361626c653a206e6f742070617573656400000000000000000000000060448201526064016105ac565b6005805460ff191690557f5db9ee0a495bf2e6ff9c91a7834c1ba4fdd244a5e8aa4e537bd38aeae4b073aa335b6040516001600160a01b03909116815260200160405180910390a1565b6001600160a01b0383166118ed5760405162461bcd60e51b815260206004820152602360248201527f455243313135353a206275726e2066726f6d20746865207a65726f206164647260448201526265737360e81b60648201526084016105ac565b805182511461194f5760405162461bcd60e51b815260206004820152602860248201527f455243313135353a2069647320616e6420616d6f756e7473206c656e677468206044820152670dad2e6dac2e8c6d60c31b60648201526084016105ac565b6000339050611972818560008686604051806020016040528060008152506120f9565b60005b8351811015611a76576000848281518110611992576119926130e4565b6020026020010151905060008483815181106119b0576119b06130e4565b60209081029190910181015160008481526002835260408082206001600160a01b038c168352909352919091205490915081811015611a3d5760405162461bcd60e51b8152602060048201526024808201527f455243313135353a206275726e20616d6f756e7420657863656564732062616c604482015263616e636560e01b60648201526084016105ac565b60009283526002602090815260408085206001600160a01b038b1686529091529092209103905580611a6e81613112565b915050611975565b5060006001600160a01b0316846001600160a01b0316826001600160a01b03167f4a39dc06d4c0dbc64b70af90fd698a233a518aa5d07e595d983b8c0526c8f7fb8686604051611ac79291906132c7565b60405180910390a450505050565b6001600160a01b038416611b355760405162461bcd60e51b815260206004820152602160248201527f455243313135353a206d696e7420746f20746865207a65726f206164647265736044820152607360f81b60648201526084016105ac565b33611b5581600087611b4688612350565b611b4f88612350565b876120f9565b60008481526002602090815260408083206001600160a01b038916845290915281208054859290611b879084906130fa565b909155505060408051858152602081018590526001600160a01b0380881692600092918516917fc3d58168c5ae7397731d063d5bbf3d657854427343f4c083240f7aacaa2d0f62910160405180910390a46109d88160008787878761239b565b60055460ff1615611c3a5760405162461bcd60e51b815260206004820152601060248201527f5061757361626c653a207061757365640000000000000000000000000000000060448201526064016105ac565b6005805460ff191660011790557f62e78cea01bee320cd4e420270b5ea74000d11b0c9f74754ebdbfc544b05a25861186e3390565b6000610da083836124a6565b816001600160a01b0316836001600160a01b03161415611cef5760405162461bcd60e51b815260206004820152602960248201527f455243313135353a2073657474696e6720617070726f76616c20737461747573604482015268103337b91039b2b63360b91b60648201526084016105ac565b6001600160a01b03838116600081815260036020908152604080832094871680845294825291829020805460ff191686151590811790915591519182527f17307eab39ab6107e8899845ad3d59bd9653f200f220920489ca2b5937696c31910160405180910390a3505050565b60006105da825490565b6001600160a01b038416611dca5760405162461bcd60e51b815260206004820152602560248201527f455243313135353a207472616e7366657220746f20746865207a65726f206164604482015264647265737360d81b60648201526084016105ac565b33611dda818787611b4688612350565b60008481526002602090815260408083206001600160a01b038a16845290915290205483811015611e605760405162461bcd60e51b815260206004820152602a60248201527f455243313135353a20696e73756666696369656e742062616c616e636520666f60448201526939103a3930b739b332b960b11b60648201526084016105ac565b60008581526002602090815260408083206001600160a01b038b8116855292528083208785039055908816825281208054869290611e9f9084906130fa565b909155505060408051868152602081018690526001600160a01b03808916928a821692918616917fc3d58168c5ae7397731d063d5bbf3d657854427343f4c083240f7aacaa2d0f62910160405180910390a4611eff82888888888861239b565b50505050505050565b6001600160a01b038316611f6a5760405162461bcd60e51b815260206004820152602360248201527f455243313135353a206275726e2066726f6d20746865207a65726f206164647260448201526265737360e81b60648201526084016105ac565b33611f9981856000611f7b87612350565b611f8487612350565b604051806020016040528060008152506120f9565b60008381526002602090815260408083206001600160a01b0388168452909152902054828110156120185760405162461bcd60e51b8152602060048201526024808201527f455243313135353a206275726e20616d6f756e7420657863656564732062616c604482015263616e636560e01b60648201526084016105ac565b60008481526002602090815260408083206001600160a01b03898116808652918452828520888703905582518981529384018890529092908616917fc3d58168c5ae7397731d063d5bbf3d657854427343f4c083240f7aacaa2d0f62910160405180910390a45050505050565b60008181526001830160205260408120546120cc575081546001818101845560008481526020808220909301849055845484825282860190935260409020919091556105da565b5060006105da565b60006001600160e01b03198216635a05180f60e01b14806105da57506105da826124d0565b6117a3868686868686612505565b6001600160a01b0384163b156117a35760405163bc197c8160e01b81526001600160a01b0385169063bc197c819061214b90899089908890889088906004016132f5565b602060405180830381600087803b15801561216557600080fd5b505af1925050508015612195575060408051601f3d908101601f1916820190925261219291810190613353565b60015b61224b576121a1613370565b806308c379a014156121db57506121b661338c565b806121c157506121dd565b8060405162461bcd60e51b81526004016105ac91906128b1565b505b60405162461bcd60e51b815260206004820152603460248201527f455243313135353a207472616e7366657220746f206e6f6e204552433131353560448201527f526563656976657220696d706c656d656e74657200000000000000000000000060648201526084016105ac565b6001600160e01b0319811663bc197c8160e01b14611eff5760405162461bcd60e51b815260206004820152602860248201527f455243313135353a204552433131353552656365697665722072656a656374656044820152676420746f6b656e7360c01b60648201526084016105ac565b6000828152602081815260408083206001600160a01b038516845290915290205460ff1615610600576000828152602081815260408083206001600160a01b0385168085529252808320805460ff1916905551339285917ff6391f5c32d9c69d2a47ea670b442974b53935d1edc7fd64eb21e047a839171b9190a45050565b6000610da0836001600160a01b03841661256d565b6040805160018082528183019092526060916000919060208083019080368337019050509050828160008151811061238a5761238a6130e4565b602090810291909101015292915050565b6001600160a01b0384163b156117a35760405163f23a6e6160e01b81526001600160a01b0385169063f23a6e61906123df9089908990889088908890600401613416565b602060405180830381600087803b1580156123f957600080fd5b505af1925050508015612429575060408051601f3d908101601f1916820190925261242691810190613353565b60015b612435576121a1613370565b6001600160e01b0319811663f23a6e6160e01b14611eff5760405162461bcd60e51b815260206004820152602860248201527f455243313135353a204552433131353552656365697665722072656a656374656044820152676420746f6b656e7360c01b60648201526084016105ac565b60008260000182815481106124bd576124bd6130e4565b9060005260206000200154905092915050565b60006001600160e01b03198216637965db0b60e01b14806105da57506301ffc9a760e01b6001600160e01b03198316146105da565b60055460ff16156117a35760405162461bcd60e51b815260206004820152602c60248201527f455243313135355061757361626c653a20746f6b656e207472616e736665722060448201526b1dda1a5b19481c185d5cd95960a21b60648201526084016105ac565b60008181526001830160205260408120548015612656576000612591600183612f2e565b85549091506000906125a590600190612f2e565b905081811461260a5760008660000182815481106125c5576125c56130e4565b90600052602060002001549050808760000184815481106125e8576125e86130e4565b6000918252602080832090910192909255918252600188019052604090208390555b855486908061261b5761261b613459565b6001900381819060005260206000200160009055905585600101600086815260200190815260200160002060009055600193505050506105da565b60009150506105da565b82805461266c90612edd565b90600052602060002090601f01602090048101928261268e57600085556126d4565b82601f106126a757805160ff19168380011785556126d4565b828001600101855582156126d4579182015b828111156126d45782518255916020019190600101906126b9565b506126e09291506126e4565b5090565b5b808211156126e057600081556001016126e5565b6001600160a01b0381168114610ac557600080fd5b6000806040838503121561272157600080fd5b823561272c816126f9565b946020939093013593505050565b6001600160e01b031981168114610ac557600080fd5b60006020828403121561276257600080fd5b8135610da08161273a565b634e487b7160e01b600052604160045260246000fd5b601f8201601f1916810167ffffffffffffffff811182821017156127a9576127a961276d565b6040525050565b600082601f8301126127c157600080fd5b813567ffffffffffffffff8111156127db576127db61276d565b6040516127f2601f8301601f191660200182612783565b81815284602083860101111561280757600080fd5b816020850160208301376000918101602001919091529392505050565b60006020828403121561283657600080fd5b813567ffffffffffffffff81111561284d57600080fd5b610f25848285016127b0565b60005b8381101561287457818101518382015260200161285c565b838111156107ce5750506000910152565b6000815180845261289d816020860160208601612859565b601f01601f19169290920160200192915050565b602081526000610da06020830184612885565b6000602082840312156128d657600080fd5b5035919050565b600067ffffffffffffffff8211156128f7576128f761276d565b5060051b60200190565b600082601f83011261291257600080fd5b8135602061291f826128dd565b60405161292c8282612783565b83815260059390931b850182019282810191508684111561294c57600080fd5b8286015b848110156129675780358352918301918301612950565b509695505050505050565b6000806000806080858703121561298857600080fd5b8435612993816126f9565b9350602085013567ffffffffffffffff808211156129b057600080fd5b6129bc88838901612901565b945060408701359150808211156129d257600080fd5b6129de88838901612901565b935060608701359150808211156129f457600080fd5b50612a01878288016127b0565b91505092959194509250565b600060208284031215612a1f57600080fd5b8135610da0816126f9565b600080600080600060a08688031215612a4257600080fd5b8535612a4d816126f9565b94506020860135612a5d816126f9565b9350604086013567ffffffffffffffff80821115612a7a57600080fd5b612a8689838a01612901565b94506060880135915080821115612a9c57600080fd5b612aa889838a01612901565b93506080880135915080821115612abe57600080fd5b50612acb888289016127b0565b9150509295509295909350565b60008060408385031215612aeb57600080fd5b823591506020830135612afd816126f9565b809150509250929050565b60008060408385031215612b1b57600080fd5b823567ffffffffffffffff80821115612b3357600080fd5b818501915085601f830112612b4757600080fd5b81356020612b54826128dd565b604051612b618282612783565b83815260059390931b8501820192828101915089841115612b8157600080fd5b948201945b83861015612ba8578535612b99816126f9565b82529482019490820190612b86565b96505086013592505080821115612bbe57600080fd5b50612bcb85828601612901565b9150509250929050565b600081518084526020808501945080840160005b83811015612c0557815187529582019590820190600101612be9565b509495945050505050565b602081526000610da06020830184612bd5565b600060208284031215612c3557600080fd5b81356001600160f81b031981168114610da057600080fd5b600080600060608486031215612c6257600080fd5b8335612c6d816126f9565b9250602084013567ffffffffffffffff80821115612c8a57600080fd5b612c9687838801612901565b93506040860135915080821115612cac57600080fd5b50612cb986828701612901565b9150509250925092565b60008060008060808587031215612cd957600080fd5b8435612ce4816126f9565b93506020850135925060408501359150606085013567ffffffffffffffff811115612d0e57600080fd5b612a01878288016127b0565b60008060408385031215612d2d57600080fd5b50508035926020909101359150565b60008060408385031215612d4f57600080fd5b8235612d5a816126f9565b915060208301358015158114612afd57600080fd5b600080600080600060a08688031215612d8757600080fd5b853567ffffffffffffffff80821115612d9f57600080fd5b612dab89838a016127b0565b96506020880135915080821115612dc157600080fd5b612dcd89838a016127b0565b95506040880135915080821115612de357600080fd5b612def89838a016127b0565b94506060880135915080821115612e0557600080fd5b612aa889838a016127b0565b60008060408385031215612e2457600080fd5b8235612e2f816126f9565b91506020830135612afd816126f9565b600080600080600060a08688031215612e5757600080fd5b8535612e62816126f9565b94506020860135612e72816126f9565b93506040860135925060608601359150608086013567ffffffffffffffff811115612e9c57600080fd5b612acb888289016127b0565b600080600060608486031215612ebd57600080fd5b8335612ec8816126f9565b95602085013595506040909401359392505050565b600181811c90821680612ef157607f821691505b60208210811415612f1257634e487b7160e01b600052602260045260246000fd5b50919050565b634e487b7160e01b600052601160045260246000fd5b600082821015612f4057612f40612f18565b500390565b6000816000190483118215151615612f5f57612f5f612f18565b500290565b600181815b80851115612f9f578160001904821115612f8557612f85612f18565b80851615612f9257918102915b93841c9390800290612f69565b509250929050565b600082612fb6575060016105da565b81612fc3575060006105da565b8160018114612fd95760028114612fe357612fff565b60019150506105da565b60ff841115612ff457612ff4612f18565b50506001821b6105da565b5060208310610133831016604e8410600b8410161715613022575081810a6105da565b61302c8383612f64565b806000190482111561304057613040612f18565b029392505050565b6000610da08383612fa7565b634e487b7160e01b600052601260045260246000fd5b60008261307957613079613054565b500490565b600060ff83168061309157613091613054565b8060ff84160491505092915050565b600060ff821660ff84168160ff048111821515161561304057613040612f18565b600060ff821660ff8416808210156130db576130db612f18565b90039392505050565b634e487b7160e01b600052603260045260246000fd5b6000821982111561310d5761310d612f18565b500190565b600060001982141561312657613126612f18565b5060010190565b61060f60f31b81526000825161314a816002850160208701612859565b9190910160020192915050565b600060ff821660ff84168060ff0382111561317457613174612f18565b019392505050565b6000865161318e818460208b01612859565b8083019050602f60f81b80825287516131ae816001850160208c01612859565b6001920191820181905286516131cb816002850160208b01612859565b6002920191820181905285516131e8816003850160208a01612859565b60039201918201528351613203816004840160208801612859565b01600401979650505050505050565b60006020828403121561322457600080fd5b8151610da0816126f9565b60008161323e5761323e612f18565b506000190190565b7f416363657373436f6e74726f6c3a206163636f756e742000000000000000000081526000835161327e816017850160208801612859565b7f206973206d697373696e6720726f6c652000000000000000000000000000000060179184019182015283516132bb816028840160208801612859565b01602801949350505050565b6040815260006132da6040830185612bd5565b82810360208401526132ec8185612bd5565b95945050505050565b60006001600160a01b03808816835280871660208401525060a0604083015261332160a0830186612bd5565b82810360608401526133338186612bd5565b905082810360808401526133478185612885565b98975050505050505050565b60006020828403121561336557600080fd5b8151610da08161273a565b600060033d11156133895760046000803e5060005160e01c5b90565b600060443d101561339a5790565b6040516003193d81016004833e81513d67ffffffffffffffff81602484011181841117156133ca57505050505090565b82850191508151818111156133e25750505050505090565b843d87010160208285010111156133fc5750505050505090565b61340b60208286010187612783565b509095945050505050565b60006001600160a01b03808816835280871660208401525084604083015283606083015260a0608083015261344e60a0830184612885565b979650505050505050565b634e487b7160e01b600052603160045260246000fdfea264697066735822122009e7f7bdf76504f4dafd5d53064376cd83f6642c75e6cbad2d36d550aa7f3aa264736f6c6343000809003368747470733a2f2f6d61726b6574706c6163652d6e66742e73332e75732d776573742d312e616d617a6f6e6177732e636f6d2f6e66742f636f6e74726163742f65d7a28e3265b37a6474929f336521b332c1681b933f6cb9f3376673440d862a68747470733a2f2f6d61726b6574706c6163652d6e66742e73332e75732d776573742d312e616d617a6f6e6177732e636f6d2f6e66742f746f6b656e2f9f2df0fed2c77648de5860a4cc508cd0818c85b8b8a1ab4ceeef8d981c8956a6",
  "linkReferences": {},
  "deployedLinkReferences": {}
}