{
  "_format": "hh-sol-artifact-1",
  "contractName": "TokenMarket",
  "sourceName": "contracts/TokenMarket.sol",
  "abi": [
    {
      "inputs": [
        {
          "internalType": "uint256",
          "name": "_maxRoyalty",
          "type": "uint256"
        },
        {
          "internalType": "address",
          "name": "_nftContractAddress",
          "type": "address"
        },
        {
          "internalType": "address",
          "name": "_storageContractAddress",
          "type": "address"
        }
      ],
      "stateMutability": "nonpayable",
      "type": "constructor"
    },
    {
      "anonymous": false,
      "inputs": [
        {
          "indexed": true,
          "internalType": "address",
          "name": "previousOwner",
          "type": "address"
        },
        {
          "indexed": true,
          "internalType": "address",
          "name": "newOwner",
          "type": "address"
        }
      ],
      "name": "OwnershipTransferred",
      "type": "event"
    },
    {
      "anonymous": false,
      "inputs": [
        {
          "indexed": false,
          "internalType": "address",
          "name": "account",
          "type": "address"
        }
      ],
      "name": "Paused",
      "type": "event"
    },
    {
      "anonymous": false,
      "inputs": [
        {
          "indexed": true,
          "internalType": "bytes32",
          "name": "role",
          "type": "bytes32"
        },
        {
          "indexed": true,
          "internalType": "bytes32",
          "name": "previousAdminRole",
          "type": "bytes32"
        },
        {
          "indexed": true,
          "internalType": "bytes32",
          "name": "newAdminRole",
          "type": "bytes32"
        }
      ],
      "name": "RoleAdminChanged",
      "type": "event"
    },
    {
      "anonymous": false,
      "inputs": [
        {
          "indexed": true,
          "internalType": "bytes32",
          "name": "role",
          "type": "bytes32"
        },
        {
          "indexed": true,
          "internalType": "address",
          "name": "account",
          "type": "address"
        },
        {
          "indexed": true,
          "internalType": "address",
          "name": "sender",
          "type": "address"
        }
      ],
      "name": "RoleGranted",
      "type": "event"
    },
    {
      "anonymous": false,
      "inputs": [
        {
          "indexed": true,
          "internalType": "bytes32",
          "name": "role",
          "type": "bytes32"
        },
        {
          "indexed": true,
          "internalType": "address",
          "name": "account",
          "type": "address"
        },
        {
          "indexed": true,
          "internalType": "address",
          "name": "sender",
          "type": "address"
        }
      ],
      "name": "RoleRevoked",
      "type": "event"
    },
    {
      "anonymous": false,
      "inputs": [
        {
          "indexed": false,
          "internalType": "uint256",
          "name": "standard",
          "type": "uint256"
        },
        {
          "indexed": false,
          "internalType": "address",
          "name": "nftAddress",
          "type": "address"
        },
        {
          "indexed": false,
          "internalType": "uint256",
          "name": "tokenId",
          "type": "uint256"
        },
        {
          "indexed": false,
          "internalType": "uint256",
          "name": "itemId",
          "type": "uint256"
        },
        {
          "indexed": false,
          "internalType": "uint256",
          "name": "amount",
          "type": "uint256"
        },
        {
          "indexed": false,
          "internalType": "uint256",
          "name": "price",
          "type": "uint256"
        },
        {
          "indexed": false,
          "internalType": "address",
          "name": "owner",
          "type": "address"
        }
      ],
      "name": "TokenBought",
      "type": "event"
    },
    {
      "anonymous": false,
      "inputs": [
        {
          "indexed": false,
          "internalType": "uint256",
          "name": "standard",
          "type": "uint256"
        },
        {
          "indexed": false,
          "internalType": "address",
          "name": "nftAddress",
          "type": "address"
        },
        {
          "indexed": false,
          "internalType": "uint256",
          "name": "tokenId",
          "type": "uint256"
        },
        {
          "indexed": false,
          "internalType": "uint256",
          "name": "itemId",
          "type": "uint256"
        },
        {
          "indexed": false,
          "internalType": "uint256",
          "name": "amount",
          "type": "uint256"
        },
        {
          "indexed": false,
          "internalType": "uint256",
          "name": "price",
          "type": "uint256"
        }
      ],
      "name": "TokenListed",
      "type": "event"
    },
    {
      "anonymous": false,
      "inputs": [
        {
          "indexed": false,
          "internalType": "address",
          "name": "nftAddress",
          "type": "address"
        },
        {
          "indexed": false,
          "internalType": "uint256",
          "name": "tokenId",
          "type": "uint256"
        },
        {
          "indexed": false,
          "internalType": "uint256",
          "name": "amount",
          "type": "uint256"
        },
        {
          "indexed": false,
          "internalType": "address",
          "name": "owner",
          "type": "address"
        }
      ],
      "name": "TokenMinted",
      "type": "event"
    },
    {
      "anonymous": false,
      "inputs": [
        {
          "indexed": false,
          "internalType": "uint256",
          "name": "standard",
          "type": "uint256"
        },
        {
          "indexed": false,
          "internalType": "address",
          "name": "nftAddress",
          "type": "address"
        },
        {
          "indexed": false,
          "internalType": "uint256",
          "name": "tokenId",
          "type": "uint256"
        },
        {
          "indexed": false,
          "internalType": "uint256",
          "name": "itemId",
          "type": "uint256"
        },
        {
          "indexed": false,
          "internalType": "uint256",
          "name": "price",
          "type": "uint256"
        }
      ],
      "name": "TokenUpdated",
      "type": "event"
    },
    {
      "anonymous": false,
      "inputs": [
        {
          "indexed": false,
          "internalType": "address",
          "name": "account",
          "type": "address"
        }
      ],
      "name": "Unpaused",
      "type": "event"
    },
    {
      "inputs": [],
      "name": "DEFAULT_ADMIN_ROLE",
      "outputs": [
        {
          "internalType": "bytes32",
          "name": "",
          "type": "bytes32"
        }
      ],
      "stateMutability": "view",
      "type": "function"
    },
    {
      "inputs": [],
      "name": "MARKET_ADMIN_ROLE",
      "outputs": [
        {
          "internalType": "bytes32",
          "name": "",
          "type": "bytes32"
        }
      ],
      "stateMutability": "view",
      "type": "function"
    },
    {
      "inputs": [
        {
          "internalType": "address",
          "name": "_nftAddress",
          "type": "address"
        },
        {
          "internalType": "uint256",
          "name": "_tokenId",
          "type": "uint256"
        },
        {
          "internalType": "uint256",
          "name": "_itemId",
          "type": "uint256"
        },
        {
          "internalType": "uint256",
          "name": "_amount",
          "type": "uint256"
        }
      ],
      "name": "buyToken",
      "outputs": [],
      "stateMutability": "payable",
      "type": "function"
    },
    {
      "inputs": [
        {
          "internalType": "address",
          "name": "_nftAddress",
          "type": "address"
        },
        {
          "internalType": "uint256",
          "name": "_tokenId",
          "type": "uint256"
        },
        {
          "internalType": "uint256",
          "name": "_price",
          "type": "uint256"
        },
        {
          "internalType": "uint256",
          "name": "_amount",
          "type": "uint256"
        }
      ],
      "name": "createSale",
      "outputs": [],
      "stateMutability": "nonpayable",
      "type": "function"
    },
    {
      "inputs": [
        {
          "internalType": "bytes32",
          "name": "role",
          "type": "bytes32"
        }
      ],
      "name": "getRoleAdmin",
      "outputs": [
        {
          "internalType": "bytes32",
          "name": "",
          "type": "bytes32"
        }
      ],
      "stateMutability": "view",
      "type": "function"
    },
    {
      "inputs": [
        {
          "internalType": "bytes32",
          "name": "role",
          "type": "bytes32"
        },
        {
          "internalType": "uint256",
          "name": "index",
          "type": "uint256"
        }
      ],
      "name": "getRoleMember",
      "outputs": [
        {
          "internalType": "address",
          "name": "",
          "type": "address"
        }
      ],
      "stateMutability": "view",
      "type": "function"
    },
    {
      "inputs": [
        {
          "internalType": "bytes32",
          "name": "role",
          "type": "bytes32"
        }
      ],
      "name": "getRoleMemberCount",
      "outputs": [
        {
          "internalType": "uint256",
          "name": "",
          "type": "uint256"
        }
      ],
      "stateMutability": "view",
      "type": "function"
    },
    {
      "inputs": [
        {
          "internalType": "bytes32",
          "name": "role",
          "type": "bytes32"
        },
        {
          "internalType": "address",
          "name": "account",
          "type": "address"
        }
      ],
      "name": "grantRole",
      "outputs": [],
      "stateMutability": "nonpayable",
      "type": "function"
    },
    {
      "inputs": [
        {
          "internalType": "bytes32",
          "name": "role",
          "type": "bytes32"
        },
        {
          "internalType": "address",
          "name": "account",
          "type": "address"
        }
      ],
      "name": "hasRole",
      "outputs": [
        {
          "internalType": "bool",
          "name": "",
          "type": "bool"
        }
      ],
      "stateMutability": "view",
      "type": "function"
    },
    {
      "inputs": [],
      "name": "maxRoyalty",
      "outputs": [
        {
          "internalType": "uint256",
          "name": "",
          "type": "uint256"
        }
      ],
      "stateMutability": "view",
      "type": "function"
    },
    {
      "inputs": [
        {
          "internalType": "uint256",
          "name": "_tokenId",
          "type": "uint256"
        },
        {
          "internalType": "uint256",
          "name": "_royalty",
          "type": "uint256"
        },
        {
          "internalType": "uint256",
          "name": "_amount",
          "type": "uint256"
        }
      ],
      "name": "mintToken",
      "outputs": [],
      "stateMutability": "nonpayable",
      "type": "function"
    },
    {
      "inputs": [],
      "name": "nftContractAddress",
      "outputs": [
        {
          "internalType": "address",
          "name": "",
          "type": "address"
        }
      ],
      "stateMutability": "view",
      "type": "function"
    },
    {
      "inputs": [],
      "name": "owner",
      "outputs": [
        {
          "internalType": "address",
          "name": "",
          "type": "address"
        }
      ],
      "stateMutability": "view",
      "type": "function"
    },
    {
      "inputs": [],
      "name": "paused",
      "outputs": [
        {
          "internalType": "bool",
          "name": "",
          "type": "bool"
        }
      ],
      "stateMutability": "view",
      "type": "function"
    },
    {
      "inputs": [],
      "name": "renounceOwnership",
      "outputs": [],
      "stateMutability": "nonpayable",
      "type": "function"
    },
    {
      "inputs": [
        {
          "internalType": "bytes32",
          "name": "role",
          "type": "bytes32"
        },
        {
          "internalType": "address",
          "name": "account",
          "type": "address"
        }
      ],
      "name": "renounceRole",
      "outputs": [],
      "stateMutability": "nonpayable",
      "type": "function"
    },
    {
      "inputs": [
        {
          "internalType": "bytes32",
          "name": "role",
          "type": "bytes32"
        },
        {
          "internalType": "address",
          "name": "account",
          "type": "address"
        }
      ],
      "name": "revokeRole",
      "outputs": [],
      "stateMutability": "nonpayable",
      "type": "function"
    },
    {
      "inputs": [
        {
          "internalType": "uint256",
          "name": "_newMaxRoyalty",
          "type": "uint256"
        }
      ],
      "name": "setMaxRoyalty",
      "outputs": [],
      "stateMutability": "nonpayable",
      "type": "function"
    },
    {
      "inputs": [],
      "name": "storageContractAddress",
      "outputs": [
        {
          "internalType": "address",
          "name": "",
          "type": "address"
        }
      ],
      "stateMutability": "view",
      "type": "function"
    },
    {
      "inputs": [
        {
          "internalType": "bytes4",
          "name": "interfaceId",
          "type": "bytes4"
        }
      ],
      "name": "supportsInterface",
      "outputs": [
        {
          "internalType": "bool",
          "name": "",
          "type": "bool"
        }
      ],
      "stateMutability": "view",
      "type": "function"
    },
    {
      "inputs": [
        {
          "internalType": "address",
          "name": "newOwner",
          "type": "address"
        }
      ],
      "name": "transferOwnership",
      "outputs": [],
      "stateMutability": "nonpayable",
      "type": "function"
    }
  ],
  "bytecode": "0x60806040523480156200001157600080fd5b50604051620025353803806200253583398101604081905262000034916200028a565b6000805460ff191690556200004933620000c7565b6200005660003362000120565b620000827f3fb0aaa9e8051cfc6c234a5d843bed33910f70c647055f27247c10144c7552e13362000120565b600392909255600480546001600160a01b03199081166001600160a01b03938416179091556005805482169290931691821790925560068054909216179055620002cb565b600080546001600160a01b03838116610100818102610100600160a81b0319851617855560405193049190911692909183917f8be0079c531659141344cd1fd0a4f28419497f9722a3daafe3b4186f6b6457e091a35050565b6200012c828262000130565b5050565b6200014782826200017360201b620015dd1760201c565b60008281526002602090815260409091206200016e91839062001664620001fb821b17901c565b505050565b60008281526001602090815260408083206001600160a01b038516845290915290205460ff166200012c5760008281526001602081815260408084206001600160a01b0386168086529252808420805460ff19169093179092559051339285917f2f8788117e7eff1d82e926ec794901d17c78024a50270940304540a733656f0d9190a45050565b600062000212836001600160a01b0384166200021b565b90505b92915050565b6000818152600183016020526040812054620002645750815460018181018455600084815260208082209093018490558454848252828601909352604090209190915562000215565b50600062000215565b80516001600160a01b03811681146200028557600080fd5b919050565b600080600060608486031215620002a057600080fd5b83519250620002b2602085016200026d565b9150620002c2604085016200026d565b90509250925092565b61225a80620002db6000396000f3fe60806040526004361061013a5760003560e01c80637c377174116100bb578063aae282e11161007f578063d547741f11610059578063d547741f146103c1578063d6f0d39f146103e1578063f2fde38b1461041557600080fd5b8063aae282e114610361578063c96e9f4b14610381578063ca15c873146103a157600080fd5b80637c3771741461028b5780638da5cb5b146102c35780639010d07c146102e657806391d1485414610306578063a217fddf1461034c57600080fd5b80635c975abb116101025780635c975abb146102155780635cc2f1171461022d5780636432a3641461024d578063674a12c714610260578063715018a61461027657600080fd5b806301ffc9a71461013f5780630423f24014610174578063248a9ca3146101965780632f2ff15d146101d557806336568abe146101f5575b600080fd5b34801561014b57600080fd5b5061015f61015a366004611e55565b610435565b60405190151581526020015b60405180910390f35b34801561018057600080fd5b5061019461018f366004611e7f565b610460565b005b3480156101a257600080fd5b506101c76101b1366004611eab565b6000908152600160208190526040909120015490565b60405190815260200161016b565b3480156101e157600080fd5b506101946101f0366004611ed9565b61067c565b34801561020157600080fd5b50610194610210366004611ed9565b6106a8565b34801561022157600080fd5b5060005460ff1661015f565b34801561023957600080fd5b50610194610248366004611f09565b610734565b61019461025b366004611f09565b610e35565b34801561026c57600080fd5b506101c760035481565b34801561028257600080fd5b506101946113c8565b34801561029757600080fd5b506005546102ab906001600160a01b031681565b6040516001600160a01b03909116815260200161016b565b3480156102cf57600080fd5b5060005461010090046001600160a01b03166102ab565b3480156102f257600080fd5b506102ab610301366004611f44565b611434565b34801561031257600080fd5b5061015f610321366004611ed9565b60009182526001602090815260408084206001600160a01b0393909316845291905290205460ff1690565b34801561035857600080fd5b506101c7600081565b34801561036d57600080fd5b506004546102ab906001600160a01b031681565b34801561038d57600080fd5b5061019461039c366004611eab565b611453565b3480156103ad57600080fd5b506101c76103bc366004611eab565b6114ce565b3480156103cd57600080fd5b506101946103dc366004611ed9565b6114e5565b3480156103ed57600080fd5b506101c77f3fb0aaa9e8051cfc6c234a5d843bed33910f70c647055f27247c10144c7552e181565b34801561042157600080fd5b50610194610430366004611f66565b61150c565b60006001600160e01b03198216635a05180f60e01b148061045a575061045a82611679565b92915050565b600081116104b55760405162461bcd60e51b815260206004820152601f60248201527f416d6f756e742073686f756c64206265206d6f7265207468616e207a65726f0060448201526064015b60405180910390fd5b6003548211156105075760405162461bcd60e51b815260206004820152601660248201527f526f79616c7479206c696d69742065786365656465640000000000000000000060448201526064016104ac565b6004546001600160a01b031663731133e9336040516001600160e01b031960e084901b1681526001600160a01b0390911660048201526024810186905260448101849052608060648201526002608482015261060f60f31b60a482015260c401600060405180830381600087803b15801561058157600080fd5b505af1158015610595573d6000803e3d6000fd5b505060065460048054604080516319545ef360e31b81526001600160a01b03928316938101939093526024830189905260448301879052336064840152608483018890524260a4840152519216935063caa2f798925060c48082019260009290919082900301818387803b15801561060c57600080fd5b505af1158015610620573d6000803e3d6000fd5b5050600454604080516001600160a01b03909216825260208201879052818101859052336060830152517f6a1a369ef3c3eebe428c993f6eb79fb1438544741070bc7a4388c801fa08463d9350908190036080019150a1505050565b6000828152600160208190526040909120015461069981336116ae565b6106a3838361172e565b505050565b6001600160a01b03811633146107265760405162461bcd60e51b815260206004820152602f60248201527f416363657373436f6e74726f6c3a2063616e206f6e6c792072656e6f756e636560448201527f20726f6c657320666f722073656c66000000000000000000000000000000000060648201526084016104ac565b6107308282611750565b5050565b600081116107845760405162461bcd60e51b815260206004820152601f60248201527f416d6f756e742073686f756c64206265206d6f7265207468616e207a65726f0060448201526064016104ac565b600082116107d45760405162461bcd60e51b815260206004820152601f60248201527f5072696365206d7573742062652067726561746572207468616e207a65726f0060448201526064016104ac565b60065460405163472bf44760e01b81526001600160a01b038681166004830152602482018690529091169063472bf4479060440160206040518083038186803b15801561082057600080fd5b505afa158015610834573d6000803e3d6000fd5b505050506040513d601f19601f820116820180604052508101906108589190611f98565b6108a45760405162461bcd60e51b815260206004820152601960248201527f546f6b656e206e6f7420666f756e6420696e204d61726b65740000000000000060448201526064016104ac565b6000806108b086611772565b15610a86576040516331a9108f60e11b8152600481018690526000906001600160a01b03881690636352211e9060240160206040518083038186803b1580156108f857600080fd5b505afa15801561090c573d6000803e3d6000fd5b505050506040513d601f19601f820116820180604052508101906109309190611fb3565b90506001600160a01b038116331461098a5760405162461bcd60e51b815260206004820152601360248201527f43616c6c6572206973206e6f74206f776e65720000000000000000000000000060448201526064016104ac565b600184111561099857600193505b60006001600160a01b03881663e985e9c5336040516001600160e01b031960e084901b1681526001600160a01b03909116600482015230602482015260440160206040518083038186803b1580156109ef57600080fd5b505afa158015610a03573d6000803e3d6000fd5b505050506040513d601f19601f82011682018060405250810190610a279190611f98565b905080610a765760405162461bcd60e51b815260206004820152601b60248201527f53657420617070726f76616c206265666f7265206c697374696e67000000000060448201526064016104ac565b6102d19350600192505050610d38565b610a8f866117f4565b15610cf05760006001600160a01b03871662fdd58e336040516001600160e01b031960e084901b1681526001600160a01b0390911660048201526024810189905260440160206040518083038186803b158015610aeb57600080fd5b505afa158015610aff573d6000803e3d6000fd5b505050506040513d601f19601f82011682018060405250810190610b239190611fd0565b905083811015610b755760405162461bcd60e51b815260206004820152601560248201527f4d757374206f776e20656e6f75676820746f6b656e000000000000000000000060448201526064016104ac565b60006001600160a01b03881663e985e9c5336040516001600160e01b031960e084901b1681526001600160a01b03909116600482015230602482015260440160206040518083038186803b158015610bcc57600080fd5b505afa158015610be0573d6000803e3d6000fd5b505050506040513d601f19601f82011682018060405250810190610c049190611f98565b905080610c535760405162461bcd60e51b815260206004820152601b60248201527f53657420617070726f76616c206265666f7265206c697374696e67000000000060448201526064016104ac565b600654604051630baee51360e31b81526001600160a01b038a81166004830152602482018a9052610483965090911690635d7728989060440160206040518083038186803b158015610ca457600080fd5b505afa158015610cb8573d6000803e3d6000fd5b505050506040513d601f19601f82011682018060405250810190610cdc9190611fd0565b610ce7906001611fff565b92505050610d38565b60405162461bcd60e51b815260206004820152601360248201527f496e76616c6964206e667420616464726573730000000000000000000000000060448201526064016104ac565b60065460408051638417307960e01b81526001600160a01b038981166004830152602482018990526044820185905260648201879052608482018890523360a483015260c482018690524260e48301529151919092169163841730799161010480830192600092919082900301818387803b158015610db657600080fd5b505af1158015610dca573d6000803e3d6000fd5b5050604080518581526001600160a01b038a166020820152908101889052606081018490526080810186905260a081018790527f325803f3e8d60dd5dd317a9a2163edb53d44aac1801625589d9cd8232b91e1cc925060c001905060405180910390a1505050505050565b60008111610e855760405162461bcd60e51b815260206004820152601f60248201527f416d6f756e742073686f756c64206265206d6f7265207468616e207a65726f0060448201526064016104ac565b600654604051630baee51360e31b81526001600160a01b0386811660048301526024820186905290911690635d7728989060440160206040518083038186803b158015610ed157600080fd5b505afa158015610ee5573d6000803e3d6000fd5b505050506040513d601f19601f82011682018060405250810190610f099190611fd0565b821115610f585760405162461bcd60e51b815260206004820152601860248201527f4974656d206e6f7420666f756e6420696e206d61726b6574000000000000000060448201526064016104ac565b6006546040516367aa9b6760e01b81526001600160a01b038681166004830152602482018690526044820185905260009283928392839283928392839216906367aa9b67906064016101006040518083038186803b158015610fb957600080fd5b505afa158015610fcd573d6000803e3d6000fd5b505050506040513d601f19601f82011682018060405250810190610ff19190612017565b97505096509650965096509650965060006001600160a01b0316846001600160a01b031614156110635760405162461bcd60e51b815260206004820152601a60248201527f546f6b656e206e6f7420666f756e6420696e206c697374696e6700000000000060448201526064016104ac565b816110b05760405162461bcd60e51b815260206004820152601560248201527f546f6b656e206973206e6f74207472616461626c65000000000000000000000060448201526064016104ac565b6001600160a01b0384163314156111095760405162461bcd60e51b815260206004820152601460248201527f43616e6e6f7420627579206f776e20746f6b656e00000000000000000000000060448201526064016104ac565b611113888861208f565b34146111615760405162461bcd60e51b815260206004820152601360248201527f4e6f7420656e6f756768206574682073656e740000000000000000000000000060448201526064016104ac565b878610156111b15760405162461bcd60e51b815260206004820152601e60248201527f43616e6e6f7420627579206d6f7265207468616e20617661696c61626c65000060448201526064016104ac565b6111ba8b611772565b1561122d57604051632142170760e11b81526001600160a01b038581166004830152336024830152604482018c90528c16906342842e0e906064015b600060405180830381600087803b15801561121057600080fd5b505af1158015611224573d6000803e3d6000fd5b5050505061128b565b6112368b6117f4565b15610cf057604051637921219560e11b81526001600160a01b038581166004830152336024830152604482018c9052606482018a905260a06084830152600060a48301528c169063f242432a9060c4016111f6565b6112978484348861182a565b6006546001600160a01b0316637cd7efc58c8c8c8c6112b6818e61208f565b8a3360405160e089901b6001600160e01b03191681526001600160a01b0397881660048201526024810196909652604486019490945260648501929092526084840152831660a483015290911660c48201524260e482015261010401600060405180830381600087803b15801561132c57600080fd5b505af1158015611340573d6000803e3d6000fd5b505050507fa75b2a2e83f06090ef705ebcdd769b503ed43ca519febed2d72a7c2baa239ec5818c8c8c8a8c8a6040516113b397969594939291909687526001600160a01b03958616602088015260408701949094526060860192909252608085015260a08401521660c082015260e00190565b60405180910390a15050505050505050505050565b6000546001600160a01b036101009091041633146114285760405162461bcd60e51b815260206004820181905260248201527f4f776e61626c653a2063616c6c6572206973206e6f7420746865206f776e657260448201526064016104ac565b6114326000611a2c565b565b600082815260026020526040812061144c9083611a92565b9392505050565b61147d7f3fb0aaa9e8051cfc6c234a5d843bed33910f70c647055f27247c10144c7552e133610321565b6114c95760405162461bcd60e51b815260206004820152601b60248201527f2361646d696e4f6e6c793a206e6565642061646d696e20726f6c65000000000060448201526064016104ac565b600355565b600081815260026020526040812061045a90611a9e565b6000828152600160208190526040909120015461150281336116ae565b6106a38383611750565b6000546001600160a01b0361010090910416331461156c5760405162461bcd60e51b815260206004820181905260248201527f4f776e61626c653a2063616c6c6572206973206e6f7420746865206f776e657260448201526064016104ac565b6001600160a01b0381166115d15760405162461bcd60e51b815260206004820152602660248201527f4f776e61626c653a206e6577206f776e657220697320746865207a65726f206160448201526564647265737360d01b60648201526084016104ac565b6115da81611a2c565b50565b60008281526001602090815260408083206001600160a01b038516845290915290205460ff166107305760008281526001602081815260408084206001600160a01b0386168086529252808420805460ff19169093179092559051339285917f2f8788117e7eff1d82e926ec794901d17c78024a50270940304540a733656f0d9190a45050565b600061144c836001600160a01b038416611aa8565b60006001600160e01b03198216637965db0b60e01b148061045a57506301ffc9a760e01b6001600160e01b031983161461045a565b60008281526001602090815260408083206001600160a01b038516845290915290205460ff16610730576116ec816001600160a01b03166014611af7565b6116f7836020611af7565b6040516020016117089291906120de565b60408051601f198184030181529082905262461bcd60e51b82526104ac9160040161215f565b61173882826115dd565b60008281526002602052604090206106a39082611664565b61175a8282611ca0565b60008281526002602052604090206106a39082611d23565b6040516301ffc9a760e01b81526380ac58cd60e01b60048201526000906001600160a01b038316906301ffc9a7906024015b60206040518083038186803b1580156117bc57600080fd5b505afa1580156117d0573d6000803e3d6000fd5b505050506040513d601f19601f8201168201806040525081019061045a9190611f98565b6040516301ffc9a760e01b8152636cdb3d1360e11b60048201526000906001600160a01b038316906301ffc9a7906024016117a4565b60065460408051630824ea6b60e31b815290516000926001600160a01b0316916341275358916004808301926020929190829003018186803b15801561186f57600080fd5b505afa158015611883573d6000803e3d6000fd5b505050506040513d601f19601f820116820180604052508101906118a79190611fb3565b9050600060646118b7848661208f565b6118c19190612192565b905060006064600660009054906101000a90046001600160a01b03166001600160a01b03166326232a2e6040518163ffffffff1660e01b815260040160206040518083038186803b15801561191557600080fd5b505afa158015611929573d6000803e3d6000fd5b505050506040513d601f19601f8201168201806040525081019061194d9190611fd0565b611957908761208f565b6119619190612192565b905060008161197084886121b4565b61197a91906121b4565b6040519091506001600160a01b0389169082156108fc029083906000818181858888f193505050501580156119b3573d6000803e3d6000fd5b506040516001600160a01b0388169084156108fc029085906000818181858888f193505050501580156119ea573d6000803e3d6000fd5b506040516001600160a01b0385169083156108fc029084906000818181858888f19350505050158015611a21573d6000803e3d6000fd5b505050505050505050565b600080546001600160a01b0383811661010081810274ffffffffffffffffffffffffffffffffffffffff0019851617855560405193049190911692909183917f8be0079c531659141344cd1fd0a4f28419497f9722a3daafe3b4186f6b6457e091a35050565b600061144c8383611d38565b600061045a825490565b6000818152600183016020526040812054611aef5750815460018181018455600084815260208082209093018490558454848252828601909352604090209190915561045a565b50600061045a565b60606000611b0683600261208f565b611b11906002611fff565b67ffffffffffffffff811115611b2957611b296121cb565b6040519080825280601f01601f191660200182016040528015611b53576020820181803683370190505b509050600360fc1b81600081518110611b6e57611b6e6121e1565b60200101906001600160f81b031916908160001a905350600f60fb1b81600181518110611b9d57611b9d6121e1565b60200101906001600160f81b031916908160001a9053506000611bc184600261208f565b611bcc906001611fff565b90505b6001811115611c51577f303132333435363738396162636465660000000000000000000000000000000085600f1660108110611c0d57611c0d6121e1565b1a60f81b828281518110611c2357611c236121e1565b60200101906001600160f81b031916908160001a90535060049490941c93611c4a816121f7565b9050611bcf565b50831561144c5760405162461bcd60e51b815260206004820181905260248201527f537472696e67733a20686578206c656e67746820696e73756666696369656e7460448201526064016104ac565b60008281526001602090815260408083206001600160a01b038516845290915290205460ff16156107305760008281526001602090815260408083206001600160a01b0385168085529252808320805460ff1916905551339285917ff6391f5c32d9c69d2a47ea670b442974b53935d1edc7fd64eb21e047a839171b9190a45050565b600061144c836001600160a01b038416611d62565b6000826000018281548110611d4f57611d4f6121e1565b9060005260206000200154905092915050565b60008181526001830160205260408120548015611e4b576000611d866001836121b4565b8554909150600090611d9a906001906121b4565b9050818114611dff576000866000018281548110611dba57611dba6121e1565b9060005260206000200154905080876000018481548110611ddd57611ddd6121e1565b6000918252602080832090910192909255918252600188019052604090208390555b8554869080611e1057611e1061220e565b60019003818190600052602060002001600090559055856001016000868152602001908152602001600020600090556001935050505061045a565b600091505061045a565b600060208284031215611e6757600080fd5b81356001600160e01b03198116811461144c57600080fd5b600080600060608486031215611e9457600080fd5b505081359360208301359350604090920135919050565b600060208284031215611ebd57600080fd5b5035919050565b6001600160a01b03811681146115da57600080fd5b60008060408385031215611eec57600080fd5b823591506020830135611efe81611ec4565b809150509250929050565b60008060008060808587031215611f1f57600080fd5b8435611f2a81611ec4565b966020860135965060408601359560600135945092505050565b60008060408385031215611f5757600080fd5b50508035926020909101359150565b600060208284031215611f7857600080fd5b813561144c81611ec4565b80518015158114611f9357600080fd5b919050565b600060208284031215611faa57600080fd5b61144c82611f83565b600060208284031215611fc557600080fd5b815161144c81611ec4565b600060208284031215611fe257600080fd5b5051919050565b634e487b7160e01b600052601160045260246000fd5b6000821982111561201257612012611fe9565b500190565b600080600080600080600080610100898b03121561203457600080fd5b885197506020890151965060408901519550606089015161205481611ec4565b60808a015190955061206581611ec4565b935061207360a08a01611f83565b60c08a015160e0909a0151989b979a5095989497939692505050565b60008160001904831182151516156120a9576120a9611fe9565b500290565b60005b838110156120c95781810151838201526020016120b1565b838111156120d8576000848401525b50505050565b7f416363657373436f6e74726f6c3a206163636f756e74200000000000000000008152600083516121168160178501602088016120ae565b7f206973206d697373696e6720726f6c652000000000000000000000000000000060179184019182015283516121538160288401602088016120ae565b01602801949350505050565b602081526000825180602084015261217e8160408501602087016120ae565b601f01601f19169190910160400192915050565b6000826121af57634e487b7160e01b600052601260045260246000fd5b500490565b6000828210156121c6576121c6611fe9565b500390565b634e487b7160e01b600052604160045260246000fd5b634e487b7160e01b600052603260045260246000fd5b60008161220657612206611fe9565b506000190190565b634e487b7160e01b600052603160045260246000fdfea2646970667358221220b7dba4a8ec2314c87bc22656867c313e87c1708dac153344b6d97eb24ec9ec0b64736f6c63430008090033",
  "linkReferences": {},
  "deployedLinkReferences": {}
}